:020000040800F2
:101000000000012059F0010855F0010853F00108D3
:1010100053F0010853F0010853F0010800000000EC
:1010200000000000000000000000000055F0010872
:1010300055F001080000000055F0010855F00108C6
:1010400053F0010853F0010853F0010853F0010870
:1010500053F0010853F0010853F0010853F0010860
:1010600053F0010853F0010853F0010853F0010850
:10107000997F000853F0010853F0010853F001086C
:1010800053F0010853F0010853F00108952E0008B1
:10109000752E0008852E000853F0010853F0010852
:1010A00053F0010853F0010853F0010853F0010810
:1010B00053F0010853F00108E913000853F0010848
:1010C00053F0010853F0010853F0010853F00108F0
:1010D00053F0010853F0010853F0010853F00108E0
:1010E00053F0010853F0010853F0010853F00108D0
:1010F00053F0010853F0010853F0010853F00108C0
:1011000053F0010853F0010853F0010853F00108AF
:1011100053F0010853F0010853F0010853F001089F
:1011200053F0010853F0010853F0010853F001088F
:1011300053F0010853F0010853F00108C32E0008D2
:10114000A32E0008B32E000853F0010853F0010845
:1011500038B5504B998818681DF030FA1DF038FAF0
:101160004D4B186800F0B4FC1EF008FF4B491FF00F
:101170000DF80146352000F031FD01F0BBFB0146C2
:101180001D2000F01DFD022145481DF079FE01469D
:10119000282000F015FD434801F084FA014629207B
:1011A00000F00EFD404801F07DFA0146302000F0CD
:1011B00007FD05F061F905F0FBF805F0FBFA05F015
:1011C0008BFE022000F0DAFCE0B1012822D03420AE
:1011D00000F0D4FC1D2830DC411C342000F0F0FC71
:1011E000232000F0CBFC03283BDC1DF021FC2F4B1F
:1011F0001B68C01AB0F57A7F38D82D4B186801F0FB
:10120000F9FE38BD1E2000F0B3FC0146202000F09E
:10121000DFFCDCE7274801F045FA0546002000F036
:10122000B5FC044628461EF0A9FE21461EF0AEFF7E
:101230000146202000F0D2FCC9E7162000F09EFCF9
:10124000952804DD162000F099FCFA2803DD012022
:1012500001F02AFBC4E7172000F090FCEA28F6D141
:10126000BEE71DF0E5FB114B1860BEE72B2000F038
:1012700085FC04460A2000F081FC10F0040F02D027
:10128000B4F5FA6FB9DB0C4B998818681DF090F92A
:10129000B3E700BFC00B00204C0B00200000204132
:1012A000000400400C0C0020080C0020580B00200B
:1012B000440B0020F00B0020A00B002008B506F026
:1012C00081FF03F097FE03F06BFF06F0A3FB06F02F
:1012D000FBFC03F0F1FD05F03DF805F07BFE05F0A9
:1012E0007BFF1DF0A5FB01F0D9FA08BD00B583B066
:1012F00002238DF800300A4BD3F8E8278DF801203F
:10130000D3F8F037CDF8023006236A4605490420A9
:1013100006F07EFD684606F04DFD03B05DF804FB67
:1013200000F0FF1F6005020870B51A2000F026FCCF
:10133000054600EB800202EB8202134C1444192094
:1013400000F01CFC10F0080F00D170BD1DF070FB08
:101350000E4B1B68C01A632803D80D4B1B68AB42A9
:10136000F3D01DF065FB094B186000F049FA064602
:1013700003F064FC034622463146064801F0A2F819
:10138000034B1D60E1E700BF60230208500B002003
:10139000540B002074050208FEE7000038B50C2845
:1013A00004D0112817D00B280BD038BD0C4B1C686B
:1013B00023681D680C2000F0E1FBC1B22046A8475D
:1013C000F3E7084B1C680B2000F0D8FBC1B22046A5
:1013D00002F01EFBE9E70021342000F0F1FBE4E716
:1013E000400B0020480B002008B5024B186800F0A5
:1013F00037FB08BD4C0B002080B5ADF5FF6D00F04C
:101400003DF900F0F3F9794E00223146784801F0B9
:101410008DF9784C02222146774801F087F9774D03
:1014200000222946764801F081F9012229467548B3
:1014300001F07CF902222946734801F077F9032272
:101440002946724801F072F904222946704801F0D9
:101450006DF9052229466F4801F068F903223146EB
:101460006D4801F063F90423102231466B4800F007
:1014700038FE042380222146694800F032FE04230E
:1014800010222146674800F02CFE04231A4621460C
:10149000654800F026FE04234FF48062214663482D
:1014A00000F01FFE04234FF400622146604800F064
:1014B00018FE0423022231465E4800F012FE042387
:1014C000012221465C4800F00CFE5C4D0423022200
:1014D0002146284600F005FE01F070F800F01CF9E6
:1014E0004FF470614FF000701DF056F8A98828681D
:1014F0001DF05CF805F082FB05F0DEFD2F2000F00A
:101500003DFB00F085F900F061F901F098F906F073
:1015100061FD0DF5FA644A49204600F049FA494B4D
:101520001C600C2000F02AFB0DF274550023C2B29F
:101530004549284601F0E6FBADAF2946384602F0A2
:10154000F9F98DAE3A462946304602F03BFA0B20B7
:1015500000F014FBC1B2304602F05AFA3B4B1D605A
:101560003B4D2F603B4B1E6000233B4A3B4902A88A
:1015700000F0DAFB2A683A4B1A600E211C2000F0BA
:101580001FFB3849384800F09DFF1C2000F0F6FA98
:101590000146364800F096FF192000F0EFFA0146A8
:1015A000334800F08FFFFFF7A1FE1E22314920468D
:1015B00000F020FA64223049204600F01BFA042192
:1015C0001B2000F0FDFA3620FFF7E8FE04E00DF1E5
:1015D00007018EA802F042FD00238DF80730929B90
:1015E000002BF4D0FFF7A0FEF6E700BF0008014093
:1015F000EC0B0020000C0140000C0020001001400A
:10160000F40B0020F80B0020FC0B0020F00B002056
:10161000040C00200C0C0020080C0020B80B00204B
:10162000C00B0020980B0020C80B0020D80B002016
:10163000D00B0020B00B0020A80B0020A00B002036
:10164000000800404C0B002000640040400B0020CC
:10165000440B0020480B0020640C0208004C0040A2
:101660000C0D002098050208A4050208C005020818
:10167000D8050208BD1200085111000808B5244819
:101680001DF0F4F84FF0E023224AC3F80C2D40F28D
:1016900002301DF049F940F203301DF045F94FF4D6
:1016A00041701DF041F940F205301DF03DF940F266
:1016B00093301DF039F940F20B301DF035F94FF43D
:1016C00060701DF031F940F281301DF02DF940F2CB
:1016D00082301DF029F94FF420701DF025F940F2F9
:1016E00081201DF021F940F209301DF01DF940F272
:1016F00086201DF019F94FF440701DF015F940F2E5
:1017000099301DF011F94FF443701DF00DF908BD2B
:101710002C2C02080003FA0530B597B01CF0C4FD6C
:10172000264D0544AD021422002101A800F0D3FC8F
:10173000234901911123ADF8083001238DF80A30B7
:1017400000228DF80B2003910221ADF810108DF8C6
:1017500012308DF813301B4805904FF47070ADF8BF
:1017600018008DF81A308DF81B2017480790ADF837
:1017700020108DF822308DF823201CF079FD1421E3
:1017800001A81CF083FD15902B6D834201D117B089
:1017900030BD1CF0ABFE28461CF064FE002407E0C0
:1017A00001AB53F8241005EB84001CF0B9FE0134A2
:1017B000142CF5D91CF0A6FEE9E700BFFDFF41009F
:1017C000000C0140001001400008014008B51E2037
:1017D0001DF094FCE0211E201DF09EFC0C201DF04D
:1017E0008DFCD0210C201DF097FC08BD08B54FF4EE
:1017F0001C7103201DF054F900201DF023F908BDD1
:1018000008B51DF015F900EB8000400008BD000090
:1018100038B540F6A373984200F3C2802225614C8C
:1018200020461DF0BFF9002120461DF0A7F92046F3
:101830001DF09FF90622002120461DF0BCF906226A
:10184000022120461DF0B7F90622042120461DF092
:10185000B2F90622114620461DF0ADF900212046BE
:101860001DF06FFA022120461DF06BFA042120467C
:101870001DF067FA062120461DF063FA002120467C
:101880001DF079FA022120461DF075FA0421204648
:101890001DF071FA062120461DF06DFA0021204648
:1018A0001DF0B3FA022120461DF0AFFA04212046B4
:1018B0001DF0ABFA062120461DF0A7FA01212046B3
:1018C0001DF0D8FA294620461DF071F94FF48051D9
:1018D00020461DF06EF920461DF05FF947214FF0BC
:1018E00080401DF064F94FF6FF714FF080401DF00D
:1018F00060F94FF080401DF04BF904214FF080401B
:101900001DF036FB01214FF080401DF028FB5021D7
:101910004FF080401DF034FB0F2200214FF080403B
:101920001DF0BDFA0F2201214FF080401DF0B7FAE3
:10193000012200214FF080401DF0D9FA012211460A
:101940004FF080401DF0D3FA00214FF080401DF091
:1019500012FA02214FF080401DF032FA00214FF0C0
:1019600080401DF0F5FA01214FF080401DF0F0FAA3
:1019700001214FF080401DF07DFA4FF080401DF0B6
:101980000CF94FF470730222032107481CF0D4FDB8
:101990004FF400430122002104481CF0CDFD38BD66
:1019A00000253CE700040040001001400008014011
:1019B00038B505460C46016208461DF0DAF82046A7
:1019C0001DF0E6F8094B19684909094BA3FB0131E1
:1019D000C909013920461DF0EAF84FF6FF7120468B
:1019E0001DF0E7F800236B62284638BD0807002089
:1019F000C55A7C0AF8B5436A032B00DDF8BD0446DE
:101A00000E461546006A1DF0CDF8636A134F012299
:101A1000F95C206A1DF0CFF8636A0022F95C206A45
:101A20001DF018FA636A44F8236003F1080105EB1E
:101A3000850202EB8202920024F8112002219940D3
:101A4000206A1DF089F80021206A1DF026FA206A1C
:101A50001DF0A3F8636A01336362CFE7E80502086B
:101A6000F8B50546002424E00226A6403146286A3F
:101A70001DF076F810B3286A1DF000FA87B22B6AC1
:101A800003EB840304F1080235F812105A6B0A4480
:101A90005A6355F824309847286A1DF0EFF9C01BA7
:101AA00004F10C0325F813003146286A1DF05EF896
:101AB0000134032C0BDC6B6AA342D5DC6B6AA342B6
:101AC000F6DC0221A140286A1DF050F8F0E7F8BDCD
:101AD0000146002210460FE002F10C0331F81330EA
:101AE0004FF47A7C0CFB03F302F1080C31F81CC0B4
:101AF00093FBFCF3184401324B6A9342ECDC7047D1
:101B0000012800D070474FF6FF739942FAD1054B78
:101B1000054A1268C3F8E022044A1268C3F8342365
:101B2000F0E700BFD8000020F0060020E00600200B
:101B300008B5C0EBC0020C4B03EB8203DB688B42A1
:101B40000FDC1346084A02EB83031B698B4201DA60
:101B5000FF2007E0054B43F82010FFF71FFC002093
:101B600000E0FF2008BD00BFD800002000000020DA
:101B7000014B53F82000704700000020024B53F83F
:101B800020004011704700BF0000002008B5054B41
:101B900053F820001EF0F2F94FF074511EF042FA93
:101BA00008BD00BF00000020044B53F82000401186
:101BB000012814BF00200120704700BF0000002052
:101BC0004901024B43F82010704700BF000000207D
:101BD000014B43F8201070470000002010B5044668
:101BE00008464FF084411EF01DFA1EF0F7FB024B31
:101BF00043F8240010BD00BF0000002070B5064669
:101C00000024074D352C09DC3146686800F0CCF91A
:101C100010B101341C35F5E7E0B270BD3720FCE7A8
:101C2000D80000200023064A352B07DC118B8142A7
:101C300002D001331C32F7E7D8B270473720704723
:101C4000D8000020C0EBC000014B03EB80007047C0
:101C5000D800002038B50024074D01E001341C35C0
:101C6000352C07DC2B8B002BF8D06969E0B2FFF72D
:101C7000AFFFF3E738BD00BFD8000020014B195477
:101C8000704700BF5C0B0020024B1A5C11431954D3
:101C9000704700BF5C0B0020024A135C23EA01037B
:101CA000135470475C0B0020014B185C704700BF59
:101CB0005C0B0020C0EBC000024B03EB8000807E79
:101CC000704700BFD80000204DF61A60704708B575
:101CD0004FF6FF710120FFF713FF08BD08B5202163
:101CE00080681DF0B0F908BD08B580681DF0A3F943
:101CF00008BD10B504464368597A58681CF04FFB7C
:101D0000636804F12902597A58681CF05AFB636829
:101D10008022597A58681CF05DFB6368597A5868CC
:101D20001CF034FB10BD000070B504460D464F4951
:101D300001604F49016085600373026101210175F3
:101D40004175817500228261C26180F82020426263
:101D500080F8281047494160032A07D8616808685D
:101D6000A84203D01C3161600132F5E7424A146099
:101D7000002B74D062685069002B73D063681B8B92
:101D8000022203211CF0D8FB4FF4612128461DF0EC
:101D9000FFF8082128461DF00FF94FF4005128469E
:101DA0001DF013F90C2128461DF01BF900212846CF
:101DB0001DF011F9002128461DF019F928461DF0E3
:101DC0002CF928461DF02EF96368197A58681CF022
:101DD00071FA6368197A58681CF0BDFA63682E1DA1
:101DE0003246197A58681CF0E3FA63680022197ABF
:101DF00058681CF08DFA63680022197A58681CF044
:101E00007AFA6368197A58681CF08FFA6368597A0D
:101E100058681CF04FFA63683246597A58681CF0CB
:101E2000C7FA63680022597A58681CF071FA63682F
:101E30000022597A58681CF05EFA6368597A58682B
:101E40001CF073FA6368597A58681CF09FFA2046B0
:101E5000FFF74FFF28461DF0D0F8204670BD62689E
:101E6000D06889E763681B8A8AE700BF640B0208B1
:101E7000E00B0208680B0208940B002038B50446FA
:101E80000D4663680222197A58681CF02AFA18B9BC
:101E900094F82830002BF4D06368197A58681CF045
:101EA0007EFA6368AAB2197A58681CF093FA6368DC
:101EB00094F82020D201A83222440132197A5868BD
:101EC0001CF07FFA63680222197A58681CF003FA42
:101ED0006368197A58681CF059FA94F82030B3FAFC
:101EE00083F35B0984F82030002384F8283038BD60
:101EF00010B50446837D73B10A2910D0436A7F2B45
:101F00000DD090F8202000EBC2121A4482F8A910DC
:101F10000133436210BD80681DF074F8FAE794F84D
:101F20002030626A04EBC313134483F8A910511CD8
:101F30002046FFF7A3FF00236362EBE708B5044BDD
:101F40001B681A681268C1B21846904708BD00BFE6
:101F5000940B0020704708B500F0E8FC08BD0000B5
:101F600000B583B00649D1F8F027D1F8EC37D1F8A5
:101F7000E8170091034900F0D7FA03B05DF804FBBD
:101F800000F0FF1FE40B020810B50446FFF762FEE5
:101F90000249204600F0C8FA10BD00BFF80B020845
:101FA00008B502F05BF808BD431E013913F8010FB4
:101FB00011F8012F10B10AB19042F7D0801A18BF62
:101FC00001207047034600201A5C02B970470130B7
:101FD000FAE70346184613F8012B0AB18A42F9D1F1
:101FE000704700290346F0B520DA2D2003F8010BD5
:101FF000012049421D46C71A91FBF2FC02FB1C114D
:10200000303129702C46BCF1000105F101051E4656
:1020100005EB0700F0DC00232B70B4420BD93378BA
:10202000227806F8012B04F80139F6E704D13022B2
:10203000417002700120F0BD0020DBE730B503786D
:102040002D2B11D14FF0FF34013000210A25431E02
:1020500001E005FB012113F8012F303AD0B2092825
:10206000F7D904FB01F030BD0124EEE710B5134CA5
:1020700002780146A2F10A03DBB2162B00F101003F
:1020800017D9A2B10846FFF79DFF0C4C0138084450
:102090008142024609D2137801380A3BDBB2162B83
:1020A00003D824FA03F3DB07F2D400235370084665
:1020B00010BD24FA03F3DA07DAD4E3E7090040009D
:1020C000002310B5934200D110BD51F8234040F8D1
:1020D00023400133F6E7013A00D2704740F8041B71
:1020E000F9E7F8B50C46154601608280013B052BE7
:1020F00004D8DFE803F01B070B0F13170023022798
:102100001E4616E0002301271E4612E000231F464C
:102110001E460EE000231F4603260AE001231F4649
:10212000032606E000230227032602E001230227FC
:10213000002633B92B463A46314620461CF0FCF9BE
:10214000F8BD294620461CF031FAF3E770B50C1EA5
:10215000B4BF4FF0FF3301235C430133064608BF91
:102160002D234FF0640208BF06F8013B611104F013
:102170001F040546544330460A22FFF732FF2E2241
:102180006411092C3254D8BF302206EB0003D8BFAB
:102190005A7021464FF00A02CCBF581C981CFFF71A
:1021A00020FF284670BDF0B503782D2B17D14FF0D6
:1021B000FF36013000244FF00A0C02E018460CFBF9
:1021C0000454034613F8012BA2F13005EFB2092F96
:1021D000F4D9AAB98C40224406FB02F0F0BD0126D6
:1021E000E8E78B4003EB650393FBF5F30CFB05F588
:1021F0001A4410F8013F303BDFB2092FF1D9E9E76B
:102200000A250022AC46F4E743685A1C4260197064
:1022100070472DE9F04105460F46161E12DD0A46AD
:10222000002101E00131013210780028FAD1B142D9
:1022300006DA761A13F0020F13D14FF0200803E0EC
:102240000026F7E74FF0200813F001040CD1002E10
:1022500012DD2B681B684146284698470134013E31
:10226000F5E74FF03008EFE7002405E02B681B6826
:10227000284698470134013739780029F6D106E01D
:102280002B681B684146284698470134013E002EC2
:10229000F6DC2046BDE8F0812DE9F04184B0074628
:1022A000DDF828800C9859B11E460C4613B10A2A55
:1022B00013D0002600238DF80D300DF10D0518E028
:1022C00030238DF8003000238DF801300B9B4246FF
:1022D00069463846FFF79DFF32E0002901DB002602
:1022E000E8E74C420126E5E7303105F8011DB4FB73
:1022F000F2F44CB1B4FBF2F102FB11410929F3DD18
:10230000A0F13A031944EFE79EB1B8F1000F0BD0EA
:102310000B9B13F0020F07D03B681B682D2138463A
:10232000984708F1FF3804E02D2305F8013C013DF2
:1023300000260B9B424629463846FFF76AFF304489
:1023400004B0BDE8F08108B50846FFF7F7FD08BD09
:1023500070B584B0044615461E466846FFF7F6FE83
:1023600033462A4669462046FFF753FF04B070BD46
:1023700070B588B006460C460592002587E0A21C81
:10238000012391E000222178A1F1300C5FFA8CFC4E
:10239000BCF1090F06D802EB8202303901EB420290
:1023A0000134F0E773291AD0642923D0782930D07A
:1023B00058293DD075294AD0662957D0632965D15F
:1023C0000599081D059009688DF81C1000218DF8ED
:1023D0001D1007A93046FFF71CFF054456E005997C
:1023E000081D0590096801B935493046FFF711FF0E
:1023F00005444BE00599081D05900968612002908D
:102400000193009201230A223046FFF745FF05445D
:102410003CE00599081D0590096861200290019330
:102420000092002310223046FFF736FF05442DE0CE
:102430000599081D059009684120029001930092BA
:10244000002310223046FFF727FF05441EE00599C0
:10245000081D0590096861200290019300920023F5
:102460000A223046FFF718FF05440FE00599081DC2
:10247000059009683046FFF76BFF054406E01446F7
:1024800033681B682178304698470135013423783A
:102490009BB1252BF4D1621C637873B1252BEED050
:1024A0002D2B3FF46CAF002314462278302A7FF4A2
:1024B00069AF013443F00203F7E7284608B070BD66
:1024C000D40C02080FB400B583B004AA52F8041B60
:1024D000054B0193009201A8FFF74AFF03B05DF896
:1024E00004EB04B0704700BFE40C02080EB400B562
:1024F00084B005AA52F8041B094B0293094B0293BE
:102500000390019202A8FFF733FF039B5A1C03922A
:1025100000221A7004B05DF804EB03B0704700BFEE
:10252000640B0208F00C02080EB400B582B003AAD6
:1025300052F8041B0192FFF71BFF02B05DF804EB99
:1025400003B07047012800D070474FF6FF739942DF
:10255000FAD1104B104A1360991C104A1160191DD2
:102560000F4A1160991D0F4A116003F108010E4ACC
:10257000116003F10A010D4A116003F10C010C4ACC
:10258000116003F10E010B4A116010330A4A136007
:10259000DAE700BF100C0020EC0B0020000C00203C
:1025A000F40B0020F80B0020FC0B0020F00B0020A7
:1025B000040C00200C0C0020080C002038B52A4C1C
:1025C00020461BF0E6FB20461BF0E8FB20461BF0F4
:1025D00005FC20461BF0E7FB012120461BF0C4FB55
:1025E00020461BF065FB002300E001331F4A9342A5
:1025F000FBDD1D4D28461BF07FFB28461BF08FFBA3
:102600001B4A092128461BF0EEFB28461BF037FC2D
:10261000184C194A012120461BF0CAFE174A012115
:1026200020461BF0CEFE4FF48072012120461BF0A5
:102630006FFE4FF48062012120461BF05CFE6C228D
:10264000012120461BF0C6FE012120461BF06DFE35
:10265000012120461BF072FE012120461BF096FE50
:1026600028461BF02DFB38BD002401407F380100B7
:10267000E00B0020000002404C240140100C002020
:10268000884205DD914209DC90420ADD1046704720
:10269000904206DC914203DD1046704708467047C1
:1026A0000846704730B583B0046800250BE0A28C63
:1026B000618A2088FFF7E4FF02AB03EB450323F8B0
:1026C000080C01353634032DF1DDBDF80000BDF8EE
:1026D00002301844BDF804301844BDF806301844E0
:1026E000C0F38F0003B030BD08B50F4B98420FD038
:1026F00003F58063984211D0A3F50063984203D09C
:102700001BF0E6FA102008BD0729F9DCC8B2FAE789
:102710000129F5DCC9B20831C8B2F4E70529EFDCBC
:10272000C9B20A31C8B2EEE7000C014070B50446E8
:102730000D461646012393409BB2002211462846BF
:102740001BF0FAFE2468054BE41A64103146284653
:10275000FFF7CAFFA4B2024B185570BD100C002041
:10276000E00B002008B54FF6FF710120FFF7EAFEED
:1027700008BD000008B51BF097FD024B034498020A
:1027800008BD00BFFFFF41002DE9F043ADF2044D4D
:10279000FFF7F0FF0746024600234FF0FF3503E046
:1027A00052F8041B0D400133FF2BF9DD1BF060FDD7
:1027B0004FF480724FF0FF316846FFF78CFC002425
:1027C00000E00134352C1AD8E6B23046FFF772FA31
:1027D0000028F6D13046FFF735FA80463046FFF73D
:1027E00063FA0DEBC40989F80300B8F818302DF826
:1027F00034303046FFF7BCF9C9F80400E1E7FE21A8
:1028000068461BF043FDFE901BF070FEB5F1FF3FE4
:1028100001D100240AE038461BF024FEF9E75DF8F8
:10282000241007EB84001BF07BFE0134FF2CF6D94B
:102830001BF068FEFE980DF2044DBDE8F083F8B57C
:10284000FFF798FF06461BF013FDFE2130461BF0F4
:102850001DFDD6F8F83383421AD1002500E001357A
:102860007E2D18D836F83500FFF7DCF904463728F6
:10287000F5D0FFF71FFA0028F1D106EBC5077968FC
:102880002046FFF7A5F9F9782046FFF7F7F9E6E7C4
:102890004FF0FF3000E00020F8BD0000014B186051
:1028A000704700BFF40C00200D4B1B5CB3B90D4BFF
:1028B000196899B110B40C4B18700C4C23680C4A71
:1028C00002F8330002EBC3025160054A01211154A2
:1028D0000B4403F00303236010BC7047704700BF34
:1028E000EC0C0020F40C0020F80C0020E80C002078
:1028F000C0060020014B1878704700BFF80C00207C
:1029000008B5074B03EBC10292F804C053F831300D
:10291000044A52F82C2001460348FFF7D3FD08BDB6
:10292000D00D0208080E0208F40C020810B50B4B7B
:102930005B6873B10024032C0ED8084B03EBC4036F
:10294000586848B1054B13F83410FFF7D9FF01342C
:10295000F1E70348FFF7B6FD10BD00BFC006002039
:10296000040D020810B58AB00F4B01EB410203EBD6
:10297000820453F82220646801EB410103EB8101DA
:102980008B68D0F8580200210891079106930594AE
:10299000049203910291019100910B4601221BF0D8
:1029A0007FFA0AB010BD00BF1C0E0208F0B583B05C
:1029B00004460D4616461F460121D0F858021BF06A
:1029C00084FB019600970023B5F5006F34BF002209
:1029D00001222946D4F858021BF07CFB002805DBB5
:1029E000D4F85432002B17DC03B0F0BDD4F85432C5
:1029F000132BF5DC03F1110204EB02125560976012
:102A0000316804EB0312C2F81C117168C2F820117E
:102A10000133C4F85432E3E70121D4F858021BF023
:102A200050FBE1E7012801DD00207047014B53F81E
:102A300020007047FC0C002030B58BB004460D46DA
:102A40000AE09DF8213006AA0999204600F0A2FA72
:102A50001BF0EEFFC4F8F8000023059306AB0493C7
:102A60000DF12103039308AB02930DF122030193AF
:102A70000DF12303009309AB0122E9B2D4F8580207
:102A80001BF09FFB0028DCD10BB030BD30B583B00C
:102A9000044600F58A7504E0D4F85432013BC4F8CA
:102AA0005432D4F85432002B17DD03F18053013B2C
:102AB0001A0105EB0313A95803F1080201921B79CF
:102AC00000930023B1F5006F34BF00220122D4F837
:102AD00058021BF0FFFA0028DEDAD4F854320BB1AA
:102AE00003B030BD0121D4F858021BF0EEFAF7E72D
:102AF000F0B585B00E4615461C461068B3F800C008
:102B00005A889B88E7885B019BB2520192B24FEAD8
:102B10004C1C1FFA8CF14FF0010CCDF808C000EAF4
:102B20000C0CCDF804C07F01BFB200971BF0ACFACB
:102B3000002333602A6801322A60E380A380638027
:102B4000238005B0F0BDF0B585B00F4615461C4694
:102B50001068B3F800C05A889B88E6885B019BB276
:102B6000520192B24FEA4C1C1FFA8CF14FF0010C4B
:102B7000CDF808C000EA0C0CCDF804C07601B6B25E
:102B800000961BF071FA00233B602A6801322A602C
:102B9000A380238040F2FF73E380638005B0F0BD23
:102BA00070B582B00E4615461C4610681968C900FB
:102BB0005A68D20001230093034042F0040241F01E
:102BC00004011BF071FA002333602A6801322A6085
:102BD0006360236002B070BD30B58BB00546002342
:102BE00008930993454906AA03C982E803000493A0
:102BF0000593039302930193D5F85822404B9A42D0
:102C00000AD0A3F58063D3F8003AC3F305230093F9
:102C10000024C2F81C4220E00023F8E704F11E0261
:102C200005EB8202516859B30298421C02920DF1E1
:102C3000280C0CEB400020F8103C531C02930CEBCA
:102C4000420222F8101C039B042B22D0029B022B71
:102C500026D0019B022B2AD00134D5F8F430A342B0
:102C60002CDD05EB84035B68B3F5006FD6D3019AC6
:102C70000AA901EB820141F8183C01320192E2E716
:102C8000039A0AA901EB420121F8083C01320392A0
:102C9000D9E708AB6A4603A92846FFF729FFD5E71D
:102CA00006AB6A4602A92846FFF74DFFD1E704AB01
:102CB0006A4601A92846FFF773FFCDE7039B002B67
:102CC00007DC029B002B0BDC019B002B0FDC0BB005
:102CD00030BD08AB6A4603A92846FFF709FFF0E7B5
:102CE00006AB6A4601A92846FFF72DFFECE704ABC7
:102CF0006A4601A92846FFF753FFE8E7140E0208C9
:102D000000640040F8B504460D4616461F4600F024
:102D1000E3F8534B23600023C4F85432C4F85852EC
:102D2000504B9D421AD003F580639D4258D0D4F891
:102D300058021BF0A9F831462046FFF713FE204643
:102D4000FFF74AFF0221D4F858021BF0BAF910210C
:102D5000D4F858021BF0B5F92046F8BD5FB3424DD8
:102D60004FF480730222002128461BF0E5FB4FF44C
:102D7000807128461BF01AFC4FF4007302220321D5
:102D800028461BF0D9FB14201CF0B8F9F0211420C0
:102D90001CF0C2F915201CF0B1F9F02115201CF02F
:102DA000BBF913201CF0AAF9F02113201CF0B4F990
:102DB0002E4B1C60BBE72E4D4FF400630222002116
:102DC00028461BF0B9FB4FF4006128461BF0EEFBD0
:102DD0004FF480530222032128461BF0ADFBD2E7BB
:102DE00047B3214D20230222002128461BF0A4FBDB
:102DF000202128461BF0DAFB40230222032128462B
:102E00001BF09AFB40201CF079F9F02140201CF0C7
:102E100083F941201CF072F9F02141201CF07CF96B
:102E20003F201CF06BF9F0213F201CF075F90F4B8F
:102E30005C607CE70C4D4FF4805302220021284651
:102E40001BF07AFB4FF4805128461BF0AFFB4FF488
:102E500000530222032128461BF06EFBD2E700BF7D
:102E6000600E020800640040000C0140FC0C0020D1
:102E70000008014008B50020FFF7D4FD0021FFF74E
:102E8000DBFD08BD08B50020FFF7CCFD0121FFF7F1
:102E9000D3FD08BD08B50020FFF7C4FDFFF7F6FD20
:102EA00008BD08B50120FFF7BDFD0021FFF7C4FDF7
:102EB00008BD08B50120FFF7B5FD0121FFF7BCFDF6
:102EC00008BD08B50120FFF7ADFDFFF7DFFD08BD28
:102ED0000020704770470000084B03600023C0F8D3
:102EE000F430C0F8FC3005E003F14002044940F83A
:102EF00022100133042BF7DD704700BF740E020867
:102F0000E4060020D0F8FC30042B01DD00207047DF
:102F100003F1400240F822100133C0F8FC300120D8
:102F2000704738B5D0F8F4501D2D1BDC002300E0AD
:102F300001339D4206DD00EB830464688C42F7D1C7
:102F4000002010E000EB8503596005F11E0300EB43
:102F500083035A600135C0F8F45003689B689847B2
:102F6000012000E0002038BD38B505460024C0F837
:102F7000F44003689B68984707E004F1400355F864
:102F8000230003685B6898470134D5F8FC30A342FE
:102F9000F3DC38BD2DE9F8430546884617461E4642
:102FA000002400E00134D5F8FC00A0420CDD04F15F
:102FB000400355F823000368D3F8009033463A469F
:102FC0004146C8470028EDD0BDE8F88370B50546F6
:102FD00000F13006344605E0002234F8041B68682E
:102FE000FFF79FFFA31B242B02DCA378322BF3D126
:102FF00070BD00002DE9F04182B0054600F10807E0
:103000003E46F31B242B45DCB378322B42D0002301
:1030100000930193B37803EB4304A40058342C4489
:1030200009E08340009A13430093647A04EB44045C
:10303000A40058342C44637AFF2B22D0174B1B7802
:1030400043BB2079FEF7A2FD014620681CF0EAFF91
:10305000804694F906001CF091FF41461CF0DAFE10
:103060001DF0BCF994F9082001239340013B034073
:10307000E0791F28D5D920388340019A1343019362
:10308000D3E7686803685C6808236A4636F8041B5F
:10309000A047B6E702B0BDE8F08100BF040D0020F4
:1030A00010B501B302F10C0E00EB8E0E0A2A41D8C6
:1030B0009EF8021032293FD001EB410C4FEA8C0CF4
:1030C0000CF1580C844400249CF80910FF2935D0D9
:1030D00073B1013BDBB201EB410189005831644619
:1030E00000EB010CF0E702F1020E00EB8E0EDDE7C3
:1030F00014B1617201201EE0322902D08EF8021054
:10310000F8E79918092907DC0EEB83018978322941
:1031100002D00133DBB2F4E7013BDBB20EEB8302FA
:1031200091788EF802103EF82330AEF8003032234A
:103130009370DFE7002010BD0020FCE70020FAE7D5
:103140002DE9F04100F1080600231A461F461D46EE
:1031500057BB34460022A4EB060CBCF1240F2BDC39
:1031600094F802C0BCF1320F26D00CEB4C0C4FEAA5
:103170008C0C0CF1580C00EB0C0E002309E0013311
:10318000DBB20CEB4C0C4FEA8C0C0CF1580C00EB46
:103190000C0E9EF809C0BCF1FF0F09D0BEF80480E8
:1031A0001FFA81FEF045EAD15FB10020BDE8F08151
:1031B0000132D2B20434CEE700F130062F460125A9
:1031C000C6E72946FFF76CFFF0E72DE9F041DDF88F
:1031D0002480002488F8004000F10807002C3FD12B
:1031E0003E46F41B242C33DCB478322C30D004EB74
:1031F000440C4FEA8C0C0CF1580C00EB0C0E07E061
:103200000CEB4C0C4FEA8C0C0CF1580C00EB0C0E38
:103210009EF809C0BCF1FF0F18D0BEF804508CB264
:10322000A542EDD1318811609EF807201A709EF9F1
:103230000820069B1A70DEF80020079B1A609EF992
:103240000620089B1A700120BDE8F0810436C8E70B
:1032500098F80040012588F8005000F13007BDE7DC
:103260000020F1E78446D9B102F10C0100EB8101A5
:103270000A2A1DD88A78322A1CD002EB4202920018
:1032800058320CEB0200427AFF2A15D063B1013BA1
:10329000DBB202EB4202920058320CEB0200F2E782
:1032A000911C00EB8101E3E70A88009B1A607047DC
:1032B0000020704700207047002070472DE9F04340
:1032C00085B00646884600F1080900273B4626E0FF
:1032D000029794F9063001932368009394F908301B
:1032E000E27929882079C047647A04EB4404A40079
:1032F00058343444637AFF2BEAD10435A5EB090333
:10330000242B08DCAB78322B05D003EB4304A4005C
:1033100058343444EEE706F130093B4601270BB937
:103320004D46EBE705B0BDE8F0830023092B07DC31
:1033300001EB83024FF0320C82F802C00133F5E753
:10334000002307E003EB430200EB8202FF2182F837
:1033500061100133322BF5DD704710B5044600F1E2
:103360000801FFF7E2FF04F130012046FFF7DDFF1F
:103370006068FFF7F9FD10BD2DE9F041884615465C
:103380001F46002426460AE028681AF079FF064600
:1033900055F8041B08EB84001BF0C2F80134BC4252
:1033A000F2DB3046BDE8F081084600E00430431A05
:1033B000242B06DC8378322B05D003889342F5D189
:1033C00002E0002070470020704700002DE9F04126
:1033D0004F4B1B781BB100242046BDE8F081054609
:1033E000164603F0FF040A4600F13001FFF7DCFF48
:1033F0000028F1D0837803EB4304A40058342C4414
:103400003FE01F2B53D83768C7F307213A0642EA3B
:103410000142C7F3074142EA012242EA1762C3F1BF
:103420001F03DBB222FA03F318401CF0A3FD07468A
:1034300094F906001CF0A2FD39461CF0EBFC014695
:1034400020681CF0EFFD07462079FEF733FC20B121
:103450002079FEF72FFC012853D1B4F804804FF0F7
:10346000844138461CF0DEFD1CF0B8FF01465FFACF
:1034700088F0FEF75DFB647A04EB4404A400583442
:103480002C44637AFF2B41D0E37994F9082082EA37
:10349000E271A1EBE271C9B2012088400138002A33
:1034A000AFDB1F2B1ED97268203BDBB2BAE71A4490
:1034B0001F2A03DD7768203BDBB2A5E7A3EB010CF5
:1034C0005FFA8CFC0CF1010C5FFA8CFC326822FA7A
:1034D0000CF27768CCF1200C07FA0CF717434B1E5F
:1034E000DBB291E71A441F2A01DC32689AE732689E
:1034F000DA407168C3F1200301FA03F31A43002391
:1035000090E739462079FEF769FBB4E7012463E7C9
:10351000040D00202DE9F8439DF820709DF92480CA
:10352000B3F5006F63D204460D46164699463F2F09
:1035300060D808F12003DBB2402B5ED84A46FFF783
:1035400033FF844608B1002211E00021092907DC7D
:1035500005EB81039A78322A01D00131F6E79C46C7
:10356000BCF1000F4DD0ACF80090ECE70132312AED
:1035700007DC02EB420304EB830393F86130FF2B7B
:10358000F4D1322A40D09CF8023000210AE003EB4B
:10359000430189005831214403EB430304EB8303C7
:1035A00093F86130322BF2D102EB420004EB80043D
:1035B000A4F85C600A9BA3659DF92C3084F85E300A
:1035C00084F85F7084F86080322384F8613059B1E8
:1035D0004A722B4600205A1B242A10DC9A78322A81
:1035E0000DD001300433F6E78CF80220F1E74FF0FC
:1035F000FF3004E06FF0010001E06FF00200BDE871
:10360000F8836FF00300FAE76FF00400F7E710B5F6
:1036100084B09DF920400394079C02949DF91840C2
:103620000194009313460A4600F10801FFF772FF68
:1036300004B010BD70B584B0044615469DF928202D
:103640000392099A02929DF92020019200932B4641
:103650000A4600F13001FFF75DFF064600222946C9
:103660006068FFF75EFC304604B070BD08B51AF024
:103670001BFE024B0344980208BD00BFFEFF410041
:103680002DE9F04F85B00646FFF7F0FF8246D0F8EF
:10369000E8431AF0EDFDFA2150461AF0F7FD844296
:1036A00003D0002005B0BDE8F08F06F108095746A9
:1036B00021E02088FEF7B6FA0546B7F800B0B4F965
:1036C0000200002303931CF059FC029094F905308A
:1036D0000193237900935B462A4649463046FFF71B
:1036E00019FF0634A4EB08032A2B03DC94F90530F8
:1036F000002BDEDC3237A7EB0A03B3F5E17F08DCF1
:103700003A884FF6FF739A4203D007F10208444605
:10371000E8E70AF5FA7A06F13009574625E02088ED
:10372000FEF780FA0546B7F800B0B4F902001CF0C5
:1037300025FC002303934FF074511CF073FC02909E
:1037400094F905300193237900935B462A46494654
:103750003046FFF7DFFE0634A4EB08032A2B03DC18
:1037600094F90530002BDADC3237A7EB0A03B3F506
:10377000E17F08DC3A884FF6FF739A4205D007F1E3
:1037800002084446E8E701208CE701208AE7F8B503
:1037900005460F460E460EE02079FEF753FA038BDE
:1037A000A380647A04EB4404A40058342C44637A64
:1037B000FF2BF1D10436F31B242B08DCB378322B1A
:1037C00005D003EB4304A40058342C44EFE7F8BDC4
:1037D000F8B505460F460E460DE0A088FEF722FA22
:1037E000A080647A04EB4404A40058342C44637A27
:1037F000FF2BF2D10436F31B242B08DCB378322BD9
:1038000005D003EB4304A40058342C44EFE7F8BD83
:10381000F0B583B00546FFF729FF064602462A4B5E
:103820000121197000234FF0FF3403E052F8041B0C
:103830000C400133FF2BF9DD1AF01AFD1AF056FE89
:1038400002201AF049FEB4F1FF3F38D105F1080714
:1038500039462846FFF79BFF05F1300421462846EC
:10386000FFF795FF0A233A4631462846FFF784FDC5
:103870000A23224606F128012846FFF77DFD019024
:10388000962305F1580206F150012846FFF774FD12
:103890000190012301AA06F52D712846FFF76CFD62
:1038A0001AF030FE39462846FFF792FF2146284697
:1038B000FFF78EFF044B00221A7003B0F0BD3046B4
:1038C0001AF0D0FDC2E700BF040D0020F8B5054690
:1038D000FFF7CCFE0446D0F8B4621AF0C9FCAA2166
:1038E00020461AF0D3FC864203D02846FFF7C8FED4
:1038F000F8BD05F108070A2221463846FEF7E0FB2D
:1039000005F130060A2204F128013046FEF7D8FB03
:10391000962204F1500105F15800FEF7D1FB39461B
:103920002846FFF755FF31462846FFF751FF012093
:10393000DEE7000010B5044608460D4B23600D4B32
:10394000236061602146FFF7DDFA04F1080120469B
:10395000FFF7EBFC04F130012046FFF7E6FC2046C0
:10396000FFF7B4FF2046FFF731FB204610BD00BF34
:10397000980E0208A80E0208836DC26D9342FBD018
:103980005A1C826503F03F03034419764FF0FF335E
:1039900043617047A0F10400FFF7EEBF10B5044685
:1039A000017C002201F5C0618068FFF7BAFA617CF2
:1039B0003F2900D910BD002201F5B061A068FFF7D2
:1039C000B0FAF7E710B5044608460E4B23600E4BDD
:1039D00063600E4B03F1080121601C336360A0603B
:1039E000E26001232374FF2262744FF0FF326261B0
:1039F00084F87C302146FFF785FA2046FFF7CEFF9A
:103A0000204610BD980E0208640B0208B00E020892
:103A100008B501748068FFF7A7FA08BD10B50C4619
:103A2000B1F80130B3F5A04F11D045F20102934235
:103A300036D045F20202934244D080232370002303
:103A4000237163710223A3710623E37110BD0A7809
:103A5000402AEAD143230B70CB78032B16D8DFE83A
:103A600003F002070C11354BD3F8E8374B60EDE754
:103A7000324BD3F8EC374B60E8E7304BD3F8F037F4
:103A80004B60E3E7FEF720F96060DFE780230B700F
:103A900000230B714B7102238B710623CB71D5E789
:103AA0002378402BD2D14FF0FF3323716371002371
:103AB000A371E3714122227083654023C365E378DB
:103AC0004361C3E72378232BB7D160232370E378C6
:103AD000032B28D8DFE803F002171F2190F87C3071
:103AE00043B172B6C06808B1FFF792FEFEF74CFE14
:103AF00062B6ABE780232370002323716371A37147
:103B00000823E371A2E772B6FEF799FE62B636208B
:103B1000FDF744FC9AE71BF0E9FAFEF79BF8362024
:103B2000FDF73CFC92E7802323700023237163712F
:103B30000223A3710623E37188E700BF00F0FF1F93
:103B40002DE9F04184B006460C46B1F80120C2F3DD
:103B5000C017CD7825B1013D05EBD575C5F34705F7
:103B600003AB00932B4602F03F023946F068FFF7A3
:103B700079FB80462378402B0DD0232B3DD080232A
:103B800023700023237163710223A3710623E37161
:103B900004B0BDE8F08130B30079FEF753F8028B32
:103BA000E37823B9039B636043232370F0E713F0AA
:103BB000010F09D098F8073042EA034298F908301B
:103BC00042EA03626260EFE71349D8F800001CF094
:103BD00029FA1CF029FC20F07F4398F9062043EADB
:103BE00002636360E0E78023237000232371637125
:103BF0000223A3710623E371CAE70028BFD06368DC
:103C0000002BBCD1B4F801202B4602F03F0239460C
:103C1000F068FFF745FABBE700007A440B78232BE6
:103C200000D070472DE9F04184B006460C46154699
:103C3000CB78B3B94B68B3F5006F03D2436660230A
:103C400023700BE04FF0FF33436680232370002383
:103C5000237163710223A3710623E37104B0BDE8ED
:103C6000F081476EB7F1FF3F01D0012B29D096F9C3
:103C70007080B8F1000FE8D0022BE6D1606820F028
:103C80007F401CF077F91F491CF080FAB06663682A
:103C90001B1686F86E303DB302930190CDF800807C
:103CA00096F86F303A4696F86C10F068FFF7C2FC51
:103CB000002386F870304FF0FF3373660028BEDAB9
:103CC000C3E7486880B2FDF7ADFF80B2A6F86C008C
:103CD0006368C3F3054386F86F3063681B1686F884
:103CE00070303528ABD9B0E702930190CDF8008051
:103CF00096F86F303A4696F86C10F068FFF787FC3C
:103D0000D6E700BF00007A4438B504460D460B786C
:103D100003F06002602A1CD0B1F80130B3F5005FF7
:103D200044D003F47F42B2F5045F3FD0C16811B1C3
:103D3000B3F5405F6FD019B143F2010083426FD0F9
:103D400011B1B2F5445F71D029462046FFF766FEF7
:103D500018E003F010030B700122072A0DDCE36D5D
:103D6000A16D591A402908D0591CE16503F03F03A1
:103D700023441B7EAB540132EFE7E36DA16D5B1A68
:103D8000402B09D0A068217C03685C6808232A4680
:103D900001F5B061A04738BD2B7843F001032B70CB
:103DA000C2F1080243EA42022A70EBE7E87803F422
:103DB0007F42B2F5045F0CD0352822D82B78232B14
:103DC0000DD0402BDED1FDF7D3FE686043232B706E
:103DD000D8E71B029BB21844FDF724FFECE76968A3
:103DE000FDF7A6FE10B960232B70CBE780232B7064
:103DF00030232B7100236B710923AB710623EB7108
:103E0000C0E780232B7000232B716B710223AB71F1
:103E10000623EB71B6E700222946FFF7FFFEB1E764
:103E2000012229462046FFF7F9FEABE72946204646
:103E3000FFF786FEA6E708B5037C03F5C0638B4257
:103E400006D0437C03F5B0638B4206D0002008BD4A
:103E50001146FFF759FF0120F9E71378803B18BF9F
:103E6000012380F87430536883670120EFE7000076
:103E70002DE9F04184B00C4615461E469DF8307081
:103E8000FDF7E0FED0F804801449154B1868FEF7E2
:103E90004BFBE7B11349124B1868FEF745FB4FF097
:103EA00084410A981CF0BEF80D4B1F689DF92C3018
:103EB00003931CF093FA0290019600952346424624
:103EC00009493846FEF730FB04B0BDE8F0810749E8
:103ED000034B1868FEF728FBE1E700BFD00E02088D
:103EE000080D0020D80E0208E00E0208DC0E0208C1
:103EF00070B504460846FEF7B9F805462021FEF7DE
:103F000068F80378A3B1002300F8013B0521FEF710
:103F10004AF906462846FDF771FE372812D0314689
:103F2000FDF706FE48B90A492046FEF7FDFA03E010
:103F300008492046FEF7F8FA70BD07492046FEF70B
:103F4000F3FAF9E72A4605492046FEF7EDFAF3E7CA
:103F5000100F0208F40E02081C0F0208340F0208AA
:103F6000F8B507460846FEF781F805460BE0FDF771
:103F7000FFFD02460E493846FEF7D6FA254605F8FB
:103F8000016B2C2E12D12C212846FEF722F8044674
:103F90000678002303702846FDF730FE3728E6D167
:103FA0002A4604493846FEF7BFFAE7E7F8BD00BFE6
:103FB0004C0F0208540F02082DE9F041074608464D
:103FC000FEF754F880462021FEF703F803789BB1F2
:103FD00004460646002306F8013B4046FDF70EFE68
:103FE0000546372829D06378212B0AD07E2B08D0AC
:103FF0002F2B06D0002406E013493846FEF794FA2A
:104000000FE0A61C012431461048FDF7CDFF50B942
:1040100074B101212846FDF73FFE0D493846FEF7F1
:1040200083FABDE8F0810B493846FEF77DFAF8E7E0
:1040300001212846FDF728FEEFE7424606493846AB
:10404000FEF772FAEDE700BF700F0208800F02085A
:10405000980F0208880F0208340F02082DE9F04F6C
:104060008BB007460846FEF701F8037805934649EA
:104070003846FEF759FA00264FF0200822E0434A5E
:10408000039202930190CDF800A04B46424640496E
:104090003846FEF749FA2846FDF70CFE20B12846BF
:1040A000FDF708FE01285AD1E2682369616920689A
:1040B00002960190009137493846FEF735FA4FF0E5
:1040C0002C080136352E51D8F5B22846FDF7BAFD39
:1040D00004462846FDF7E8FD10F0010F02D0059BCD
:1040E000682BEED1D4F80490D4F808A0B4F818B036
:1040F0002846FDF73DFD0290CDF804B0CDF800A0B4
:104100004B46424624493846FEF70EFA0DF11F038E
:1041100003930DF11E03029309AB01930DF11D03EF
:10412000009307AB08AA29461C480068FFF74DF822
:104130000028B0D0DDF820809DF81C909DF91DA0CE
:104140004FF0844109981BF06DFF1CF047F99DF971
:104150001E309DF81F20002A91D0114A90E7114986
:104160003846FEF7E1F94FF02C08AAE70E4BD3F8DA
:10417000F0270E493846FEF7D7F90D493846FEF7C5
:10418000D3F90BB0BDE8F08FBC0F0208AC0F0208EA
:10419000F00F020854100208C00F02080C0D002096
:1041A000B40F02084010020800F0FF1FA41002081C
:1041B000E01002082DE9F0478AB004460023059379
:1041C00006930793089309930846FDF74FFF057878
:1041D000702D39D0632D45D02021FDF7FAFE0378EC
:1041E000002B48D0FDF742FF07462021FDF7F1FEE6
:1041F000064603780BB9642D44D1002306F8013B31
:104200003846FDF7FBFC81463046FDF72FFF06469A
:10421000B9F1370F3BD0642D3ED04FF000084FF07E
:104220007E5AB8F1040F62DC20213046FDF7D1FE42
:1042300007460378002B3AD1B8F1020F37DC554915
:104240002046FEF771F91AE0534B1B68002BFBD197
:10425000514D2C605149524B1868FFF72FF800233D
:104260002B600CE04E4B1868FFF777F84D4920465D
:10427000FEF75AF903E047492046FEF755F90AB020
:10428000BDE8F08743492046FEF74EF9F7E7464977
:104290002046FEF749F9F2E74946414B1868FEF718
:1042A0004FFF024641492046FEF73EF9E7E700236B
:1042B0003B703046FDF7C2FEB8F1030F0BD00AABDE
:1042C00003EB880343F8140C781CFDF7CFFE064679
:1042D00008F10108A5E710213046FDF764FF1BF047
:1042E0004DFE4FF05E511BF09DFE8246ECE7742DB3
:1042F00017D09DF924300293CDF804A09DF91C300D
:1043000000939DF81830059A494625480068FFF744
:1043100091F9431D042B32D8DFE803F0262C201A34
:1043200014009DF924300293CDF804A09DF91C30AF
:1043300000939DF81830059A494619480068FFF720
:1043400066F9E6E7059A1A492046FEF7EDF896E782
:10435000069A18492046FEF7E7F890E7079A1649AB
:104360002046FEF7E1F88AE7059A14492046FEF751
:10437000DBF884E712492046FEF7D6F87FE70128EC
:1043800006DD104B024610492046FEF7CDF876E7D1
:104390000E4BF7E70C110208080D0020713E0008D3
:1043A0000C0D0020E8100208201102083411020848
:1043B0004C110208601102087411020888110208E9
:1043C000B011020884070208CC110208A80F0208E5
:1043D00010B504460C4B1B788BB172B60B4B1868AA
:1043E000FFF716FA0A492046FEF79EF8FEF7CCF9C9
:1043F000024662B607492046FEF796F810BD064908
:10440000FEF792F8FAE700BFE80600200C0D002046
:10441000F8110208081202082412020810B5044616
:1044200072B6FEF70CFA62B638B93620FCF7B6FF62
:1044300004492046FEF778F810BD03492046FEF7F0
:1044400073F8F9E7681202087C12020808B51AF03E
:104450004DFE2DE9F843054688461746002607E03D
:1044600008F80600013623782C2B13D1BE4211D256
:104470002C212846FDF7ADFD044690F8009000235E
:1044800003702846FDF7BAFB254605F8019B37283F
:10449000E6D1E8E73046BDE8F88300002DE9F041B9
:1044A00084B006460846FDF7E1FD0446FDF7C6FD6B
:1044B000804620212046FDF78CFD03784BB10A226F
:1044C00001A90130FFF7C5FF07463046FDF70CFC98
:1044D00026E019493046FEF727F804B0BDE8F08120
:1044E000B8F1FF3FF9D1154D00240EE004F110039F
:1044F0006B4413F80C0CFDF73BFB03462A461049AE
:104500003046FEF711F801340E4DBC42EEDB0E4989
:104510003046FEF709F8B8F1FF3F01D008F1FF3847
:104520003046FDF7DBFB0028D7D1B8F1000FD7DD0F
:10453000024D0024E9E700BF94120208A80F020808
:10454000B4120208840D020864120208012800D087
:1045500070474FF6FF739942FAD1034B034A136039
:104560000833034A1360F3E7EA180020200D002007
:10457000280D00203A4B1A8843F60E339A4206D093
:10458000384B1A8843F60E339A4200D07047364BA8
:1045900093F83E30012BF9D1334B93F83F30FE2B8B
:1045A000F4D110B5304B93F8402093F8411001EB53
:1045B000022189B249F2010399424CD12A4A92F868
:1045C000421092F843301B0403EB016392F844104D
:1045D00003EB012392F845201344142B3ED12349C9
:1045E0004FF4007003F000FCCB2003F0F3FB00233A
:1045F0000F2B08D803F108011D4A895C1D4AD154CC
:104600000133DBB2F4E7184B93F8562093F8573098
:1046100003EB0223184A1380184B1B7813B9174B6E
:104620005C784CB116494FF4007003F0DDFB03F0E9
:1046300075F900F0A1FD11E012494FF4007003F08C
:10464000D3FB052CEED8A31D074AD25C0B4B1A55A1
:104650000134E4B2F5E70C48FDF734FF10BD00BFAC
:104660004C0D0020240D0020B8170020BC120208B9
:10467000F6170020100D0020640D00200C0F002004
:1046800028130208E81202084C13020810B50D4B5B
:104690001B780E330C4A13800C4C33232370637049
:1046A0000023A370E37023710123637103F08EFB79
:1046B000062102F0FBFE86232373DD23637303F0E0
:1046C000E9FD10BD3C0D0020AE190020B4180020FB
:1046D00008B5164B197801F12802154B1A70154AC6
:1046E000602393730023D373137453749374D1743E
:1046F000112111750A21517507E003F108010E4AD5
:10470000D05C0E4A88540133DBB20F2BF5D900235D
:1047100007E003F118010A4AD05C084A88540133C3
:10472000DBB20F2BF5D9FFF7B1FF08BD460D002016
:104730003C0D0020B418002094140208C218002078
:10474000A414020810B582B0124B19780831C9B20E
:10475000114B1970114A13881B0A114C2068037001
:10476000138843703B2383700E23C37000230371AF
:1047700041718371C371112300930A4B0A4A02F0FD
:1047800087FDC0F30F2223689A71D871FFF7A0FF4D
:1047900002B010BD4A0D0020460D0020EA060020A0
:1047A000200D0020A41402089414020808B50E4934
:1047B0004FF4007003F018FB0C4B0A221A700C4BDC
:1047C0001B6801221A70FE225A7090229A700022F1
:1047D000DA701A715A719A710221D9711021197205
:1047E0005A72FFF7AFFF08BD701302084A0D002090
:1047F000280D002030B583B0404D10222946404896
:104800001BF038FE3F4C0622A5F1100120461BF09C
:1048100031FE0021204602F055FE03F0D7FA0621B2
:1048200002F044FE384A86231373DD23537360235A
:1048300093730023D3731374537493742021D1742E
:104840003A211175FF21517507E003F116022F4936
:10485000C85C2D4988540133DBB20F2BF5D90023F6
:1048600007E003F126022649C85C27498854013332
:10487000DBB20F2BF5D9244C882384F83630002383
:1048800084F8373084F8383084F83930602284F87E
:104890003A2084F83B3084F83C3084F83D301B4D9E
:1048A0001022294604F13E001BF0E4FD022384F8A7
:1048B0004E30012384F84F3003F088FA0146062277
:1048C00004F150001BF0D6FD3A2300930C4B2A460E
:1048D000202104F1360002F0DBFCC0F30F2384F842
:1048E000383084F839000A4B56221A800949802052
:1048F00003F07AFA03F0CEFC03B030BDCE170020EF
:104900002C0D0020400D0020B41800209414020843
:10491000AE1900209013020838B5374B1B883C2B8A
:1049200000D838BD354C1022214635481BF0A2FD79
:1049300014F8024C112C15D0062C4ED03A2CF0D184
:104940003049802003F050FA2F4B93F83630872BF4
:10495000E7D12E4803F082FAFFF74CFF2C4803F012
:104960007DFADEE72B49802003F03EFA264B93F8D0
:10497000361093F8372002EB012227490A8093F87A
:10498000381093F8392002EB012224490A8093F869
:104990003A1093F83B2002EB012292B220490A80A0
:1049A00093F83C1093F83D3003EB01231D490B8035
:1049B000642A0DD8082ABFD9083A1B4B1A801B4815
:1049C00003F04CFAFFF7D6FD194803F047FAB3E7B6
:1049D0001849802003F008FAA3E71749802003F064
:1049E00003FA164D284603F039FA00F02DF928464F
:1049F00003F034FAA2E700BFB2180020CE1700205F
:104A0000540D00203C140208B81700204C14020872
:104A100070140208B4130208240D00204C0D00206D
:104A20004E0D0020500D0020480D0020D813020824
:104A3000F4130208C013020810140208201402081C
:104A400008B54FF6FF710120FFF780FD08BD00009B
:104A5000012800D070474FF6FF739942FAD1034BFB
:104A6000034A13601433034A1360F3E7EA18002083
:104A70006C0D0020840D002030B583B00246204923
:104A80000B881B0A1F4C206803700B8843701E4B59
:104A90001B88190A8170C3701C4B1B68190E0171A9
:104AA000190C4171190A8171C371194B1B68190ED8
:104AB0000172190C4172190A8172C372154B1B786D
:104AC000154909781944C9B2144D29709B081B0176
:104AD0000373427303238373E823C37300230374B4
:104AE00043748374C374062300930D4B0D4A02F084
:104AF000CFFBC0F30F2223681A74587403B030BD83
:104B0000EA0600206C0D0020640D0020EC06002059
:104B10007C0D0020810D0020880D0020700D0020EC
:104B2000100D00209414020808B50B4B1B780E33AF
:104B30000A4A138000210A4802F0C4FC03F046F937
:104B4000062102F0B3FC074B86221A73DD225A734A
:104B500003F0A0FB08BD00BF670D0020AE190020C8
:104B60000C0F0020B418002008B5164B197801F17D
:104B70002802154B1A70154A602393730023D373D0
:104B8000137453749374D174062111750A215175ED
:104B900007E003F108010E4AD05C0E4A8854013345
:104BA000DBB20F2BF5D9002307E003F118010A4A05
:104BB000D05C084A88540133DBB20F2BF5D9FFF7DC
:104BC000B3FF08BD700D0020670D0020B418002051
:104BD00094140208C2180020100D002008B50849DE
:104BE000202003F001F9074B14221A70064B002213
:104BF0001A701020FFF740FFFFF7B6FF08BD00BF97
:104C0000B4140208810D0020880D002008B5084961
:104C1000202003F0E9F8074B14221A70064B0022FB
:104C20001A701020FFF728FFFFF79EFF08BD00BF96
:104C3000CC140208810D0020880D0020014B18685B
:104C4000704700BF780D00202DE9F041514A1388CC
:104C500001331380504B997CDA7C02EB012292B233
:104C600093F842301B09B2EB830F03D39900521A19
:104C700092B200E00022484890F8361090F83730A1
:104C800003EB01239BB290F8384090F8391001EB08
:104C9000042189B241480088984203D1404B1B88C7
:104CA0008B4205D03F49202003F09EF8BDE8F081FB
:104CB0003D4BA5211980384B93F83A0093F83B10EF
:104CC000090401EB006193F83C0001EB002193F82B
:104CD0003D500D4493F83E0093F83F10090401EB5A
:104CE000006193F8400001EB002193F841400C442F
:104CF00093F84360122E17D02C4B1B78022B2CD12B
:104D0000531E9BB2C62B2DD916F0100FCED0214AC0
:104D1000138803F57A731380254B1C600023254A02
:104D20001360254A1370C1E7204B1B78012BBDD1BE
:104D30001F4B1C600135214B1D6040F22F1003F00A
:104D400049F81A4B02221A70FFF748FF00F01AFACE
:104D50001B49202003F048F8A8E71A49202003F057
:104D600043F8A3E7D2B2184F3A70DFF860801849D1
:104D700040461BF07FFB00F005FA397829440F4BC1
:104D80001960FFF743FF3B7842461249402003F089
:104D90003FF8B9E7B0190020B8170020640D0020D3
:104DA000EA060020E0140208680D0020800D0020B3
:104DB000EC060020740D0020660D00207C0D002004
:104DC000F414020808150208540E00208C0D00206F
:104DD000021800202815020810B51649202003F0FB
:104DE00003F840F22D1002F0F5FF134B1B68022070
:104DF000187504225A7505219975A021D9750124C9
:104E00001C760321597699760821D9761C775C7730
:104E10009A77D877094B20221A70094B00221A7012
:104E2000FFF72AFEFFF7A0FE064B1C70064BA522DB
:104E30001A8010BD381502086C0D0020810D00206D
:104E4000880D0020800D0020680D002008B5124B51
:104E50001B78022B00D008BD104B14221A70104B87
:104E60001B789A18C72A12DC0E4A12680E49402095
:104E700002F0CEFF1820FFF7FFFDFFF775FEFCF7ED
:104E8000BFFC0A4B18600A4B0A221A70E3E7094973
:104E9000202002F0A9FFDEE7800D0020810D002018
:104EA000880D0020840D002058150208740D002084
:104EB000660D00206C15020808B5234B1B684BB922
:104EC00000F058F8312827D800231F4A13601F4AE2
:104ED000137008BDFCF794FC1B4B1B68C01A6428B8
:104EE000EED91B4B1B7893B1FFF71EFE194A1368CE
:104EF00001331360FCF784FC134B1860144A1378D9
:104F0000013B13701449202002F06EFFD8E71349CB
:104F1000202002F069FFD3E700F02CF83228D8D126
:104F20000A4B1B78002BD4D10D4A138801339BB256
:104F300013804FF6E852934203D9094B4EF6602294
:104F40001A80FFF749FFC4E7740D0020800D002090
:104F5000660D0020780D0020AC150208E815020847
:104F6000EA06002008B54FF6FF710120FFF770FD3B
:104F700008BD0000014B1878704700BF620E00208A
:104F800000B587B01920FCF7F9FD10F0010F02D130
:104F900007B05DF804FBFCF733FC01460C4B1B88A3
:104FA00005930C4B1B8804930B4B1B8803930B4BF3
:104FB0001B8802930A4B1B8801930A4B1B880093A2
:104FC000094B1B88094A12880948FDF77BFADFE77D
:104FD000620E00205C0E00205A0E0020580E0020A9
:104FE0005E0E0020660E0020640E0020600E002081
:104FF0000416020808B5484B1B8813B1013B464A0A
:105000001380464B1B8813B1013B444A1380444B29
:105010001B8813B1013B424A1380424B1B8813B1DA
:10502000013B404A1380404B1B8813B1013B3E4A71
:1050300013803E4B1B8813B1013B3C4A13803C4B11
:105040001B8813B1013B3A4A1380394B1B88E3B1EB
:10505000384B64221A80304BA5221A80364B1A88AE
:10506000344B1B889A423ED1344B1A88344BA3FBF5
:105070000213DB0803EB4313D31A9BB2002B48D077
:105080002E4A13880133138008BD284B1B881BB19F
:10509000284B50221A80DEE7234B1B881BB1254B7F
:1050A00032221A80D7E71E4B1B881BB1214B1422DA
:1050B0001A80D0E71B4B1B881BB11E4B0F221A8096
:1050C000C9E7164B1B881BB11A4B0A221A80C2E78C
:1050D000114B1B881BB1174B05221A80BBE7154BE0
:1050E00000221A80B7E71920FCF748FD10F0010FE5
:1050F00004D1104B1A88104B1A80B5E7FCF780FBDF
:1051000001460C4B1B880C4A12880E48FDF7DAF951
:10511000EFE7FFF735FFB3E7600E0020640E0020D5
:10512000660E00205E0E0020580E00205A0E002051
:105130005C0E0020620E0020680E0020560E00203B
:10514000E1830F3E34160208034610B1044AA5213C
:105150001180012B03D9034B4FF4A5721A807047BD
:10516000640E0020660E0020024B4FF425721A8058
:10517000704700BF5E0E0020014BA5221A807047C9
:10518000580E0020014BA5221A8070475A0E0020AD
:1051900000EB4010014B1880704700BF5C0E0020F0
:1051A00010B5FFF7E7FE052806D0234B1B78012B2F
:1051B0001CD0022B35D010BD1F4B1B78002BF4D117
:1051C0001E494FF4807002F00FFE02F081FB03F0E5
:1051D00061F8062002F0FEFD194B00221A70194BEF
:1051E0000F221A70144B01221A70E4E7154B1B783A
:1051F0001BB1013B134A1370DDE7114C012322461A
:1052000011494FF4807002F003FE207830B90D4B45
:105210000F221A70084B02221A70CCE7FFF794FF96
:10522000F5E7084B1B781BB9034B00221A70C2E745
:10523000013B044A1370BEE76A0E00206C16020898
:10524000120F00206B0E00209016020810B50C46BD
:105250001AF094FE04E008491AF0E4FE013C64B23E
:10526000002CF8DC04E004491AF090FF013464B229
:10527000002CF8DB10BD00BF0000204100B583B05A
:1052800002AB03E903009DF90010BDF90400FFF72C
:10529000DDFF03B05DF804FB704770477047000006
:1052A000074B1A78074B33F812302BB1064A128895
:1052B000934203D3002070470020704701207047BD
:1052C000840E0020302302086E0E002008B5054A27
:1052D000054B5360054B1B78083B13600A20FFF712
:1052E00057FF08BDB4EA0020940D0020540E0020A2
:1052F00010B50C46154B196801220A7019684FF059
:10530000FE0C81F801C019684FF0800C81F802C0D2
:105310001968CA7022161B681A7122145A71221257
:105320009A71DC71BF2C0BD82246014603F10800AC
:105330001BF0A0F80834064B1C70FFF787FD10BD6A
:105340000449082002F050FDF9E700BF840D002059
:10535000880D0020B016020810B5054C002323600C
:1053600018F08AFC2178034B5868FFF7C1FF10BD85
:10537000D8EA0020C8EA002010B518F059FC0D4CFE
:1053800004F5C04292F8C43343F0020382F8C433F8
:10539000094818F043F904F540540123C4F8B8351E
:1053A000002384F8C93501F00DFC84F8CA05FFF725
:1053B000D3FF10BDD885002090BB002008B5014662
:1053C000044B1870044B00221A801A20FCF7F8FBDB
:1053D00008BD00BF840E00206E0E002008B5FFF748
:1053E000C9FD4F2810D8154B1B7803B908BD002004
:1053F000FFF7E4FF01F002FC01F0FAFB0023104A82
:105400001370104A1380F1E7FFF7B4FD50280DD058
:105410000A4B1A780C4B53F822309847FFF740FF9D
:105420000028E3D01320FFF7C9FFDFE7034B1B7809
:10543000002BEDD10220FFF7C1FFE9E7840E002029
:105440006C0E0020780E0020B022020808B50A4B2E
:105450001B781BB1013B084A137008BD4FF4AF60C5
:1054600002F0B8FC0549082002F0BEFC01F0B2FCD5
:105470001620FFF7A3FFF0E76D0E0020DC160208F0
:1054800008B50C4B1B781BB1013B0A4A137008BDD1
:105490000949082002F0A8FC40F2145002F09AFCDE
:1054A00001F0A6FB034B21221A701520FFF786FF9F
:1054B000EDE700BF6D0E00200C17020808B5084983
:1054C000082002F091FC40F24C4002F083FC01F015
:1054D00095FB044B42221A701420FFF76FFF08BDA2
:1054E000381702086D0E002008B50A49082002F09E
:1054F0007BFC0520FDF7D8F94FF4966002F06AFCBA
:1055000001F07CFB044B42221A701420FFF756FF77
:1055100008BD00BF381702086D0E002008B50F4BFC
:105520001B78082B00D808BD0D49082002F05CFC50
:10553000FFF7CCFE18F068FB084B00221A70094BED
:1055400093F8C23313F0400FEDD00749082002F062
:105550004BFC1620FFF732FFE5E700BF540E00209A
:1055600060170208008200208017020808B5364B39
:105570001B78082B00D808BD3449082002F034FC01
:10558000FFF7A4FE18F040FB2F4B00221A70304B9F
:1055900093F8C43313F0040FEDD02E4B93E80300BF
:1055A000FFF76CFE01462C4B18601E20FCF716FB23
:1055B0001920FCF7E3FA10F0080F13D12749264B06
:1055C00018681AF0CDFEB0B9254B1B78092B32D8DC
:1055D0002449082002F008FCFFF7CEFE1020FFF758
:1055E000EDFEC8E71C4B18681AF0F8FE01461E488D
:1055F000FCF768FFE2E71D49082002F0F5FB18F010
:1056000017FB1B4A92F8C23343F0200382F8C233DF
:10561000184818F0F5F84FF4617002F0DBFBFFF763
:105620009BFE1549082002F0DFFB01F0D3FB11209F
:10563000FFF7C4FE9FE71149082002F0D5FB0620C2
:10564000FDF732F997E700BF540E002098170208C3
:1056500000820020C8570020740E00200000204265
:105660007C0E002030180208BC170208D817020868
:10567000D8E5002090BB0020181802088018020806
:105680000E4B1B781BB1013B0C4A1370704710B5D1
:105690000B49082002F0A8FB01F0AAFA0024094BEC
:1056A0001C7040F2523002F095FB074B1C70FFF764
:1056B00063FE1020FFF782FE10BD00BF6D0E0020BC
:1056C000E81802086C0E00207C0E002038B5054654
:1056D00018F0AEFA1E4C04F5C04292F8C13343F004
:1056E000800382F8C1331B4818F065F804F5405474
:1056F000C4F8B85594F8B03643F0010384F8B036D6
:105700000123C4F89036002584F8A15601F05AFA16
:1057100084F8A206C4F8AC5694F8983643F0010316
:1057200084F89836C4F8945694F8A03643F00103F0
:1057300084F8A036C4F89C5694F8A83643F00103C8
:1057400084F8A836C4F8A456FFF706FE38BD00BF9B
:10575000D885002090BB002038B518F069FA364C87
:1057600004F5C04292F8C33343F0800382F8C33398
:10577000324818F0A1F804F540540123C4F8B835B4
:10578000002584F8C95501F01DFA84F8CA0584F88B
:105790001C56052384F81D3694F81E3643F0010389
:1057A00084F81E3601F0D7F9A4F8200684F8CC5509
:1057B000032384F8CD3594F8CE3543F0010384F803
:1057C000CE3501F0E5F9A4F8D005C4F8005694F8F8
:1057D000FC3543F0010384F8FC35C4F8F85594F81F
:1057E0000C3643F0010384F80C3684F80456022288
:1057F00084F8052694F8063643F0010384F806364B
:105800004FF49663A4F8083694F8183643F0010371
:1058100084F8183684F8105684F8112694F8123655
:1058200043F0010384F812364FF41673A4F81436CB
:10583000FFF792FD38BD00BFD885002090BB002047
:1058400038B5504B1B78082B00D838BDFFF73EFD0C
:1058500018F0DAF94B4B00221A704B4B93F8C43313
:1058600013F0010FF1D0494B1A70494B93F8BE3534
:10587000022B2CD0464B93F8BE35052B37D001F0C8
:10588000F9FA444B187001F0A3F930B9414B1B7879
:105890001BB93E4B1B78002B3FD001F099F9002833
:1058A00062D13C4B1B78002B67D03B49082002F0AB
:1058B0009BFA0024394B1C704FF4487002F08AFAAE
:1058C0002046FFF703FF0D20FFF778FDBDE73449C1
:1058D000082002F089FA40F2163002F07BFA2B4BD6
:1058E00001221A7004213220FCF76AF9C2E72D491F
:1058F000082002F079FA0024284B1C704FF44870FD
:1059000002F068FA2046FFF7E1FE0D20FFF756FD92
:1059100006213220FCF754F9B1E701F0EDF81C4CF8
:1059200004F5B96393E80300FFF7A8FC05461E4B96
:10593000186004F5BA6494E80300FFF79FFC1AF0BE
:1059400073FD84B229461E20FCF748F921461F202A
:10595000FCF736F940F2C62002F03CFAFFF7FCFEF5
:105960000E20FFF72BFD70E71049082002F03CFAEB
:1059700005213220FCF724F99BE70D49082002F0AD
:1059800033FA96E7540E0020008200207F0E00209C
:10599000005200207D0E0020B01902087E0E00206B
:1059A000201902085C190208740E002080190208F0
:1059B000F019020808B51A4B1B78082B00D808BD4F
:1059C000FFF784FC18F020F9154B00221A70154BD4
:1059D00093F8C23313F0010FF1D0134B1B786BB166
:1059E0001249082002F000FA4FF42F7002F0F2F989
:1059F000FFF7B2FE0E20FFF7E1FCE0E740F22A30AD
:105A000002F0E8F901F0FAF80949082002F0ECF98F
:105A1000084B0A221A700F20FFF7D0FCCFE700BF17
:105A2000540E0020008200207E0E0020341A02084E
:105A3000741A02086D0E0020104B1B781BB1013B3D
:105A40000E4A1370704710B501F012FA044608B9F7
:105A50002CB910BD0A49082002F0C6F9F8E7094937
:105A6000082002F0C1F90120FFF730FE064B0122A9
:105A70001A700D20FFF7A2FCEBE700BF6D0E0020AF
:105A8000C01A0208841B02087E0E002070B518F0B0
:105A9000CFF81A4C04F5C04292F8C33343F0200308
:105AA00082F8C333164817F02CFF04F54054012642
:105AB000C4F8B865002584F8C95501F083F884F866
:105AC000CA0584F8CC55052384F8CD3594F8CE3535
:105AD000334384F8CE3501F021F8A4F8D00584F8DA
:105AE000D455032384F8D53594F8D635334384F858
:105AF000D635A4F8D865FFF72FFC70BDD8850020F7
:105B000090BB002038B500F0F5FF354B1B7843B94A
:105B1000344B1B78082B08D8FFF7C2FB00285AD15A
:105B200038BD013B2E4A1370FAE7FFF7CFFB18F0A0
:105B30006BF82C4B00221A702B4B93F8C33313F0E5
:105B4000400FE9D02949082002F04EF9284B93E88C
:105B50000300FFF793FB0146264B18601E20FCF75D
:105B60003DF800F0D5FF84B200F0D8FF85B21920CF
:105B7000FCF704F810F0080F11D1641B1334262C25
:105B800003D81D4B1B88AB4211D31C49082002F0DF
:105B90002BF9FFF77BFF124B0F221A70BCE7164B55
:105BA0001B882A4621461648FCF78CFCE5E7154978
:105BB000082002F019F901F015F80124124B1C70AD
:105BC0004FF4167002F006F92046FFF77FFD0D2016
:105BD000FFF7F4FBA0E70320FCF766FEA0E700BF99
:105BE0006D0E0020540E002000820020E81A0208EA
:105BF000C8570020740E0020700E0020A01B020861
:105C0000081B0208481B02087E0E002010B518F081
:105C10000FF80F4C04F5C04292F8C33343F0080369
:105C200082F8C3330B4817F017FD04F540540123E5
:105C3000C4F8B835002384F8C93500F0C3FF84F8F0
:105C4000CA05FFF789FB1F20FFF7A2FA10BD00BFAE
:105C5000D885002090BB002038B5274B1B881D2B12
:105C600003D9264B1B78082B00D838BDFFF72EFB35
:105C700017F0CAFF214B00221A70214B93F8C3334F
:105C800013F0100FF1D01F4B93F8B85593F8C84597
:105C900011461E20FBF794FF04B95DB11A4B1B8817
:105CA0003C2B1CD91949082002F09EF81320FFF75D
:105CB00085FBDAE71649082002F096F81549082016
:105CC00002F092F840F23A2002F084F8FFF7DEFE8C
:105CD0001F20FFF75DFA0B20FFF770FBC5E70133CC
:105CE000094A13800C49082002F07EF8FFF78EFF66
:105CF0000A20FFF763FBB8E76E0E0020540E002069
:105D000000820020005200207A0E00201C1C020895
:105D1000CC1B0208041C0208441C020808B501F050
:105D20009DF818B9FFF7BCFA88B908BD0A490820E0
:105D300002F05AF84FF40C7002F04CF8FFF766FFCF
:105D4000064B01221A800A20FFF738FBEAE70420FD
:105D5000FCF7AAFDE9E700BF641C02087A0E0020E8
:105D600070B517F065FF474C04F5C04292F8C13397
:105D700043F0200382F8C133434817F0F0FD04F5E7
:105D80004054032684F8B8650025C4F8EC5500F0AB
:105D900019FF84F8FE050F20FBF7F0FEA4F80406B7
:105DA00084F8005694F8023643F0010384F8023672
:105DB00084F8016694F8103643F0010384F8103635
:105DC0000D20FBF7DBFE00EB80004000A4F80C0682
:105DD000022384F8083694F80A3643F0010384F865
:105DE0000A36072384F809360E20FBF7C7FEA4F80D
:105DF000180684F8145694F8163643F0010384F814
:105E00001636052384F8153694F8243643F001033A
:105E100084F8243642F21070A4F82006012184F898
:105E20001C1694F81E360B4384F81E36092284F89B
:105E30001D2694F830360B4384F83036A4F82C062F
:105E400084F8281694F82A360B4384F82A3684F806
:105E5000292694F832360B4384F83236642384F8CA
:105E6000313694F834360B4384F83436502384F8B2
:105E7000333694F838360B4384F83836FFF76CFA2B
:105E800070BD00BFD885002090BB00203B4B1B8815
:105E90001D2B03D93A4B1B78082B00D8704770B5DF
:105EA0003849082001F0A0FFFFF710FA17F0ACFE08
:105EB000334B00221A70344B93F8C13313F0400F68
:105EC0000ED0324B93F8B9355BB1314B1B883B2B6D
:105ED00047D93049082001F087FF1320FFF76EFAF9
:105EE00070BD2D49082001F07FFF274C04F5617338
:105EF00093E80300FFF7C2F9064604F55C7393E8E4
:105F00000300FFF7BBF9054604F5657494E8030048
:105F1000FFF7B4F91AF088FA204B18803146222096
:105F2000FBF75CFE29462120FBF758FE40F22620B5
:105F300001F050FF00F06CFE1949082001F054FFF9
:105F400000F042FF00F096FF38B11649082001F03A
:105F50004BFF0520FFF732FAC2E70920FFF72EFAC0
:105F6000BEE701330A4A13800F49082001F03CFFC5
:105F7000FFF7F6FE0820FFF721FAB1E76E0E0020CA
:105F8000540E0020A81C02080082002000520020AD
:105F9000820E00206C1D0208DC1C0208700E00201E
:105FA000241D02084C1D0208A41D020808B5244B3C
:105FB0001B881D2B03D9234B1B78082B00D808BD49
:105FC0002149082001F010FFFFF780F917F01CFEAF
:105FD0001C4B00221A701D4B93F8C13313F0100FA5
:105FE000EDD01B4B93F8B9355BB11A4B1B88772B5F
:105FF00018D91949082001F0F7FE1320FFF7DEF940
:10600000DDE71649082001F0EFFE4FF4077001F0BC
:10601000E1FEFFF7A5FE124B01221A800820FFF7D0
:10602000CDF9CCE701330B4A13800E49082001F06B
:10603000DBFEFFF791F90720FFF7C0F9BFE700BFCC
:106040006E0E0020540E0020E41D02080082002085
:1060500000520020800E0020641E0208141E020858
:10606000820E0020901E020808B5194B1B78082BE1
:1060700000D808BD1749082001F0B6FEFFF726F941
:1060800017F0C2FD124B00221A70134B93F8C13364
:1060900013F0010FEDD01149082001F0A5FE40F2E8
:1060A000122001F097FE17F0C3FD0D4A92F8C1339C
:1060B00043F0080382F8C1330A4817F0BAFAFFF731
:1060C0004BF9094B01221A800720FFF777F9D0E737
:1060D000540E0020D01E020800820020001F02087B
:1060E000D8E5002090BB0020800E00201E4B1B78BE
:1060F000082B00D8704710B51C49082001F074FE29
:10610000FFF7E4F817F080FD174B00221A70184BC8
:1061100093F8C03313F0100F00D110BD15490820BB
:1061200001F062FE17F084FD134C04F5C04292F8B2
:10613000C03343F0800382F8C033104817F0B6FA3A
:1061400004F54053012283F8B825A3F8BC25A3F831
:106150003C264FF4027001F03DFEFFF7FDF80620EB
:10616000FFF72CF9D9E700BF540E0020341F0208B6
:1061700000820020601F0208D885002090BB00200C
:1061800038B5214B1B78082B00D838BD1F49082093
:1061900001F02AFEFFF79AF817F036FD1A4B00229D
:1061A0001A701B4B93F8C03313F0040FEDD0194D48
:1061B000194C0822294620461AF05CF92B7A174A16
:1061C000137022461649082001F022FE4FF4FD709C
:1061D00001F000FE1349082001F006FE17F028FD2B
:1061E000114A92F8C03343F0080382F8C0330F48D5
:1061F00017F032FC4FF4FF7001F0ECFDFFF7ACF844
:106200000520FFF7DBF8C0E7540E0020881F0208C6
:106210000082002000220020DCEA0020E4EA0020C6
:10622000B01F0208E01F0208D8E5002090BB002044
:1062300038B5314B1B78082B04D8FFF731F800280C
:1062400056D138BD2D49082001F0CEFDFFF73EF8AC
:1062500017F0C6FC284B00221A70294B93F82438FB
:1062600013F0020FE9D02749082001F0BDFD2449B1
:106270008A784B7802F0010209782348FCF722F96A
:106280002249082001F0B0FD4FF4FA7001F0A2FDA0
:1062900017F0CEFC1E4D05F5C04292F8C03343F016
:1062A000020382F8C0331B4817F047F900242C7012
:1062B0006C70AC70EC702C716C71AC71EC7108236B
:1062C0002B81052C0AD801F081FD015D104B234480
:1062D00043F2B85299540134E4B2F2E70E4B06226D
:1062E000A3F8C025FFF738F80420FFF767F8A4E704
:1062F0000220FCF7D9FAA4E7540E0020002002087F
:10630000D0190020382002085020020884200208FA
:10631000D885002090BB0020D8B5002008B50B49D7
:10632000082001F061FD4FF4C87001F053FD2221F7
:106330000748FEF7DDFF00F0C7FD00213220FBF724
:106340003FFC0320FFF73AF808BD00BFD420020845
:106350000C23020808B5034A138801331380FFF7A2
:106360003DF808BD6E0E002010B504460720FBF76F
:106370000DFC0146204619F009FF18F0E5FE044621
:106380000820FBF703FC0146204619F0FFFE0649F2
:1063900019F040FD01464FF07E5019F0F7FE034919
:1063A00019F036FD10BD00BF0FCF5B3B3393884320
:1063B00038B52C48FCF776F919F0DCFD01462A487F
:1063C00019F0E4FE4FF07E5119F022FD01462748F6
:1063D00019F0DCFEFFF7C8FF054601462420FBF755
:1063E000FDFB2348FCF75EF919F0C4FD01461E4889
:1063F00019F0CCFE4FF07E5119F00AFD01461B4802
:1064000019F0C4FEFFF7B0FF044601462520FBF754
:10641000E5FB2146284619F0C1FF00B12C4615487E
:10642000FCF740F919F0A6FD01460F4819F0AEFE41
:106430004FF07E5119F0ECFC01460C4819F0A6FE15
:10644000FFF792FF054601462620FBF7C7FB2946CA
:10645000204619F0A3FF00B1254629462720FBF767
:10646000BDFB38BDF40B002000F07F4500401C460A
:10647000F80B0020FC0B00202DE9F0415E48FCF7F2
:1064800011F919F077FD044601462A20FBF7A6FB17
:106490000920FBF773FB002835D15849204619F035
:1064A000C1FD574919F072FE0646DFF85881534F77
:1064B000304619F047F904460D46384619F042F9BE
:1064C0000022514B18F0DEFF02460B4620462946BB
:1064D00019F020FC00284BD145A3D3E90023204626
:1064E000294619F0F9FB002853D13146384619F0F6
:1064F0004DFE4FF07E5119F08BFC0146404619F0DD
:1065000045FE044635E00920FBF738FB012817D08B
:106510003A49204619F086FD394919F037FE19F03D
:1065200011F90022394B19F065F90022384B19F0A6
:106530008BFA19F019FC0646DFF8D880364FB7E71A
:106540002E49204619F06EFD2D4919F01FFE19F055
:10655000F9F800222D4B19F04DF900222C4B19F0BF
:1065600073FA19F001FC0646DFF8B0802C4F9FE764
:106570002C4C21462B20FBF731FB2B49204619F0F0
:106580000DFF40B12949204619F0EAFE60BB002505
:1065900002E00024EDE700252549204619F0FEFE23
:1065A00028B12449204619F0DBFE00B1224D2349D1
:1065B000204619F0F3FE30B12149204619F0D0FEF3
:1065C00008B14FF084451F49204619F0E7FE28B175
:1065D0001D49204619F0C4FE00B11C4D29462C204F
:1065E000FBF7FCFABDE8F081194DD5E7AFF3008069
:1065F0009A9999999999A93FEC0B0020333353400C
:1066000000F07F4500007A440000E03F00805740E2
:10661000008047400000A5430000A0400EA6944320
:106620000000904000401C46000096440000E144F9
:106630000000084400004C440000A041000030432A
:10664000000084430000A0420000F04200007C42B1
:1066500000005041014B01221A707047850E002046
:10666000014B00221A707047850E0020014B1878EC
:10667000704700BF850E00200F4B18780130C0B264
:1066800018700E4B1B78012B0AD0022B0ED0042B56
:106690000ED0052B0ED010F0010004D00120704761
:1066A00010F0020000D170470220704704207047AC
:1066B000062070470120F6E7890E0020860E002094
:1066C00010B52320FBF762FA19F0AEFEC0B207281E
:1066D0001DD8334B1B78042B15D80133304A137067
:1066E000002421462D20FBF779FA0021204619F0DD
:1066F00055FE00284BD02B4B1B78042B44D801337C
:10670000284A137046E0FFF7ABFF0024E9E70928A9
:1067100004D8234B00221A70234CE2E7542812D8E5
:1067200019F028FC19F00EF81BA3D3E9002319F087
:1067300061F819F0F9FAC0B219F01CFC0446184BC4
:1067400000221A70CDE7602812D8403819F016FCE4
:1067500018F0F8FF0022154B19F04CF819F0E4FA84
:10676000C0B219F007FC04460D4B00221A70B8E7BE
:10677000612804D80A4B00221A700D4CB1E7084B6F
:1067800000221A700024ACE7FFF764FF02E0054B1B
:1067900000221A7010BD00BF333333333333E33F6D
:1067A000880E0020870E00200000C040000004403A
:1067B0000000A04210B5FFF783FF0E4B1B7803B912
:1067C00010BD1520FBF7DAF9C4B2022C08D0022C58
:1067D00003D0094B1B78022B09D0074B1C70EFE745
:1067E000054B1B78022BF2D000F012FAEFE700F015
:1067F00005FAF2E7850E0020860E002038B5024625
:106800000C46054D0021284618F024FB22460221A3
:10681000284618F01FFB38BD0004004070B50C4638
:10682000064600B981B10B4B9988186817F0BEFE77
:10683000094D32460421284618F00CFB2246062159
:10684000284618F007FB70BD024B9988186817F0AE
:10685000AFFEEDE7B00B00200004004008B5174B79
:106860001B78A3B1164B1B78FF2B02D00133144ABF
:106870001370134B1B78412B11D84FF480510846ED
:10688000FFF7CCFF0F49022001F0AEFA08BD00214E
:106890000846FFF7C3FF0A4B00221A70F6E70120F3
:1068A000FBF76CF90003084981FB0031C017C0EB0E
:1068B000611080B20146FFF7B1FFE7E7920E0020BA
:1068C000910E0020A02502081F85EB5170B506200F
:1068D000FBF754F906460520FBF750F90546234817
:1068E000FBF7E0FE0446AE420CDA854219DB864235
:1068F0002ADC1F4B1B68C31A092B27DD0A2B27DC58
:10690000002613E0AE4225DD85420ADC864223DB09
:10691000174B1B68C31A0A2B20DC092B20DD00262D
:1069200004E0FAF76DFF134B18600226FAF768FFD0
:10693000104B1D68451B0420FBF720F9012E11D0D8
:106940000B4B1C60304670BD0126EFE70326EDE7D8
:106950000426EBE70026E9E70126E7E70326E5E75B
:106960000426E3E78542EBD20326E9E70C0C00207E
:106970009C0E0020980E0020F8B50620FBF7FEF8CC
:1069800006460520FBF7FAF805460320FBF7F6F864
:1069900002034F4C84FB0230D217A2EB601202F5C7
:1069A00000670320FBF7EAF8030384FB0324DB17EB
:1069B000C3EB6413AE4220D1464B1B78012B47D06A
:1069C000444B1B78022B63D0434B1B885BB3013BCA
:1069D0009BB2414A138033BB00210846FFF70EFFEC
:1069E0003E4C21783120FBF7EBF822783C4B1A70B3
:1069F0003C49022001F0F8F915E003F50064FFF7C7
:106A000065FF0146364B1870324B1B78012B0BD0BB
:106A1000022B01D1022912D13120FBF7D1F800213C
:106A20000846FFF7EBFEF8BD0128F1D00321312025
:106A3000FBF7C6F8A1B2B8B2FFF7E0FEF3E7042116
:106A40003120FBF7BDF8B9B2A0B2FFF7D7FEEAE7F5
:106A50002549022001F0C8F903213120FBF7B0F8E5
:106A60004FF480510020FFF7C9FE0420FBF786F8A1
:106A70001E4B83FB00230344C017C0EB2310164BAF
:106A80001880164B01221A70124B00221A7097E7D9
:106A90001749022001F0A8F904213120FBF790F8F2
:106AA00000214FF48050FFF7A9FE0420FBF766F8A1
:106AB0000E4B83FB00230344C017C0EB2310064B8F
:106AC0001880064B02221A70024B00221A707BE7D4
:106AD0001F85EB518B0E0020960E00208A0E0020A1
:106AE000950E0020DC250208F416020889888888A3
:106AF000C425020870470000044B1B8842F20F7245
:106B0000934202D80133014A13807047A00E00203F
:106B100008B52020FBF732F800B208BD08B51620F2
:106B2000FBF72CF8952804DC1320FBF727F800B2BC
:106B300008BD1620FBF722F8FA28F5DC1720FBF732
:106B40001DF8EA28F0D11620FBF718F801461320AB
:106B5000FBF736F8E8E708B51620FBF70FF895289D
:106B600004DC1020FBF70AF800B208BD1620FBF782
:106B700005F8FA28F5DC1720FBF700F8EA28F0D131
:106B80001620FAF7FBFF01461020FBF719F8E8E79B
:106B900008B51620FAF7F2FF952804DC1120FAF761
:106BA000EDFF00B208BD1620FAF7E8FFFA28F5DC81
:106BB0001720FAF7E3FFEA28F0D10A211120FAF7AB
:106BC000FFFFEBE708B51220FAF7D8FFC0B208BD07
:106BD00008B51220FAF7D2FF5F28D4BF00200120A9
:106BE00008BD0000014B01221A707047920E002070
:106BF000014B00221A707047920E002008B5034B1B
:106C00009988186817F0D4FC08BD00BF980B0020C5
:106C100008B5034B9988186817F0C8FC08BD00BF79
:106C2000980B002010B5044610F0010F15D0144B3E
:106C30009988186817F0BAFC14F0020F13D0114BA2
:106C40009988186817F0B2FC14F0040F11D00E4B9D
:106C50009988186817F0AAFC10BD094B9988186824
:106C600017F0A6FCE8E7074B9988186817F0A0FC16
:106C7000EAE7054B9988186817F09AFCECE700BF23
:106C8000C80B0020D80B0020D00B002008B54C4AC0
:106C9000137801331370FFF7E9FC002862D1494BE8
:106CA0001B88632B63D9643B9BB2312B63D9454B63
:106CB0001B88973B9BB2B3F5BE7F07D2404B1B7836
:106CC00013F0040F5BD00220FFF7ACFF3D4B1B8895
:106CD000A3F507739BB2132B07D8394B1B7813F01E
:106CE000020F50D00220FFF79DFF364B1B88B3F5F3
:106CF0000C7F07D3324B1B7813F0020F47D00420D0
:106D0000FFF790FF2F4B1B88A3F23A239BB2812BF6
:106D100007D82B4B1B7813F0010F3CD00420FFF752
:106D200081FF284B1B88A3F52F739BB2632B36D9A9
:106D3000244B1B88A3F548739BB2632B07D8204BC9
:106D40001B7813F0010F2ED00420FFF76BFF1D4BB3
:106D50001B88B3F5617F2AD01A4B1B88B3F57A7F65
:106D600029D808BDFFF788FCFFF75CFFF9E707208B
:106D7000FFF758FFF5E70220FFF754FF97E70020E1
:106D8000FFF750FFA2E70020FFF74CFFADE7002020
:106D9000FFF748FFB6E70020FFF744FFC1E70420F4
:106DA000FFF740FFC4E70220FFF73CFFCFE70620D4
:106DB000FFF738FFD0E70120FFF734FFD1E700BF2E
:106DC000900E0020140F0020014B02221A70704711
:106DD0008B0E0020014B01221A7070478B0E002091
:106DE00008B51820FAF7CAFE0138062826D8DFE8C9
:106DF00000F00A040E1B16201200FFF7E5FF012227
:106E0000154B1A7008BDFFF7E5FF0122F8E7FFF701
:106E1000E9FE0122F4E7FFF7FBFE0122F0E7022082
:106E2000FFF700FF0122EBE70120FFF7FBFE012245
:106E3000E6E70420FFF7F6FE0122E1E7064B1A78A9
:106E4000002ADDD0FFF7D4FEFFF7D8FEFFF7C2FF20
:106E50000022014B1A70D3E7940E0020034B1878E0
:106E6000022814BF00200120704700BF950E0020AB
:106E70000120704710B500F0A5F968B9002414206E
:106E8000FAF792FE70B13420FAF778FE1D280FDC75
:106E9000201E18BF012010BD01213220FAF790FEFC
:106EA0000124ECE702213220FAF78AFE0224EAE705
:106EB0001720FAF763FEEA28EAD003213220FAF716
:106EC0007FFE0324E4E70000024B4FF4FA621A80CD
:106ED000704700BFA00E002070B52320FAF74EFEC9
:106EE00006462B20FAF74AFE05460A20FAF746FE28
:106EF0000446354B9988186817F05DFB30B1042CB7
:106F000009D8DFE804F0090F224130002F4B99889F
:106F1000186817F04DFB70BD2C4B9988186817F056
:106F200045FBF8E72A4B1B68002B08DD013B284A8C
:106F30001360264B9988186817F038FBEBE7234B52
:106F40009988186817F034FBE5E7032E05DD1F4B21
:106F50009988186817F02AFBDDE71C4B9988186898
:106F600017F026FBD7E7B5F5FA6F01DB032E05DD39
:106F7000164B9988186817F019FBCCE7134B9988C2
:106F8000186817F015FBC6E7032E03DD104B1B68CE
:106F9000002B0ADC032E11DC0D4B0A221A600B4B6E
:106FA0009988186817F004FBB5E7013B084A13609D
:106FB000064B9988186817F0F9FAACE7034B9988E3
:106FC000186817F0F5FAA6E7A00B0020A80B002020
:106FD000F406002010B502214FF0804017F0C0FDEC
:106FE00010B1294B03221A70274B1B78FBB9274B92
:106FF00000221A60254B19682320FAF7EFFD2B2099
:10700000FAF7C4FD224919F0C9F960BB214B1B787E
:107010008BB300211820FAF7D3FDFFF7E1FE1D4BDB
:107020001B786BB3FFF71AFCFFF7A6FC10BD013B02
:10703000154A137001214FF0804017F021FF18F01E
:1070400099FF154918F0EEFF044600214FF08040EB
:1070500017F016FF18F08EFF0146204619F096F83B
:107060000A4B1860C6E71A20FAF788FD0028CDD130
:10707000FFF7B6FED3E700211820FAF7A1FDCEE70F
:10708000FFF704FECEE700BF930E00208C0E002019
:107090000000FA44940E00200000C84200F11D03D5
:1070A0008B4204DB1D31884203DD00207047002045
:1070B000704701207047000030B583B002238DF87F
:1070C0000430254C01AA0121204616F0BBFE072200
:1070D0009DF80410204616F02CFE4FF4E0412046A7
:1070E00016F000FE204616F0C0FE1B4816F060FEAB
:1070F0000028FAD00121184816F05EFE84B221461D
:107100002E20FAF75DFD40F2CE212046FFF7C6FFA4
:10711000F8B940F2E73540F241312046FFF7BEFFB3
:1071200008B140F6A37540F2DF312046FFF7B6FF05
:1071300008B140F6A47540F26E412046FFF7AEFF5D
:1071400008B140F6A57529462F20FAF739FD03B09E
:1071500030BD40F6A275DEE700240140002304E0C4
:107160005A1C1449885CC854D3B2022BF8D9124B6C
:1071700019781048C170037803EB83035A004378F1
:107180001A4402EB820253009AB2837813449BB2F2
:1071900003EB83035A0092B2114489B2074A137871
:1071A0000133DBB21370042B00D07047044B1980FD
:1071B000FBE700BFA40E0020AD0E0020AC0E0020A7
:1071C000AE0E0020034B1888102894BF0020012029
:1071D000704700BFA80E002010B52548FBF762FAE3
:1071E000B0F57A7F2CBF00240124B0F57A7F15D248
:1071F000204B1B7843B900221F4B1A801F490B7884
:1072000001330B701E4B1A801D4B1B8840F2BB7262
:10721000934214D801331A4A138010E0164B1B888E
:1072200040F2BB72934202D80133134A1380124BCF
:107230001B88102B06D0104B1B88A52B08D00D4B9C
:107240001C7010BDFFF78AFF0C4B00221A70F2E78A
:107250000023032BF3D800220A49CA540A490A70B2
:107260000A490A8006490A800133DBB2F1E700BF10
:10727000040C0020A20E0020AA0E0020AD0E00205B
:10728000A80E0020A40E0020AC0E0020AE0E0020A0
:10729000F0B516461F4611F0010F0AD001F1010E9C
:1072A0001FFA8EFE0EF1FF330022C2544FF0000C85
:1072B00009E08E46FAE7344B002203F80C200CF16B
:1072C000010C1FFA8CFCBCF1270FF4D94FF0000C15
:1072D000BCF10F0F0ED816F80C302B4C04F80C3004
:1072E0000CF1100517F80C3063550CF1010C1FFA66
:1072F0008CFCEDE7244A002382F8203082F821300C
:107300000C0A82F8224082F8231082F8243082F896
:10731000253082F826309DF8141082F827101A467E
:1073200001E001339BB2132B13D84FEA430C164CE8
:1073300014F813500CF1010C14F80C1001EB05219A
:1073400089B20A44B2F5803FEBD3A2F57F42FF3AFF
:10735000E7E7002301E001339BB2B3EB5E0F0FD2EE
:1073600010F8134000EB4301497801EB042189B286
:107370000A44B2F5803FEED3A2F57F42FF3AEAE736
:1073800092B2D04380B2F0BDB00E0020002303E0E3
:10739000034A0021D1540133F92BF9DD704700BFB6
:1073A000B4180020002308E01A18054911F803C09A
:1073B000044901F802C00133DBB20F2BF4D9704746
:1073C000F00E0020B4180020002308E01A18054928
:1073D00011F803C0044901F802C00133DBB2062BE7
:1073E000F4D97047E80E0020B4180020034B1A7C33
:1073F000D87B00EB022080B2704700BFB817002096
:1074000038B50446FAF7FCF90146054D23462A78BB
:107410000448FBF757F82C70034B00221A8038BD44
:10742000D80E0020FC250208E20E002008B509490C
:10743000042000F0D9FC662000F0CCFC064B1B7841
:10744000042B00D008BD054B04221A800520FFF74D
:10745000D7FFF7E724260208D80E0020DC0E002014
:1074600010B50B49042000F0BFFC0A4BDC7C24B9AA
:107470000949042000F0B8FC10BDFAF7C1F9014633
:1074800022460648FBF71EF8FDF76EFEF4E700BF44
:1074900058260208B817002078260208D8260208C5
:1074A000037B407B00EB032080B2704708B50B469E
:1074B000062201460248184418F0DCFF08BD00BF50
:1074C000B418002008B50B460622014602481844AD
:1074D00018F0D0FF08BD00BFB418002070B5124BE3
:1074E0003C221A80FFF752FF00211048FFF7EAFF05
:1074F0000F4E06213046FFF7D9FF0E4C8823237329
:10750000E12363730123A3736423E3736023237470
:1075100000256574A574E574257515213046FFF7BF
:10752000C5FFE576257770BDAE190020382B02081F
:10753000F8060020B418002010B5164B3C221A8023
:10754000FFF724FF00211448FFF7BCFF134C06216E
:107550002046FFF7ABFF124B88221A73E1225A73C1
:10756000012199736A22DA7360221A7400225A7414
:107570009A74DA741A750A225A7506229A75D975A0
:1075800018212046FFF792FF1E212046FFF78EFFAD
:1075900010BD00BFAE190020382B0208F8060020ED
:1075A000B418002070B5194B47221A80FFF7EEFE81
:1075B00000211748FFF786FF164E06213046FFF7D9
:1075C00075FF154C88232373E12363730123A37391
:1075D0007623E3736023237400256574A574E57432
:1075E000257565750D4B1B7884F8263027213046AC
:1075F000FFF75CFF84F82F50372304E0064AFF2191
:10760000D1540133DBB2462BF8D970BDAE1900203E
:10761000382B0208F8060020B4180020DE0E0020E7
:1076200038B5174B55221A80FFF7B0FE154D0021D3
:107630002846FFF747FF144C06212046FFF736FF88
:10764000124B88221A73E1225A7301229A737C2208
:10765000DA7360221A7400225A749A74DA741A75F2
:107660003E2159759A7528212046FFF71FFF3F21BB
:107670002846FFF727FF45212046FFF717FF38BDB3
:10768000AE1900200C0F0020F8060020B4180020CE
:1076900038B5174B3C221A80FFF778FE00211548B9
:1076A000FFF710FF06211448FFF700FF134C882353
:1076B0002373E12363730123A3730C22E27360221B
:1076C000227400256574A574E57423751520FFF7F1
:1076D0007BFEAA2323776377A377E377042384F8D9
:1076E000203084F8215084F8225084F8235038BD8B
:1076F000AE190020382B0208F8060020B41800202C
:1077000038B51A4B3C221A80FFF740FE002118487A
:10771000FFF7D8FE06211748FFF7C8FE164C88234E
:107720002373E12363730125A5730823E3736023A7
:10773000237400236374A374E574AA22227562750E
:10774000A275E27523766376A376E3760422227728
:107750006377A377E37784F820302120FFF734FEA6
:1077600084F828502920FFF71DFE38BDAE190020EF
:10777000382B0208F8060020B418002008B51A4972
:10778000042000F031FB0023062B08D803F155023A
:107790001649895C164AD1540133DBB2F4E7002361
:1077A00007E003F15D021149895C124AD1540133AB
:1077B000DBB20F2BF5D91049042000F015FBFFF7C1
:1077C0009FFF0E49042000F00FFBAA2000F002FBEF
:1077D00000F060FD0A4B1B780B2B00D008BD0C207D
:1077E000FFF70EFEFAE700BF28270208B8170020AF
:1077F000E80E0020F00E00204C2702089427020813
:10780000D80E002010B5134B46221A80FFF7BEFD9C
:1078100000211148FFF756FE104C06212046FFF7C5
:1078200045FE0F4B88221A73E1225A7301229A7384
:107830006F22DA7360221A7400225A749A74DA740E
:107840001A7515212046FFF731FE1B212046FFF750
:1078500039FE10BDAE1900200C0F0020F8060020E4
:10786000B418002008B51449042000F0BDFA134BE9
:107870001B78082B00D008BD002306E09A1D104994
:10788000895C104AD1540133DBB2052BF6D90C4B7D
:1078900093F845200C4B1A70FFF7B4FF0B490420F6
:1078A00000F0A2FA8C2000F095FA00F0F3FC034BF4
:1078B00009221A70DFE700BFCC270208D80E00208B
:1078C000B81700200C0F0020E40E0020F02702085B
:1078D00008B50E4B3C221A80FFF758FD00210C48DA
:1078E000FFF7F0FD06210B48FFF7E0FD0A4B882269
:1078F0001A73E1225A7300229A73DA73A021197461
:107900005A74B0229A745222DA7408BDAE1900205B
:10791000382B0208F8060020B418002008B5FFF73D
:10792000D7FF00F0B7FC08BD10B5BCB02749042054
:1079300000F05AFA264A137801331370002306E048
:107940009A1D2449895C244AD1540133DBB2052BAA
:10795000F6D9214A9378D17810795479039402901A
:1079600001910093537812781C4937A8FAF7BEFDAD
:1079700037A91B48FAF7A6FD164B93F816C0194B0A
:1079800083F800C00CF1FF33DBB22E2B1BD8002391
:1079900005E0F0326A4402F8DC1C0133DBB29C459E
:1079A00008D91A4603F117010A48415C1F29F0D88B
:1079B0002021EEE7F0336B44002203F8DC2C05A90C
:1079C0000948FAF77FFD3CB010BD00BF1C28020833
:1079D000120F0020B8170020040F00203C280208D6
:1079E0005C280208000F002068280208034B187862
:1079F000012894BF00200120704700BFD90E00204D
:107A0000034B1888B0F5FA7F94BF0020012070471F
:107A1000E20E002010B59A4A138801331380FDF757
:107A2000A9FA092807D8974B1B7803B910BD002085
:107A3000FFF7E6FCFAE7FDF79DFA132841D8914BD2
:107A40001B78002B45D0022B47D0042B54D0052B9C
:107A50005ED0062B66D0072B00F08780082B00F045
:107A6000A880092B00F0AE800A2B00F0B2800B2B0F
:107A700000F0C5800C2B00F0CD800D2B40F0F7807E
:107A80007F4B1B88092BD1D97F49042000F0ACF92A
:107A9000FFF7ACFF002840F0DC807C4C23780133FA
:107AA00023707B49042000F09FF92378142B40F2C7
:107AB000C9807849042000F097F90020FFF7A0FC66
:107AC000B4E7704B1B78002BB0D00020FFF798FC78
:107AD000ACE70220FFF794FCA8E76F49042000F010
:107AE00083F9642000F076F9FFF7F8FC00F0D2FB90
:107AF0000420FFF785FC99E7614B1B88202B95D963
:107B00006649042000F070F90020FFF779FC8DE74A
:107B1000634B01221A80634B03221A700620FFF781
:107B20006FFC83E75E4B1B888BB95E4B1B7893B170
:107B3000013B5C4A1370FFF7FFFC5B49042000F037
:107B400053F900F0A7FB564B00221A806EE7013B69
:107B5000534A13806AE7524B00221A80534B0A2281
:107B60001A700720FFF74CFC60E74D4A1288C2B933
:107B70004E4A1278002A3FF471AF4C4C013A227001
:107B8000FFF710FD4A49042000F02EF9682000F0AC
:107B900021F900F07FFB23783BB1414B00221A8092
:107BA00044E7013A3E4B1A8040E70820FFF728FCE3
:107BB000F3E7FFF725FF00283FF438AF0020FFF779
:107BC0001FFC33E70A20FFF71BFC354B1E221A80EF
:107BD0002CE7334B1B881BB1013B314A138025E74F
:107BE000FFF71EFD3349042000F0FEF8962000F058
:107BF000F1F800F04FFB0B20FFF702FC16E7FFF750
:107C0000FFFE18B9264B64221A800FE70020FFF709
:107C1000F7FB0BE7224B1B881BB1013B204A13806B
:107C200004E72549042000F0DFF80023234A1370FD
:107C3000164A1370FFF72CFD00F02CFB0D20FFF708
:107C4000DFFBF3E6164B1E221A800C20FFF7D8FB51
:107C5000ECE61B49042000F0C7F800240B4B1C7015
:107C60000220FDF771FA2046FFF7CAFBDEE6154950
:107C7000042000F0B9F80020FFF7C2FBD6E600BFF1
:107C8000E20E0020D80E0020C0290208DF0E0020DE
:107C9000082A02083C2A020880280208B4280208A0
:107CA000DC0E0020E00E0020E8280208DE0E002096
:107CB00018290208442902087C290208D90E00204C
:107CC000882A0208B42A020808B5FDF753F90E28DD
:107CD00003D81F4B00221A7008BDFDF74BF914287A
:107CE00012D81B4B1B789BB1012BF5D1194B1B886C
:107CF000FBB9194B1B7803BB1849042000F074F83A
:107D0000134B00221A70E7E7114B00221A70E3E7C9
:107D10001349042000F068F8C82000F05BF80D4B10
:107D200000221A800C4B32221A70094B01221A7061
:107D3000D2E7013B074A1380CEE7FCF737FD064A3E
:107D40001378013B1370034B0F221A80C4E700BF66
:107D5000010F0020DC0E0020DA0E0020002B0208AC
:107D6000DC2A020808B5FFF741FB46F26E03984291
:107D700019D00AD946F27D03984211D04AF2010384
:107D800098420FD1FFF7D0FD0CE046F2090398426C
:107D90000CD046F26503984204D1FFF747FB01E09F
:107DA000FFF7ECFC08BDFFF75DFDFBE7FFF758FBB5
:107DB000F8E70000002303E0C15C034AD15401331B
:107DC000052BF9DD704700BFF8060020004870471A
:107DD000F806002008B50146024B18803320F9F759
:107DE000EFFE08BD140F002038B504460D461920DB
:107DF000F9F7C4FE204200D138BDF9F701FD014674
:107E00002A460248FAF75EFBF6E700BF402B02085D
:107E1000F8B504460F4616461D461920F9F7AEFE82
:107E2000204200D1F8BDF9F7EBFC01463A4608487C
:107E3000FAF748FB002405E0315D0648FAF742FBFB
:107E40000134A4B2AC42F7D30348FAF73BFBE9E7AD
:107E50004C2B0208582B02086412020870470000DD
:107E600010B50E4B9C6814F08004FAD10C4B998825
:107E7000186816F09DFB07E00A4B195D074816F0DD
:107E80002EFE094B18550134084B1B88A342F3D82A
:107E9000034B9988186816F089FB10BD003001402B
:107EA000B80B002064130020180F0020160F0020CC
:107EB00008B5094BC3221A7000225A709A70DA7002
:107EC000064B04221A80FFF7CBFF054B9A78D8782F
:107ED00000EB022080B208BD64130020160F0020C2
:107EE000180F002008B5074B41221A7000225A7063
:107EF000020A9A70D870044B04221A80FFF7B0FF70
:107F000008BD00BF64130020160F002038B51E4BBB
:107F10009B6813F0800FFAD11C4C0221204616F00A
:107F20003EFA0321204616F03AFA194D2A8802211A
:107F3000204616F04FFA2A880321204616F04AFA06
:107F400002221146204616F0C6F9022203212046DD
:107F500016F0C1F90221204616F018FA0321204636
:107F600016F014FA0B4B9988186816F021FB064D91
:107F7000284616F0C9FD284616F0D0FD02212046FD
:107F800016F0F2F938BD00BF003001400000024099
:107F9000160F0020B80B002010B50B4B9B6813F098
:107FA000800FFAD1094B9988186816F0FFFA064C31
:107FB000204616F0AEFD204616F0B5FD022104481D
:107FC00016F0DBF910BD00BF00300140B80B0020F7
:107FD0000000024070B582B0334C00250195009539
:107FE0002B462A461821204616F0A2FD204616F000
:107FF0007DFD204616F083FD2C4EA0230222032196
:10800000304616F099FA402301222946304616F0F0
:1080100093FA204616F05EFD254B9988186816F0F5
:10802000C5FA04F550440321204616F043F9032114
:10803000204616F090F906F520560C3632460321FC
:10804000204616F0B5F92A460321204616F060F9BD
:108050002A460321204616F04EF90321204616F049
:1080600064F9144A0321204616F0ABF90221204698
:1080700016F020F932460221204616F099F92A46D8
:108080000221204616F044F92A460221204616F025
:1080900032F90221204616F048F9074A022120460B
:1080A00016F08FF902B070BD0030014000080140A9
:1080B000B80B002064130020180F00202DE9F041B8
:1080C00006460027364C1EE001271CE0DFF8D4806E
:1080D000354B1A8804F10C01404618F0CBF94046A4
:1080E000FFF7DEF948F6E10398422DD048F2DD6350
:1080F00098423ED0761BB6B2043E36B204352C44CC
:108100000A2E00DC0127002F48D1A378E57805EB83
:108110000325ADB2627A237A03EB02239BB2AA2233
:1081200022716271A271E27103F10A02AA42CBD1FB
:108130001D4A1380FA2BC9D91346FA221A801B4A0A
:10814000138801331380C1E719491020FFF74CFE53
:10815000184B1B88B3F52F7F02D3FFF703FEC9E747
:10816000114B1B88424614494FF48060FFF750FEC4
:10817000F3E712491020FFF737FE0E4B1B88B3F5CB
:108180002F7F02D3FCF7C8FBB4E7074B1B88054AD7
:108190000B494FF48060FFF73BFEF3E7BDE8F08149
:1081A000180F0020B8170020B2180020B4170020C4
:1081B000602B0208140F0020782B0208842B020881
:1081C000982B020810B5FFF773FE40B30446B0F5D4
:1081D0007A6F24D240F24943984201D940F24A448E
:1081E0002046FFF77FFE0E4B80221A7000225A7045
:1081F000A31C0C4A1380FFF789FE0B4B9B6813F0FE
:10820000800FFAD1002305E0991C084A515CD15433
:1082100001339BB29C42F7D820B2FFF74FFF10BD4D
:1082200064130020160F002000300140180F0020BA
:1082300038B5144D28880A3080B2FFF753FE124C2F
:10824000002323706370AA22A270E270227162710F
:108250002A88A271110AE171237263720B4904F139
:108260000A0018F007F92B8803F10A01552262541D
:1082700003F10B0162540C33054A1380FFF746FEED
:1082800038BD00BFAE19002064130020B4180020D0
:10829000160F002008B50A4B1B880A490A681A44C1
:1082A0000A60094A1288B2F52F7F02D3FFF7C0FF98
:1082B00008BD064A06494FF48060FFF7A9FDF5E7BF
:1082C000AE190020B0170020140F0020B4180020B1
:1082D000A42B02082DE9F74F06460846894600F010
:1082E00028FF9F4DDFF87CA2012130469C4A00F018
:1082F000F9FE9D4C0746206010BB2B68002B51D126
:108300002A460121304600F0EDFE2060C0B92B68FE
:1083100073BB304609F5C87100F0FDFD206078B9E7
:10832000B9F8901101291FD9023989B264234A464C
:108330003046A9F8901100F023FE07462060D0B126
:10834000002722E0052F00F2038101A353F827F054
:10835000E9820008AD8300080D84000867840008E6
:10836000C9840008338500086FF09F032360E7E7A6
:108370006FF08403FAE72A460121304600F0B2FE8E
:108380002B68206063B1C4F800A04FF00008DFF84C
:10839000DCB1206858EA0008D4D003B0BDE8F08F03
:1083A0000127F2E76FF06D032360EEE72A46012113
:1083B000304600F097FE20600028EAD12B68002BA1
:1083C00040F0C1802A460121304600F08BFE20603B
:1083D0000028DED12B68ABB9304609F5CA7100F030
:1083E000B4FD20600028D4D12A46019001213046F6
:1083F00000F078FE2A6820601AB3019BC4F800A040
:108400009846C6E76FF084032360C2E72A4601213D
:10841000304600F067FE206098B92B68002B40F0D2
:1084200092802A460121304600F05CFE206040B96F
:108430002B6843B9304609F5CC7100F086FD206009
:1084400028B10227A5E76FF084032360F9E72A46E5
:1084500001900121304600F045FE2A682060002A84
:10846000CBD1032795E72A460121304600F03AFE9A
:1084700020600028F5D12B68002B64D12A46012109
:10848000304600F02FFE20600028EAD12B68BBB9EF
:10849000364A0821304600F025FEDBF80020206037
:1084A00089F89C210028DCD12A4601900121304620
:1084B00000F018FE2A682060002A9ED1042768E791
:1084C0006FF084032360CCE72A460121304600F098
:1084D00009FE20600028F1D12B68002B33D12A46F9
:1084E0000121304600F0FEFD20600028E6D12B6817
:1084F000C3B91E4A0521304600F0F4FDDBF8002028
:108500002060013289F89D210028D7D12A460190A8
:108510000121304600F0E6FD2A68019B20602AB95F
:10852000052736E76FF084032360C7E7C4F800A08F
:1085300066E72A460121304600F0D4FD206000287D
:10854000EED12B684BB16FF06D038046236020E7BE
:108550006FF06B03236006271BE74FF00108FAE773
:10856000B81900200CFEFFFFB4190020BC19002030
:108570002DE9F84F80460E4600F0BDFDBB4D28604A
:10858000002876D1BA4F304600F0CCFD3A460221A1
:10859000404600F0A7FD286000286AD13B6833B14F
:1085A000012B00F01F836FF06E032B6061E03046FB
:1085B00000F0C0FD6FF06B0A3A460121404600F022
:1085C00091FD0446286000284DD13B68002B53D113
:1085D000B6F82038042B43D84FF4D0715A1C4046CB
:1085E00001FB0361A6F82028FFF774FE4FF008098D
:1085F00028602B681C4336D1A9F10503152B00F226
:10860000EE8201A252F823F0BD8B0008DF8B000838
:10861000B98500087F860008CF860008118700080A
:108620005587000899870008DF870008258800081B
:1086300075880008BB880008018900084789000880
:108640008D890008D3890008198A00085F8A00080C
:10865000A58A0008EB8A0008318B0008778B000898
:108660006FF063032B6096F8243843F0010386F81B
:1086700024382868BDE8F88F6FF06D03F2E73A46BA
:108680000221404600F02EFD28600028B1D13C6850
:108690003CB1012C00F09F826FF06D0304462B600B
:1086A000A7E7B6F82038042B0DD84FF4D0715A1C28
:1086B000404601FB0361A6F82028FFF70BFE286067
:1086C0004FF0090995E76FF063032B60F8E73A462E
:1086D0000221404600F006FD2860002889D13C6850
:1086E000002CD6D1B6F82038042B0DD84FF4D07119
:1086F0005A1C404601FB0361A6F82028FFF7EAFD5B
:1087000028604FF00A0974E76FF063032B60F8E705
:108710003A460221404600F0E5FC286000287FF43C
:1087200068AF3C68002CB4D1B6F82038042B0DD8C3
:108730004FF4D0715A1C404601FB0361A6F8202873
:10874000FFF7C8FD28604FF00B0952E76FF0630395
:108750002B60F8E73A460221404600F0C3FC28604F
:1087600000287FF446AF3C68002C92D1B6F8203840
:10877000042B0DD84FF4D0715A1C404601FB036105
:10878000A6F82028FFF7A6FD28604FF00C0930E777
:108790006FF063032B60F8E73A460221404600F091
:1087A000A1FC286000287FF424AF3C68002C7FF4F3
:1087B00070AFB6F82038042B0DD84FF4D0715A1C86
:1087C000404601FB0361A6F82028FFF783FD2860DF
:1087D0004FF00D090DE76FF063032B60F8E73A46A1
:1087E0000221404600F07EFC286000287FF401AFA3
:1087F0003C68002C7FF44DAFB6F82038042B0DD820
:108800004FF4D0715A1C404601FB0361A6F82028A2
:10881000FFF760FD28604FF00E09EAE66FF0630392
:108820002B60F8E73A460221404600F05BFC2860E6
:1088300000287FF4DEAE3C68002C7FF42AAFB6F847
:108840002038042B0DD84FF4D0715A1C404601FB40
:108850000361A6F82028FFF73DFD28604FF00F09BF
:10886000C7E66FF063032B60F8E700BFB419002080
:10887000B81900203A460221404600F033FC286037
:1088800000287FF4B6AE3C68002C7FF402AFB6F847
:108890002038042B0DD84FF4D0715A1C404601FBF0
:1088A0000361A6F82028FFF715FD28604FF0100996
:1088B0009FE66FF063032B60F8E73A4602214046DB
:1088C00000F010FC286000287FF493AE3C68002C78
:1088D0007FF4DFAEB6F82038042B0DD84FF4D071FA
:1088E0005A1C404601FB0361A6F82028FFF7F2FC62
:1088F00028604FF011097CE66FF063032B60F8E706
:108900003A460221404600F0EDFB286000287FF443
:1089100070AE3C68002C7FF4BCAEB6F82038042B57
:108920000DD84FF4D0715A1C404601FB0361A6F8E4
:108930002028FFF7CFFC28604FF0120959E66FF0AE
:1089400063032B60F8E73A460221404600F0CAFB79
:10895000286000287FF44DAE3C68002C7FF499AE6F
:10896000B6F82038042B0DD84FF4D0715A1C40466D
:1089700001FB0361A6F82028FFF7ACFC28604FF04C
:10898000130936E66FF063032B60F8E73A460221DD
:10899000404600F0A7FB286000287FF42AAE3C6820
:1089A000002C7FF476AEB6F82038042B0DD84FF4A7
:1089B000D0715A1C404601FB0361A6F82028FFF73E
:1089C00089FC28604FF0140913E66FF063032B60F5
:1089D000F8E73A460221404600F084FB2860002870
:1089E0007FF407AE3C68002C7FF453AEB6F8203815
:1089F000042B0DD84FF4D0715A1C404601FB036183
:108A0000A6F82028FFF766FC28604FF01509F0E56E
:108A10006FF063032B60F8E73A460221404600F00E
:108A200061FB286000287FF4E4AD3C68002C7FF4F3
:108A300030AEB6F82038042B0DD84FF4D0715A1C44
:108A4000404601FB0361A6F82028FFF743FC28609D
:108A50004FF01609CDE56FF063032B60F8E73A4657
:108A60000221404600F03EFB286000287FF4C1ADA3
:108A70003C68002C7FF40DAEB6F82038042B0DD8DE
:108A80004FF4D0715A1C404601FB0361A6F8202820
:108A9000FFF720FC28604FF01709AAE56FF0630389
:108AA0002B60F8E73A460221404600F01BFB2860A5
:108AB00000287FF49EAD3C68002C7FF4EAADB6F848
:108AC0002038042B0DD84FF4D0715A1C404601FBBE
:108AD0000361A6F82028FFF7FDFB28604FF0180976
:108AE00087E56FF063032B60F8E73A4602214046C2
:108AF00000F0F8FA286000287FF47BAD3C68002C79
:108B00007FF4C7ADB6F82038042B0DD84FF4D071E0
:108B10005A1C404601FB0361A6F82028FFF7DAFB48
:108B200028604FF0190964E56FF063032B60F8E7E4
:108B30003A460221404600F0D5FA286000287FF42A
:108B400058AD3C68002C7FF4A4ADB6F82038042B57
:108B50000DD84FF4D0715A1C404601FB0361A6F8B2
:108B60002028FFF7B7FB28604FF01A0941E56FF0A6
:108B700063032B60F8E73A460221404600F0B2FA60
:108B8000286000287FF435AD3C68002C7FF481AD6F
:108B9000B6F82038042B0DD84FF4D0715A1C40463B
:108BA00001FB0361A6F82028FFF794FB28604FF033
:108BB00005091EE56FF063032B60F8E73A460121D3
:108BC000404600F08FFA286000287FF412AD3B6821
:108BD000002B7FF461AD01244FF0060909E5C5F8CB
:108BE00000A006E5304600F0A9FADFF81CA13A46DD
:108BF0000121404600F076FA2860A0B93B683BBBF3
:108C00003A460121404600F06DFA286058B93B68A9
:108C10005BB93E4C02212246404600F063FA2368CD
:108C20002860337028B11B2416E06FF084032B609A
:108C3000F9E73A460121404600F054FA3B682860C3
:108C40004BB1314B2B6096F8243843F002030EE50C
:108C50006FF06D03F6E71C244FF00009DFF8ACB0AD
:108C60002B6859EA0309EED11B2CC0D01C2C0FD065
:108C7000052C46D13A460121404600F033FA2860DF
:108C8000002835D13B687BB94FF001090624E7E79E
:108C90003A460221404600F025FA28600028DFD13C
:108CA0003B6823B1012BEFD06FF06D0324E03A460F
:108CB0000121404600F016FA28600028D0D13B6818
:108CC000C3B908214046114A00F00CFADBF8003025
:108CD00028607370B37843F00103B3700028BFD1EC
:108CE0003A460121404600F0FDF93B6828602BB967
:108CF0000524B5E76FF084032B60B1E7C5F800A049
:108D0000AEE76FF06B03F7E70CFEFFFFBC19002026
:108D10000A46082114F08CBB7F2938B505460C465D
:108D200004D8C9B2BDE83840FFF7F2BF084614F0D6
:108D30006BFB02280ED0032803D0012813D000209B
:108D400038BD64F07F012846C9B2FFF7E1FF002873
:108D5000F6D1E40964F07F012846C9B2FFF7D8FFD5
:108D60000028EDD1E4092846E1B2DBE77F2938B5D8
:108D700005460C4604D8C9B2BDE83840FFF7C8BF65
:108D8000084614F041FB0138042827D8DFE800F03A
:108D9000231B130B030064F07F012846C9B2FFF7C1
:108DA000B7FFE0B9E40964F07F012846C9B2FFF7D4
:108DB000AFFFA0B9E40964F07F012846C9B2FFF70C
:108DC000A7FF60B9E40964F07F012846C9B2FFF744
:108DD0009FFF20B9E4092846E1B2CDE7002038BD65
:108DE000F8B5054600200E4617460446BC4200D0A2
:108DF00000B1F8BD56F824102846FFF7B7FF01343C
:108E0000F4E770B506460020D409D1B244EA4364C1
:108E1000DD0954EA05030CD000B170BD41F08001BA
:108E20003046FFF775FFE1B2E40944EA4564ED0915
:108E3000EFE70028F1D13046BDE87040FFF768BF8A
:108E400070B506460C4600208D18AC4200D000B12B
:108E500070BD304614F8011BFFF75AFFF5E70A1EF4
:108E600018BF0122012114F0E3BA38B50C1E0546E3
:108E70000ADA0121FFF7F3FFE44348B92846A1B21B
:108E8000BDE83840FFF748BF0021FFF7E8FFF4E7EF
:108E900038BD38B50C1E05460ADA0121FFF7DFFFA1
:108EA000E44348B921462846BDE83840FFF75EBF95
:108EB0000021FFF7D4FFF4E738BD70B51C1E06464D
:108EC00015460CDA0121FFF7CAFFED43E44350B920
:108ED0002A4623463046BDE87040FFF792BF002186
:108EE000FFF7BDFFF3E770BD09B114F0A1BA084662
:108EF000704714F0F3BA13B50C4601AA08210BF021
:108F000092FE30B9019BB3F5807F8CBF6FF0C70034
:108F1000237002B010BD73B5002406460D468DF8CF
:108F200007400C800DF107013046FFF7E4FF9DF884
:108F30000720298802F07F03A3400B442B800734CD
:108F400008B9D309EED102B070BD73B5002406464E
:108F50000D468DF807400C600DF107013046FFF714
:108F6000CAFF9DF8071001F07F0303FA04F22B6893
:108F7000073413442B6008B9CB09EDD102B070BDA2
:108F80009942F8B506460D4617460CD8002004460F
:108F9000A54200D000B1F8BD07EB84013046FFF7D1
:108FA000D4FF0134F4E76FF06400F4E7F7B5002371
:108FB000002206460C460025C1E900230DF10701F9
:108FC0003046FFF798FF9DF807C0A5F120030CF08D
:108FD0007F02C5F1200122FA01F102FA03F3AA404F
:108FE0000B43D4E900178A1843EB0703C4E90023B5
:108FF000073510B95FEADC13E0D103B0F0BD73B5FB
:109000000646002014468DF807005518AC4200D0E3
:1090100008B102B070BD30460DF10701FFF76BFFDC
:109020009DF8073004F8013BF0E713B50C4601AAA0
:1090300001210BF0F8FD019B003B18BF01232360C9
:1090400002B010BD37B50C4601A90546FFF7EDFF8C
:1090500050B9019B28460DF102013BB1FFF75BFFC0
:10906000BDF80230DB43238003B030BDFFF753FF70
:10907000BDF80230F7E737B50C4669460546FFF7FD
:10908000D4FF40B9009B284601A933B1FFF75DFF2B
:10909000019BDB43236003B030BDFFF756FF019B0C
:1090A000F8E730B585B00C4601A90546FFF7BDFFCE
:1090B00078B9019B284602A96BB1FFF777FF029BA5
:1090C000039A013342F100025B4262EB4202C4E9BF
:1090D000003205B030BDFFF769FFDDE90223C4E9C6
:1090E0000023F6E710B411B110BC0BF09CBD08468C
:1090F00010BC1160704707B50022082101928281DF
:1091000001AA0BF090FD38B9019B242B07D013F076
:10911000200F18BF6FF0890003B05DF804FB6FF0FB
:109120008800F9E790F8243823F0030380F8243806
:10913000704770470023A0F82038704783786FF39A
:1091400000038370704700002DE9F84F064608467B
:10915000884614F038FC714DDFF8C4A10121304677
:109160006E4AFFF7BFFF6F4C2060B0B92B68ABBBF6
:109170002A4601213046FFF7B5FF206068B92B6809
:10918000CBB9694F03213A463046FFF7ABFF3B6846
:109190002060033B88F8003088B1C6271BE0C72F4A
:1091A0001FD0C82F7DD0042F00F0A780C62FD5D0A8
:1091B0006FF06B0349E06FF084032360EDE72A460C
:1091C00001213046FFF78EFF2B68206013B1C4F8F1
:1091D00000A0E2E7C7274FF000092EE06FF06D0313
:1091E000EBE72A4602213046FFF77CFF206020BBD8
:1091F000D5F800B0BBF1000F05D0BBF1010F32D0A4
:109200006FF06D0321E02A4601213046FFF76AFF27
:10921000206090B92B68B3B904213046424AFFF769
:1092200061FF414B20601B6888F8013098F80230DC
:1092300043F0010388F8023048B1206859EA000978
:10924000ADD0BDE8F88F6FF084032360F5E72A46C0
:1092500001213046FFF746FF2B682060002B3AD0F3
:10926000C4F800A0B7E72A4659463046FFF73AFF50
:1092700020600028E1D12A68002AE4D1304608F1B4
:109280000401FFF7DFFE20600028D6D12A465946A8
:109290003046FFF727FF2B682060002BE0D1042722
:1092A000CBE72A4601213046FFF71CFF206090B92A
:1092B0002B68002BA4D12A4601213046FFF712FF6C
:1092C000206040B92B6843B9304608F10401FFF72C
:1092D000B9FE206028B1C827AFE76FF08403236090
:1092E000F9E72A4601213046FFF7FCFE2B68206093
:1092F000002BD4D0C4F800A09FE72A4601213046B5
:10930000FFF7F0FE20600028C9D12B68002B7FF406
:1093100077AF4FF0010905278FE700BFC419002080
:109320000CFEFFFFC0190020C81900202DE9F843EA
:1093300006460846894614F051F95B4F5B4D012102
:109340003046594AFFF7CEFE286088B93B68002BAB
:1093500040D13A4601213046FFF7C4FE286038B9B3
:109360003B680BBB49463046FFF7EFFD2860F8B17C
:109370004FF0290828E0B8F1040F7FD0A8F12903A5
:10938000042B00F28980042B00F2868001A252F89F
:1093900023F000BF3F930008DB930008039400080C
:1093A000299400084F9400086FF084032B60DFE7D6
:1093B0003A4601213046FFF795FE3B6828600BB125
:1093C0003B4BF3E74FF02A08002428680443D2D02F
:1093D000BDE8F8836FF06D03E8E73A4601213046B7
:1093E000FFF780FE28600028EFD13C68002C41D1B7
:1093F000304609F10401FFF7A7FE4FF02B08286063
:10940000E3E73A4601213046FFF76CFE286000286A
:10941000DBD13C6874BB304609F10C01FFF794FEC8
:109420004FF02C082860D0E73A4601213046FFF77C
:1094300059FE28600028C8D13C68DCB9304609F1E3
:109440001401FFF781FE4FF02D082860BDE73A4672
:1094500001213046FFF746FE28600028B5D13C6860
:1094600044B9304609F11C01FFF76EFE4FF00408C5
:109470002860AAE76FF06D032B60A5E73A4601214B
:109480003046FFF72FFE286000289ED13B6833B19D
:109490006FF06D032B6098E76FF06B03FAE7012420
:1094A0004FF0050891E700BFC4190020C019002043
:1094B0000CFEFFFF2DE9F74F06460846894614F0DB
:1094C000B7FA7F4DDFF8FCA1012130467C4AFFF757
:1094D00009FE7D4C206088B92B68002B42D12A46BA
:1094E00001213046FFF7FEFD206038B92B68FBB93B
:1094F00049463046FFF799FD2060E8B14FF0D808A3
:1095000027E0B8F1040F00F0C780A8F1D803032BBF
:1095100000F2CF80032B00F2CC8001A252F823F09E
:10952000C99400086B950008CB95000827960008A1
:109530006FF084032360E1E72A4601213046FFF7FC
:10954000D1FD2B68206013B1C4F800A0D6E74FF01E
:10955000D9080027DFF874B120680743D1D003B0E1
:10956000BDE8F08F6FF06D03E4E72A460121304635
:10957000FFF7B8FD20600028EED12B68002B40F0EB
:1095800086802A4601213046FFF7ACFD2060002886
:10959000E2D12B68ABB9304609F10401FFF745FD74
:1095A00020600028D8D12A46019001213046FFF7DB
:1095B00099FD2A68206012B3019BC4F800A01F46E1
:1095C000CAE76FF084032360C6E72A4601213046CC
:1095D000FFF788FD206090B92B68002B57D12A46F1
:1095E00001213046FFF77EFD206040B92B684BB962
:1095F000304609F10801FFF7A8FC206030B14FF0B8
:10960000DA08A9E76FF084032360F8E72A4601909F
:1096100001213046FFF766FD2A682060002ACBD181
:109620004FF0DB0898E72A4601213046FFF75AFD44
:1096300020600028F4D12B684BBB2A46012130461C
:10964000FFF750FD20600028EAD12B68C3B91F4AFC
:1096500002213046FFF746FDDBF80020206089F844
:109660000C200028DCD12A46019001213046FFF76A
:1096700039FD2A68019B206032B94FF004086BE77E
:109680006FF084032360CBE7C4F800A097E76FF086
:109690006D03074623605FE72A4601213046FFF746
:1096A00021FD20600028E8D12B682BB16FF06D03FD
:1096B00089E76FF06B0386E701274FF005084BE75A
:1096C000C41900200CFEFFFFC0190020C81900209B
:1096D0002DE9F84306460846894614F0CAF9424F78
:1096E000424D01213046404AFFF7FCFC286030BB68
:1096F0003B680BBB49463046FFF7DCFE4FF0E908FC
:10970000286000242868044301D0BDE8F883B8F13C
:10971000040F54D0A8F1E803032B5ED8032B5CD8C8
:1097200001A252F823F000BFE39600084597000815
:109730006B970008919700086FF06D032B604FF056
:10974000E808DEE73A4601213046FFF7CBFC286007
:109750000028D7D13C6874BB304609F11001FFF7EF
:10976000F3FC4FF0EA082860CCE73A460121304686
:10977000FFF7B8FC28600028C4D13C68DCB930464B
:1097800009F11801FFF7E0FC4FF0EB082860B9E79A
:109790003A4601213046FFF7A5FC28600028B1D1E8
:1097A0003C6844B9304609F12001FFF7CDFC4FF089
:1097B00004082860A6E76FF06D032B60A1E73A4626
:1097C00001213046FFF78EFC286000289AD13B68C3
:1097D00033B16FF06D032B6094E76FF06B03FAE722
:1097E00001244FF005088DE7C4190020C01900209E
:1097F00070B50546084613F0AAFF134C134E01211D
:1098000032462846FFF76EFC03462060A0B9326856
:10981000A2B16FF06D022260402100222068034354
:1098200002D002B1206070BD40296FF06B0008D1FA
:10983000002AE3D02360E1E70023EDE701230521BF
:10984000EBE70122EBE700BFC0190020C41900209C
:109850002DE9F047064608460D4613F089FEDFF86D
:10986000F8803E4C012130463B4AFFF73BFC20602C
:1098700090BBD8F8003063BB304605F58271FFF726
:109880004AFB206068B9B5F8041101291DD90239D5
:1098900089B241232A463046A5F80411FFF770FB30
:1098A000206013274FF000096FF09F0A206859EAE3
:1098B000000901D0BDE8F087132F1CD0142F1AD057
:1098C000122FCFD06FF06B0343E06FF09F03236044
:1098D000E7E76FF06D0323601227E3E74FF001091C
:1098E0000527E3E7C4F800A095F8D43143F001035D
:1098F00085F8D43111E0424602213046FFF7F2FBF1
:1099000020600028D2D1D8F80030012BE6D0022BFD
:1099100005D0E3B96FF0840323601427C6E730460F
:1099200005F5E871FFF7F7FA20600028DCD1B5F8FB
:10993000D0110129D6D9023989B232233046A5F88F
:10994000D01105F58472FFF71BFB2060CCE76FF0A8
:109950006D032360AAE700BFC4190020C0190020CE
:109960002DE9F74F064608460D4613F012FE684FE4
:10997000DFF8A0A101213046654AFFF7B3FB664C32
:10998000206098BB3B68002B5DD1B5F83433042BC5
:1099900040D83A4601213046FFF7A4FB206028BB9F
:1099A0003B689BBB4FF0A408B5F83413304608FB66
:1099B0000151A031FFF7AFFA206080B9B5F8342328
:1099C00008FB0252B2F8A01001291BD9023989B252
:1099D00028233046A2F8A010FFF7D2FA2060B5F88D
:1099E00034330133A5F834332368B3B14FF018088A
:1099F00020E0B8F1180FBDD0B8F1190F26D06FF0E4
:109A00006B037BE06FF09F032360E8E76FF0840354
:109A10002360EBE76FF06303FAE73A460121304633
:109A2000FFF760FB3B68206013B1C4F800A0DDE7DE
:109A30004FF019084FF00009206859EA0009D8D002
:109A400003B0BDE8F08F6FF06D03E1E73A46022105
:109A50003046FFF747FB20600028EDD13B6823B17B
:109A6000012B50D06FF06D0348E0B5F83433042B70
:109A700046D83A4601213046FFF734FB20600028E3
:109A8000DAD13B68002B37D14FF0A40BB5F8341373
:109A900030460BFB0151A031FFF73DFA206090B931
:109AA000B5F834230BFB0253B3F8A01001291FD9DA
:109AB0000BFB0252023989B228233046A2F8A010CB
:109AC000FFF75EFA2060B5F834330133A5F834337C
:109AD0002368002BB0D13A46012130460193FFF7AD
:109AE00001FB3A682060002AA6D0C4F800A0A1E7D4
:109AF0006FF09F032360E6E76FF0840323609BE72A
:109B00006FF06303FAE799464FF0050894E700BF4A
:109B1000C41900200CFEFFFFC01900202DE9F84FEA
:109B2000054608460F4613F0A7FE9B4EDFF86CA2D1
:109B300002212846984AFFF7D5FA994C2060002860
:109B40006ED1D6F80080B8F1000F1DD0B8F1010F2A
:109B500046D06FF06D035AE0B9F1040F00F00781B1
:109B6000A9F18503032B00F20F81032B00F20C8176
:109B700001A252F823F000BF319B0008459C000869
:109B8000B59C0008E19C0008284607F1C801FFF7D2
:109B9000C2F9206068B9B7F8C810012919D902398B
:109BA00089B232233A462846A7F8C810FFF7E8F9E9
:109BB00020604FF0860997F8CC3043F0010387F816
:109BC000CC304FF00008206858EA0008C4D0BDE847
:109BD000F88F6FF09F032360EBE74FF08709F0E702
:109BE000324641462846FFF77DFA2060C0B9336807
:109BF000CBB9284607F27E51FFF78DF9206078B97E
:109C0000B7F87E15B1F5966F03D96FF06603236040
:109C100006E0284607F1CE02FFF7F1F9206028B1EF
:109C20004FF08509CDE76FF08403F0E732464146F7
:109C30002846FFF757FA33682060002BCDD0C4F8D0
:109C400000A0EDE7324601212846FFF74BFA2060DD
:109C50000028B8D13368002B40F0858032460121BE
:109C60002846FFF73FFA20600028ACD13368002B6C
:109C700073D1284607F27E51FFF74DF92060002886
:109C8000A1D1B7F87E15B1F5966F62D8284607F1D5
:109C9000CE02FFF7B4F92060002894D132460121AA
:109CA0002846FFF71FFA33682060002B58D14FF089
:109CB000870988E7324601212846FFF713FA20601A
:109CC0000028F4D1D6F80080B8F1000F4BD1284617
:109CD00007F5B061FFF744FE4FF08809206072E796
:109CE000324601212846FFF7FDF9206000287FF465
:109CF0006AAF3368002B36D1324601212846FFF780
:109D0000F1F9206000287FF45EAF33682BBB284652
:109D100007F6B811FFF7FFF8206000287FF453AF73
:109D2000B7F8B819B1F5807F13D8284607F6B802FE
:109D3000FFF765F9206000287FF445AF3246012126
:109D40002846FFF7CFF9336820604BB94FF004097C
:109D500039E76FF06603236035E76FF08403FAE7B5
:109D6000C4F800A02DE76FF06D03236029E73246A9
:109D700001212846FFF7B6F920600028E6D13368B4
:109D80002BB16FF06D03E6E76FF06B03E3E74FF085
:109D900001084FF0050916E7C41900200CFEFFFF6B
:109DA000C01900202DE9F74F06460846884613F0F3
:109DB00015FDA94DA94C01213046A74AFFF792F99C
:109DC000206000283AD12B68002B54D12A4601216B
:109DD0003046FFF787F9206080BB2B688BBB30468D
:109DE00008F59661FFF797F8206038BBB8F8B01413
:109DF000B1F5966F1CD96FF0660323601EE0B9F1D0
:109E0000790FD8D0B9F17A0F38D0B9F1040F40F0FA
:109E10001F812A4601213046FFF764F9206018BBF4
:109E20002B68002B36D14FF0010A4FF005091BE0DB
:109E300042463046FFF7E3F8206028B14FF0790939
:109E40000EE06FF08403D8E72A4601213046FFF781
:109E500049F92B6820600BB1814BCEE74FF07A09AE
:109E60004FF0000A08F5805720685AEA000AC6D069
:109E700003B0BDE8F08F6FF06D03BEE72A46022104
:109E80003046FFF72FF920600028EDD12B682BB169
:109E9000012BC8D06FF06D032360E5E708F2B249EB
:109EA000484613F096FE2A4601213046FFF71AF97C
:109EB000206098BB2B68002B53D1B7F82C3C042BA7
:109EC00037D82A4601213046FFF70CF9206028BB1D
:109ED0002B6853BB40F2B24AB7F82C1C30460AFB41
:109EE000019101F59661FFF716F8206078B9B7F88F
:109EF0002C2C0AFB02F208EB0203B3F86219B1F54D
:109F0000966F0ED830464A44FFF779F82060B7F8CC
:109F10002C3C0133A7F82C3C23686BB14FF4907BA9
:109F200024E06FF066032360F1E76FF084032360A1
:109F3000F4E76FF06303FAE72A4601213046FFF7A2
:109F4000D1F82B6820607BB1454B236097F82E3CFD
:109F50004FF0000A43F001034FF0040987F82E3C4C
:109F600082E76FF06D03F0E740F2211B4FF0000A2B
:109F700023685AEA030AE9D1BBF5907F93D040F2F7
:109F800021139B4502D06FF06B0358E02A46022153
:109F90003046FFF7A7F820600028E9D12B6823B1ED
:109FA000012B51D06FF06D0349E0B7F82C3C042B26
:109FB00047D82A4601213046FFF794F82060002850
:109FC000D6D12B68002B38D140F2B243B7F82C1C05
:109FD000304603FB019101F59661FEF79CFF20607E
:109FE00090B940F2B243B7F82C2C03FB0283B3F8CC
:109FF0006219B1F5966F1CD840F2B243304603FBAC
:10A000000292FEF7FCFF2060B7F82C3C0133A7F862
:10A010002C3C2368002BABD12A460121304601930A
:10A02000FFF760F82A682060002AA1D00C4A22605D
:10A030009CE76FF066032360E6E76FF0840323601C
:10A0400096E76FF06303FAE79A464FF0050B8FE748
:10A050006FF06B0320E700BFC4190020C019002077
:10A060000CFEFFFF2DE9F84F064608460F4613F099
:10A0700089FDB44DB44C01213046B24AFFF732F8A5
:10A080002060002849D12B68002B43D1304607F1CE
:10A09000C801FEF740FF206068B9B7F8C810012971
:10A0A00034D9023989B232233A463046A7F8C8106B
:10A0B000FEF766FF20604FF489794FF0000807F53E
:10A0C000F75A0AF1040A206858EA000801D0BDE8EE
:10A0D000F88FB9F1040F00F042816FF488734B449C
:10A0E000052B00F24981052B00F2468101A252F8AE
:10A0F00023F000BF77A0000821A1000881A100087B
:10A10000AFA1000835A20008B9A200086FF09F03B4
:10A110002360D0E76FF06D03236040F21119CCE7A4
:10A120002A4601213046FEF7DDFF20600028CAD113
:10A130002B68002B40F00E812A4601213046FEF7A5
:10A14000D1FF20600028BED12B68002B6FD17F4A41
:10A1500005213046FEF7C6FF7C4A8346136820601F
:10A1600087F8CC300028AED12A4601213046FEF7D0
:10A17000B9FF2B682060002B55D140F21319A2E7DC
:10A180002A4601213046FEF7ADFF20600028F4D1B9
:10A19000D5F80080B8F1000F40F0DC80304607F1C0
:10A1A000D001FFF7FFFD4FF48A7920608BE72A4644
:10A1B00001213046FEF796FF2060002883D12B68EE
:10A1C000002B40F0C7802A4601213046FEF78AFF67
:10A1D000206000287FF477AF2B6843BB304607F53B
:10A1E000EC51FEF798FE206000287FF46CAF07F575
:10A1F0008053B3F8801D802903D96FF06603236074
:10A2000061E7304607F5E852FEF7F9FE8346206025
:10A2100000287FF458AF2A4601213046FEF762FF3E
:10A220002B68206093B34A4BD84623604BE76FF00E
:10A230008403E4E72A4601213046FEF753FF2060FD
:10A2400020BB2B68002B40F085802A460121304638
:10A25000FEF748FF2060C8B92B68F3B907F5F45141
:10A2600030460231FEF757FE206078B907F580537B
:10A27000B3F8821EB1F5807F0BD807F5EC5230465B
:10A280000232FEF7BCFE8346206048B140F2151949
:10A2900019E76FF066032360F8E76FF08403FAE7CD
:10A2A0002A4601213046FEF71DFF2B682060002B57
:10A2B000B9D14FF48B7906E72A4601213046FEF7E3
:10A2C00011FF20600028F4D12B68002B42D12A46D0
:10A2D00001213046FEF706FF20600028E9D12B68F7
:10A2E00063BB51463046FEF716FE20600028E0D1E1
:10A2F00007F58053B3F8E41E01291BD9023989B24E
:10A3000007F5F452A3F8E41E304618230432FEF792
:10A3100037FE834620600028CBD12A4601213046F3
:10A32000FEF7E0FE2B682060002B7FF47CAF4FF03F
:10A330000409C8E66FF09F032360BAE76FF0840357
:10A34000FAE700BFC4190020C0190020C819002076
:10A350000CFEFFFF6FF06D0380462360B3E62A46D4
:10A3600001213046FEF7BEFE20600028DFD12B68B9
:10A370002BB16FF06D0342E76FF06B033FE74FF0D7
:10A3800001084FF005099EE62DE9F84F05460846FD
:10A390000F4613F04EFB934E934C02212846914AF0
:10A3A000FEF7A0FE206030B933680BB3012B4CD010
:10A3B0006FF06D0323604FF0DC0836E0B8F1880FD2
:10A3C00000F0B8800ADCB8F1040F00F0F980B8F1B1
:10A3D000870F00F09A806FF06B0394E0B8F1DD0F07
:10A3E0003CD0B8F1DE0F4ED0B8F1DC0FF3D1D4E79A
:10A3F000284607F1C801FEF78EFD206068B9B7F85E
:10A40000C81001291DD9023989B232233A4628469B
:10A41000A7F8C810FEF7B4FD20604FF0DD0897F8EC
:10A42000CC3043F0010387F8CC304FF0000907F53A
:10A43000065A0AF11C0A206859EA0009BED0BDE894
:10A44000F88F6FF09F032360E7E7284607F1D001FC
:10A45000FFF7A8FC4FF0DE082060E6E73246012156
:10A460002846FEF73FFE20600028E4D13368002B29
:10A4700040F0B080284607F1D001FFF793FC4FF081
:10A48000DE082060D7E7324601212846FEF72AFE83
:10A4900020600028CFD13368002B40F09B803246EB
:10A4A00001212846FEF71EFE20600028C3D1336834
:10A4B000002B7DD1284607F5EB51FEF72CFD2060DF
:10A4C0000028B8D107F58053B3F8601D012918D9C9
:10A4D000023989B2A3F8601D2846182307F5E8520F
:10A4E000FEF74EFD20600028A5D132460121284606
:10A4F000FEF7F8FD33682060002B5CD14FF0870831
:10A5000099E76FF09F03236095E7324601212846C3
:10A51000FEF7E8FD20600028F0D13368002B59D108
:10A5200007F5EB5128460431FFF71AFA4FF0880877
:10A53000206080E7324601212846FEF7D3FD2060E7
:10A5400000287FF478AF3368002B43D132460121D5
:10A550002846FEF7C7FD206000287FF46CAF336803
:10A5600033BB51462846FEF7D6FC206000287FF416
:10A5700062AF07F50053B3F89C11B1F5807F02D9A3
:10A580006FF06603BFE707F5025228461C32FEF75C
:10A5900036FD206000287FF44EAF32460121284668
:10A5A000FEF7A0FD336820602BB94FF0040842E7A6
:10A5B0006FF08403A7E70D4B4FF0000923603AE7E3
:10A5C000324601212846FEF78DFD20600028ECD19F
:10A5D000336813B16FF06D0395E74FF001094FF049
:10A5E000050828E7C4190020C01900200CFEFFFF51
:10A5F0002DE9F84F06460846884613F097F8AE4D09
:10A60000AE4C01213046AC4AFEF76CFD20600028BC
:10A6100047D12B68002B41D1304608F1C801FEF725
:10A620007AFC206068B9B8F8C810012932D902391B
:10A6300089B2322342463046A8F8C810FEF7A0FC83
:10A6400020604FF06609002708F5F75A0AF1080A5A
:10A650002068074301D0BDE8F88FB9F1040F00F07E
:10A660006181A9F16503062B00F26981062B00F2D6
:10A67000668101A252F823F003A60008A9A60008EB
:10A6800007A7000831A70008B1A7000833A80008F1
:10A69000C9A800086FF09F032360D2E76FF06D0335
:10A6A00023604FF06509CEE72A4601213046FEF7C8
:10A6B00019FD20600028CBD12B68002B40F02F81A2
:10A6C0002A4601213046FEF70DFD20600028BFD14B
:10A6D0002B68002B69D17A4A05213046FEF702FD2E
:10A6E000774A2060136888F8CC300028B0D12A4619
:10A6F00001213046FEF7F6FC2B682060002B52D17A
:10A700004FF06709A4E72A4601213046FEF7EAFC2C
:10A7100020600028F4D12F68002F40F000813046DF
:10A7200008F1D001FFF73EFB4FF0680920608FE78A
:10A730002A4601213046FEF7D5FC2060002887D14B
:10A740002B68002B40F0EB802A4601213046FEF7B3
:10A75000C9FC206000287FF47BAF2B682BBB304600
:10A7600008F5EC51FEF7D7FB206000287FF470AFAE
:10A7700008F58053B3F8801D802903D96FF0660374
:10A78000236065E7304608F5E852FEF738FC2060A4
:10A7900000287FF45DAF2A4601213046FEF7A2FC77
:10A7A0002B6820607BB3474B83E06FF08403E7E7BF
:10A7B0002A4601213046FEF795FC206018BB2B6825
:10A7C000002B40F0AC802A4601213046FEF78AFC7F
:10A7D0002060C0B92B68EBB908F5F451304602315E
:10A7E000FEF799FB206070B908F58053B3F8821E1C
:10A7F000B1F5807F0AD808F5EC5230460232FEF7F8
:10A80000FEFB206048B14FF0690921E76FF0660355
:10A810002360F8E76FF08403FAE72A460121304607
:10A82000FEF760FC2B682060002BBCD14FF06A095A
:10A830000EE72A4601213046FEF754FC206000282E
:10A84000F4D12B68002B6AD12A4601213046FEF74D
:10A8500049FC206070BB2B68002B5DD108F5F751D7
:10A8600030460431FEF757FB206018BB08F58053D3
:10A87000B3F8E41E01291AD9023989B208F5F45255
:10A88000A3F8E41E304618230432FEF779FB20605B
:10A890000028CBD12A4601213046FEF723FC2B6845
:10A8A0002060002B7FF47FAF4FF06B09D0E66FF094
:10A8B0009F0323600027CBE6C4190020C0190020A5
:10A8C000C81900200CFEFFFF2A4601213046FEF782
:10A8D00009FC20600028E7D12B6803BB2A46012130
:10A8E0003046FEF7FFFB20600028E3D12B689BB9C0
:10A8F00051463046FEF7A6FB20600028D4D12A46F8
:10A9000001213046FEF7EEFB2B682060002B7FF420
:10A910004AAF4FF004099BE66FF08403C9E76FF07C
:10A920006D03C6E72A4601213046FEF7DBFB2060B7
:10A930000028EED12B682BB16FF06D0320E76FF08C
:10A940006B031DE701274FF0050981E670B5054649
:10A95000084612F083FF134C134E0121324628465D
:10A96000FEF7C0FB03462060A0B93268A2B16FF0C9
:10A970006D022260402100222068034302D002B110
:10A98000206070BD40296FF06B0008D1002AE3D031
:10A990002360E1E70023EDE701230521EBE7012236
:10A9A000EBE700BFC0190020C41900202DE9F84FC3
:10A9B000064608460F4613F0F3F8A64DDFF898A2B6
:10A9C00001213046A34AFEF78DFBA44C206008BB52
:10A9D0002B68002B53D12A4601213046FEF782FB1B
:10A9E0002060B8B92B68BBBB304607F18001FEF789
:10A9F00092FA206070B9B7F88010012928D902397D
:10AA000089B220233A463046A7F88010FEF7B8FAFC
:10AA1000206020B340F21B192EE0B9F1040F00F0C2
:10AA20009A816FF48D734B44042B00F2A281042BA6
:10AA300000F29F8101A252F823F000BFC1A90008D3
:10AA400085AA0008D5AB000861AC0008F9AC000885
:10AA50006FF09F032360DDE76FF08403FAE72A4677
:10AA600001213046FEF73EFB2B68206013B1C4F88D
:10AA700000A0CFE74FF48E794FF0000824E06FF08C
:10AA80006D03E7E72A4603213046FEF72BFB2060E3
:10AA9000D0B92B68042B00F23C81DFE813F00500ED
:10AAA0001B00510076006D01304607F18401FEF76E
:10AAB0004BFB4FF0000840F21D1997F88C302060D6
:10AAC00043F0010387F88C30206858EA0008A4D0CE
:10AAD000BDE8F88F2A4601213046FEF703FB2060CF
:10AAE0000028F1D12B683BBB304607F1AE01FEF7E1
:10AAF00012FA206050B9B7F8AE10202900F28C800D
:10AB0000304607F18E02FEF77AFA206097F8B030EF
:10AB100043F0010387F8B0302368002BD4D12A46D4
:10AB200001213046FEF7DEFA2B682060002B00F092
:10AB3000C180C4F800A09FE76FF084032360C3E7DF
:10AB40002A4601213046FEF7CDFA20600028BBD10D
:10AB50002B68002BF0D1304607F1B201FEF772FAF4
:10AB600097F8B430206043F0010387F8B430002830
:10AB7000AAD12A4601213046FEF7B4FA2B6820609C
:10AB8000002BD6D140F21F199EE72A4601213046FC
:10AB9000FEF7A8FA2060002896D12B68002BCBD1B5
:10ABA000304607F1B801FEF77CFA97F8C030206014
:10ABB00043F0010387F8C030002885D12A460121DF
:10ABC0003046FEF78FFA2B682060002BB1D14FF092
:10ABD000040979E72A4603213046FEF783FA20600C
:10ABE00000287FF471AF2B68032B00F29280DFE81E
:10ABF00003F0021724C32A4601213046FEF772FAF9
:10AC0000206000287FF438AF2B68002B3FF46CAF36
:10AC10006FF0840323602FE76FF06603236075E70E
:10AC20002A4601213046FEF75DFA206000287FF4B5
:10AC300023AF2B68002BEBD18DE72A46012130464C
:10AC4000FEF750FA206000287FF416AF2B68002B27
:10AC5000DED1A5E7C41900200CFEFFFFC0190020BB
:10AC60002A4602213046FEF73DFA206010BBD5F897
:10AC700000B0BBF1010F24D0BBF1020F7CD0BBF1BF
:10AC8000000F46D12A4601213046FEF72BFA2060FC
:10AC900080B92B688BB9304607F1B201FEF7D2F9C3
:10ACA00097F8B430206043F0010387F8B4300028EF
:10ACB0003FF45FAF4FF48F7906E76FF084032360B2
:10ACC000F8E72A4659463046FEF70CFA206000287D
:10ACD000F0D12B68002BF0D1304607F1B801FEF718
:10ACE000E0F997F8C030206043F0010387F8C030E6
:10ACF00000283FF463AFDDE72A4602213046FEF725
:10AD0000F1F9206000287FF43DAF2B6823B1012BBF
:10AD100032D06FF06D037DE72A4601213046FEF701
:10AD2000E1F9206000287FF42DAF2B687BB9304615
:10AD300007F1B801FEF7B5F997F8C030206043F08D
:10AD4000010387F8C03000283FF438AF1AE76FF0EE
:10AD50008403236016E72A4601213046FEF7C2F934
:10AD6000206000287FF433AF2B682BB16FF06D03A8
:10AD7000E4E66FF06B03E1E64FF001084FF00509E0
:10AD8000A2E600BF2DE9F74F06460846884612F0B6
:10AD900038FCA64DDFF898A201213046A34AFEF701
:10ADA000A1F9A44C2060B0B92B68002B47D12A46EA
:10ADB00001213046FEF796F9206060B92B685BBB35
:10ADC0009D4F05213A463046FEF78CF93B682060DE
:10ADD00088F8003020B34FF030092EE0B9F1040FAD
:10ADE00000F06581A9F13003062B00F26E81062B7D
:10ADF00000F26B8101A252F823F000BF99AD000868
:10AE000045AE0008C1AE00081BAF0008A3AF0008A4
:10AE10003DB0000885B000086FF084032360DAE7D6
:10AE20002A4601213046FEF75DF92B68206013B1F8
:10AE3000C4F800A0CFE74FF0310900272CE06FF0F5
:10AE40006D03EBE72A4601213046FEF74BF92060FF
:10AE500010BB2B68002B40F0B5802A4601213046FC
:10AE6000FEF740F92060B8B92B68DBB9304608F12D
:10AE70002201FEF750F8206070B9B8F8221020299E
:10AE800003D96FF06603236006E0304608F1020242
:10AE9000FEF7B5F8206040B1206807439ED003B0AC
:10AEA000BDE8F08F6FF08403EDE72A4601213046BC
:10AEB000FEF718F92B682060E3B1C4F800A0BCE7E6
:10AEC0002A4601213046FEF70DF9206090B92B6823
:10AED000002B77D12A4601213046FEF703F9206086
:10AEE00040B92B684BB9304608F12401FEF7AAF8A7
:10AEF000206030B14FF03209CEE76FF08403236059
:10AF0000F8E72A4601213046FEF7ECF82B6820606E
:10AF1000002BD2D14FF03309BEE72A46022130463A
:10AF2000FEF7E0F8834620600028F3D12B68012B60
:10AF30004BD0022B13D0002B44D1304608F128010E
:10AF40000193FEF701F998F83020019B42F00102CD
:10AF50001F464FF03409206088F830209CE72A46CD
:10AF600001213046FEF7BEF820600028D2D12B68C0
:10AF70009BB9304608F58271FEF757F8206000282B
:10AF8000C8D12A4601213046FEF7ACF82B68206074
:10AF9000002B92D14FF036097EE76FF084032360D7
:10AFA000B8E72A4602213046FEF79CF820600028C8
:10AFB0007FF472AFD5F800B0BBF1000F05D0BBF144
:10AFC000010F12D06FF06D035AE0304608F13801DE
:10AFD000FFF7ECFC98F800315F4643F001034FF0B7
:10AFE0003509206088F8003156E72A465946304630
:10AFF000FEF778F8206000287FF41FAF2B68002B45
:10B000003CD1304608F58271FEF70FF82060002829
:10B010007FF442AF2A46019059463046FEF762F867
:10B020002A682060002AB5D047E700BFC419002075
:10B030000CFEFFFFC0190020C81900202A4601217C
:10B040003046FEF74FF8206000287FF425AF2B68CC
:10B05000002BB7D12A4601213046FEF743F8206085
:10B0600000287FF4EAAE2B6843B9304608F58271B8
:10B07000FDF7DBFF2060002883D00DE76FF084032D
:10B080002360DAE62A4601213046FEF72BF82060DD
:10B0900000287FF47FAF2F68002F93D1304608F54A
:10B0A0008471FEF707FA4FF004092060F4E62A469F
:10B0B00001213046FEF716F8206000287FF4ECAE40
:10B0C0002B682BB16FF06D03DDE66FF06B03DAE6F2
:10B0D00001274FF00509DFE62DE9F84F064608463F
:10B0E0000D4612F0A6FADFF8E881DFF8E8A10221A8
:10B0F0003046774AFDF7F6FF774C07462060002878
:10B1000070D1D8F80010012945D002293BD0002980
:10B1100040F08180304605F1C801FDF7FCFE20605B
:10B1200068B9B5F8C810012931D9023989B232237A
:10B130002A463046A5F8C810FDF722FF20604FF0E0
:10B140003C0995F8CC3043F0010385F8CC302068F9
:10B15000074301D0BDE8F88FB9F13B0FC7D0B9F173
:10B160003C0F5CD0B9F1040F40F0AF8042460121A2
:10B170003046FDF7B7FF2060002840F09780D8F8F0
:10B180000030002B58D101274FF00509DFE76FF0A1
:10B190009F032360D3E742463046FDF7A3FF2060BC
:10B1A00000BBD8F800301BBB304605F5CC71FDF76D
:10B1B000B2FE206070B9B5F89811012914D902398E
:10B1C00089B232233046A5F8981105F1D002FDF777
:10B1D000D7FE206095F89C31276843F0010385F87D
:10B1E0009C314FB1002713E06FF09F032360F1E71C
:10B1F0006FF084032360F5E7424601213046FDF7F6
:10B2000071FFD8F800302060002B4FD0C4F800A0A8
:10B210004FF03B099BE76FF06D032360F8E7424670
:10B2200002213046FDF75EFF206000288FD1D8F85C
:10B23000003023B1012BA6D06FF06D033FE04246F2
:10B2400001213046FDF74EFF206000287FF47FAFDC
:10B25000D8F800308BBB304605F5CC71FDF75BFEAE
:10B26000206070B9B5F89811012922D9023989B244
:10B2700032233046A5F8981105F1D002FDF780FE83
:10B28000206095F89C31D4F800B043F0010385F8B4
:10B290009C31BBF1000F7FF45AAF4246012130468A
:10B2A000FDF720FFD8F80030206053B94FF00409B3
:10B2B0004DE76FF09F032360E3E76FF084032360A3
:10B2C00045E75F46C4F800A041E76FF06B03F6E77F
:10B2D000C41900200CFEFFFFC01900202DE9F84F13
:10B2E00006460846884612F042F9474DDFF81CA191
:10B2F00001213046444AFDF7F5FE454C2060B0B9C7
:10B300002B68002B43D12A4601213046FDF7EAFE87
:10B31000206060B92B6803BB3E4F05213A4630469A
:10B32000FDF7E0FE3B68206088F80030C8B11027C8
:10B3300023E0102FDCD0112F2CD0042F5CD12A4613
:10B3400001213046FDF7CEFE206000284BD12B684E
:10B35000002B54D06FF06D0349E06FF0840323603D
:10B36000E5E72A4601213046FDF7BCFE2B68206048
:10B3700013B1C4F800A0DAE711274FF00009DFF895
:10B3800094B0206859EA0009D3D0BDE8F88F6FF077
:10B390006D03E4E72A4601213046FDF7A3FE206055
:10B3A0000028EED12B68002BD4D12A46012130464B
:10B3B000FDF798FE20600028E3D12B68ABB901218E
:10B3C0003046144AFDF78EFEDBF80030206088F826
:10B3D00001300028D5D12A4601213046FDF782FEF2
:10B3E0002B6820602BB90427CBE76FF08403236020
:10B3F000C7E7C4F800A0C4E76FF06B03F7E74FF0AE
:10B4000001090527BDE700BFC41900200CFEFFFF9E
:10B41000C0190020C81900202DE9F84F064608463B
:10B42000884612F07DFB944DDFF850A20221304691
:10B43000914AFDF757FE924C2060002866D12F6894
:10B44000002F49D0012F73D06FF06D0363E0DB2F25
:10B4500000F0CF8008DC042F00F0FC80DA2F00F031
:10B460009C806FF06B0396E040F207139F42DDD0A3
:10B47000B7F5847FF5D12A4601213046FDF732FE2B
:10B48000206000287BD12B68002B40F0ED802A46FD
:10B4900001213046FDF726FE206000286FD12B6881
:10B4A000002B76D104213046764AFDF71BFEDBF8EF
:10B4B0000030206088F80230002860D12A4601213F
:10B4C0003046FDF70FFE2B682060002B7FD04FF039
:10B4D0000009C4F800A052E02A4601213046FDF7D9
:10B4E00001FE206090B92B689BB9664F02213A4655
:10B4F0003046FDF7F7FD3B68206088F8003098F88B
:10B50000013043F0010388F8013030B140F20717F1
:10B5100031E06FF084032360F8E72A4601213046CA
:10B52000FDF7E0FD2B68206083B3C4F800A0EDE7D1
:10B530002A4639463046FDF7D5FD20600028E5D182
:10B540002B68002BE5D1DFF83C9104214A463046B8
:10B55000FDF7C8FDD9F80030206088F802300028D7
:10B56000D4D12A4639463046FDF7BCFD2B68206011
:10B57000002BDAD1DA274FF00009DFF808B1206894
:10B5800059EA00093FF463AFBDE8F88F4FF48477C0
:10B59000F1E76FF084032360F1E72A46012130468A
:10B5A000FDF7A0FD206090B92B68002B5CD12A46E6
:10B5B00001213046FDF796FD206040B92B6843B964
:10B5C000304608F10401FDF7C0FC206028B1DA27FD
:10B5D000D5E76FF084032360F9E72A46012130465E
:10B5E000FDF780FD2B682060002B7FF470AFDB2718
:10B5F000C5E72A4601213046FDF774FD206000288A
:10B60000F5D12B6883BB2A4601213046FDF76AFD40
:10B6100020600028EBD12B68ABB902213046194AD3
:10B62000FDF760FDDBF80030206088F80830002866
:10B63000DDD12A4601213046FDF754FD2B682060FC
:10B640002BB904279BE76FF084032360CFE7C4F88E
:10B6500000A094E72A4601213046FDF743FD206013
:10B660000028EED12B6813B16FF06D0393E74FF014
:10B670000109052783E700BFC41900200CFEFFFF66
:10B68000C0190020C81900202DE9F84F06460846C9
:10B69000884612F010FA504DDFF840A101213046E3
:10B6A0004D4AFDF71FFD4E4C2060B0B92B68002BB2
:10B6B0004DD12A4601213046FDF714FD206060B9C6
:10B6C0002B6853BB474F05213A463046FDF70AFD2C
:10B6D0003B68206088F8003018B3F2272DE0112F66
:10B6E00038D004DC042F66D06FF06B035EE0F22FDD
:10B6F000D4D0F32FF8D12A4601213046FDF7F2FCD1
:10B700002060F0B92B68002B5FD1304608F10401AE
:10B71000FFF782FE1127206013E06FF0840323609F
:10B72000DBE72A4601213046FDF7DCFC2B68206070
:10B7300013B1C4F800A0D0E7F3274FF00009DFF8F9
:10B74000A4B0206859EA0009C9D0BDE8F88F6FF0AD
:10B750006D03E4E72A4601213046FDF7C3FC206073
:10B760000028EED12B6883BB2A4601213046FDF725
:10B77000B9FC20600028E4D12B68ABB90121304628
:10B78000184AFDF7AFFCDBF80030206088F8103075
:10B790000028D6D12A4601213046FDF7A3FC2B68AC
:10B7A00020602BB90427CCE76FF084032360C8E73F
:10B7B000C4F800A0C5E72A4601213046FDF792FCF7
:10B7C00020600028EED12B6813B16FF06D03EDE718
:10B7D0004FF001090527B4E7C41900200CFEFFFF54
:10B7E000C0190020C81900202DE9F84F0746084667
:10B7F000884611F0D6FEAC4EDFF8B0B201213846D3
:10B80000A94AFDF76FFCAA4C2060B0B93368002B41
:10B810004DD1324601213846FDF764FC206060B905
:10B8200033688BBBA34D05212A463846FDF75AFCE9
:10B830002B68206088F8003050B34FF01C0934E0CA
:10B84000B9F1040F00F08281A9F11C03092B00F269
:10B850008B81092B00F2888101A252F823F000BFEE
:10B86000FDB70008B5B80008E5B800080FB9000832
:10B8700039B9000893B90008EFB900084BBA0008BD
:10B88000D9BA000811BB00086FF084032360D4E725
:10B89000324601213846FDF725FC3368206013B19C
:10B8A000C4F800B0C9E74FF01D09002515E06FF09E
:10B8B0006D03EBE7324601213846FDF713FC2060AB
:10B8C00058B93568002D40F03081384608F1040140
:10B8D000FFF7A2FD4FF01E09206020680543AFD09E
:10B8E000BDE8F88F324601213846FDF7FBFB2060AA
:10B8F0000028F2D13568002D40F01781384608F154
:10B900001001FDF721FC4FF01F092060E5E73246EA
:10B9100001213846FDF7E6FB20600028DDD13568BF
:10B92000002D40F00281384608F11801FDF70CFCAB
:10B930004FF020092060D0E7324601213846FDF75C
:10B94000D1FB20600028C8D13368002B40F0ED8087
:10B95000324601213846FDF7C5FB20600028BCD1E6
:10B96000336893B9384608F12001FDF75EFB20608B
:10B970000028B2D1324601213846FDF7B3FB3368C7
:10B9800020600BB3C4F800B08FE76FF0840323602E
:10B99000A3E7324601213846FDF7A4FB206098B9A1
:10B9A0003368002B40F0C180324601213846FDF754
:10B9B00099FB206040B933684BB9384608F124013F
:10B9C000FDF733FB206030B14FF0210985E76FF0C0
:10B9D00084032360F8E7324601213846FDF782FBF5
:10B9E00033682060002BCDD14FF0220975E7324635
:10B9F00001213846FDF776FB20600028F4D133683A
:10BA0000002B40F09280324601213846FDF76AFB58
:10BA100020600028E8D133689BB9384608F1280136
:10BA2000FDF703FB20600028DED1324601213846B5
:10BA3000FDF758FB33682060002BA3D14FF023099A
:10BA40004BE76FF084032360CEE73246032138468C
:10BA5000FDF748FB20600028F0D13368032B64D841
:10BA6000DFE803F002122A85384608F12C01FDF7C1
:10BA70006BFB98F83430002543F001034FF02409A4
:10BA8000206088F8343028E7384608F13801FDF79F
:10BA90005BFB002598F84030206043F0010388F8F4
:10BAA00040304FF0250918E7C41900200CFEFFFFB5
:10BAB000C0190020C8190020384608F14401FDF7DC
:10BAC00043FB002598F84C30206043F0010388F8D0
:10BAD0004C304FF0040900E7324602213846FDF7AA
:10BAE00001FB206000287FF4F8AE3568012DE3D01B
:10BAF000022D3CD0CDB9384608F13801FDF724FBC2
:10BB000098F84030206043F0010388F84030C8E7DF
:10BB1000324602213846FDF7E5FA206000287FF41E
:10BB2000DCAE35682DB1012D21D06FF06D0323609F
:10BB3000BBE6384608F14401FDF706FB98F84C30A7
:10BB4000206043F0010388F84C30C2E732460121FF
:10BB50003846FDF7C7FA206000287FF4BEAE336890
:10BB60002BB16FF06D0312E76FF06B030FE7012548
:10BB70004FF00509B1E600BF2DE9F047064608463B
:10BB80000F4611F09BFDDFF86082984D0121304691
:10BB9000954AFDF7A7FA286098BBD8F800306BBB30
:10BBA00039463046FFF738FC4FF05309286000242F
:10BBB0002868044301D0BDE8F087B9F1040F00F014
:10BBC000FD80A9F15203082B00F20881082B00F236
:10BBD000058101A252F823F08DBB000809BC0008C2
:10BBE00031BC000883BC0008A9BC0008D5BC000813
:10BBF00001BD000851BD00087BBD00086FF06D035A
:10BC00002B604FF05209D2E7424601213046FDF742
:10BC100069FA28600028CBD1D8F80040B4B9304682
:10BC200007F10C01FDF790FA4FF054092860BFE7C7
:10BC3000424602213046FDF755FA82462860002828
:10BC4000B6D1D8F800402CB1012C10D06FF06D03A4
:10BC50002B60ACE7304607F11401FDF775FA3B7F26
:10BC60004FF0550943F0010328603B77A0E73046C9
:10BC700007F12001FDF768FA544628604FF0560995
:10BC800096E7424601213046FDF72CFA286000284D
:10BC90008ED1D8F80040002CD8D1304607F12001D1
:10BCA000FDF752FA2860E9E7424601213046FDF7E8
:10BCB00019FA286000287FF47BAFD8F80040002CE8
:10BCC000C4D1304607F12801FDF73EFA4FF057097D
:10BCD00028606DE7424601213046FDF703FA2860EF
:10BCE00000287FF465AFD8F80040002CAED1304674
:10BCF00007F13001FDF728FA4FF05809286057E79F
:10BD0000424602213046FDF7EDF9824628600028C0
:10BD10007FF44EAFD8F800405CB1012C96D130468C
:10BD200007F14401FDF710FA544628604FF05A0914
:10BD30003EE7304607F13801FDF706FA97F8403044
:10BD40004FF0590943F00103286087F840302FE78E
:10BD5000424601213046FDF7C5F9286000287FF4EE
:10BD600027AFD8F80040002C7FF470AF304607F1C1
:10BD70004401FDF7E9F92860D8E742460221304640
:10BD8000FDF7B0F9286000287FF412AFD8F8004022
:10BD90002CB1012C7FF45AAF4FF0050908E730466B
:10BDA00007F14C01FDF7D0F997F854304FF0040932
:10BDB00043F00103286087F85430F9E64246012138
:10BDC0003046FDF78FF9286000287FF4F1AED8F8EF
:10BDD000003033B16FF06D032B60E9E66FF06B0359
:10BDE000FAE70124D8E700BFC4190020C0190020D9
:10BDF0002DE9F74F064608460F4611F0DBFDA34D2F
:10BE0000DFF88CA201213046A04AFDF76BF9A14C66
:10BE1000206088B92B68002B46D12A460121304684
:10BE2000FDF760F9206038B92B680BBB3946304606
:10BE3000FDF7FBF82060F8B14FF0C10929E0B9F136
:10BE4000040F00F06081A9F1C103042B00F26881A6
:10BE5000042B00F2658101A252F823F005BE000810
:10BE6000AFBE0008A7BF00082DC000089DC0000895
:10BE70006FF084032360DFE72A4601213046FDF797
:10BE800031F92B68206013B1C4F800A0D4E74FF05B
:10BE9000C2094FF00008DFF800B2206858EA000835
:10BEA000CDD003B0BDE8F08F6FF06D03E2E72A4616
:10BEB00002213046FDF716F920600028EDD12B68ED
:10BEC000012B2AD0022B4CD0002B77D12A460121FE
:10BED0003046FDF707F920600028DED12B68C3B992
:10BEE0003046391DFDF7A1F83B7A206043F001038D
:10BEF0003B720028D1D12A4601213046FDF7F2F8E5
:10BF00002B682060002B72D0C4F800A04FF000080E
:10BF1000C3E76FF084032360BFE72A461946304623
:10BF20000193FDF7DFF820600028B6D12A68002AC7
:10BF3000EFD1304607F10C01FDF777F83A7C20602D
:10BF400042F001023A740028A7D12A460121304666
:10BF5000FDF7C8F82B682060002BD5D14FF0C4093D
:10BF60009BE72A4601213046FDF7BCF820600028F7
:10BF700093D12B68002BCCD104213046464AFDF7E3
:10BF8000B1F8DBF8003020607B74002885D12A46A8
:10BF900001213046FDF7A6F82B682060002BB3D1B5
:10BFA0004FF0C50979E72A4602213046FDF79AF895
:10BFB0002060E0B92B682BB1012B1FD06FF06D030F
:10BFC0002360A3E72A4601213046FDF78BF8206065
:10BFD00068B92B6873B9304607F10C01FDF725F8F5
:10BFE0003B7C206043F001033B740028ADD04FF050
:10BFF000C30952E76FF084032360F8E72A46194625
:10C0000030460193FDF76EF820600028EFD12A68D2
:10C01000002AEFD1204A04213046FDF763F8DBF80F
:10C02000002020607A740028B1D0E0E72A46012180
:10C030003046FDF757F8206000288FD12B68002B81
:10C04000BCD12A4601213046FDF74CF8206000287B
:10C0500084D12B68B3B9104A04213046FDF742F869
:10C06000DBF8002020607A7400287FF477AF2A463E
:10C07000019001213046FDF735F82A682060002A3A
:10C080008ED041E76FF08403236067E7C419002076
:10C090000CFEFFFFC0190020C81900202A4601210C
:10C0A0003046FDF71FF8206000287FF479AF2B6839
:10C0B000002B83D12A4601213046FDF713F820607A
:10C0C00000287FF46DAF2B68CBB9194A07213046A1
:10C0D000FDF708F8DBF800202060BA7400287FF430
:10C0E0005FAF2A46019001213046FCF7FBFF2A682A
:10C0F0002060002A7FF408AF4FF00409CDE66FF00E
:10C10000840323604CE72A4601213046FCF7EAFF0E
:10C1100020600028F0D12B682BB16FF06D03FAE698
:10C120006FF06B03F7E64FF001084FF00509B4E636
:10C13000C81900202DE9F84306460846884611F044
:10C140008BFADFF86C901B4C01213046184AFCF743
:10C15000C9FF2060C0B9D9F8003093B941463046D4
:10C16000FFF746FE0425206000272068074301D022
:10C17000BDE8F883042D09D0372DE5D06FF06B03AF
:10C1800011E06FF06D0323603725EDE74A4601218A
:10C190003046FCF7A7FF20600028E6D1D9F8003030
:10C1A0001BB16FF06D032360DFE701270525DCE796
:10C1B000C4190020C01900202DE9F84F0646084692
:10C1C0000F4611F079FBB44DB44C01213046B24A10
:10C1D000FCF788FF2060002839D12B68A3BB3946C3
:10C1E0003046FFF705FE4FF0940920604FF000083D
:10C1F000DFF8ACB2206858EA000801D0BDE8F88F3B
:10C20000B9F1040F00F0C281A9F19303092B00F2E8
:10C21000CB81092B00F2C88101A252F823F000BFA4
:10C22000CBC1000855C2000883C2000861C30008E2
:10C23000A3C3000803C4000853C40008A5C4000831
:10C240000DC5000861C500086FF06D0323604FF055
:10C250009309CBE72A4601213046FCF743FF2060D3
:10C260000028C7D1D5F80080B8F1000F40F0DA807F
:10C27000304607F11401FCF767FF4FF09509206085
:10C28000B8E72A4603213046FCF72CFF206000283F
:10C29000B0D12B68042B00F2C580DFE803F00371F6
:10C2A00096144000304607F11C01FCF74DFF97F84B
:10C2B00024304FF0000843F001034FF0960920604E
:10C2C00087F8243096E72A4601213046FCF70AFF1A
:10C2D000206000288ED12B68EBB9304607F1400171
:10C2E000FCF7A3FE97F84430206043F0010387F881
:10C2F000443000287FF47EAF2A4601213046FCF707
:10C30000F1FE2B682060002B00F0BF80C4F800B065
:10C310004FF000086EE76FF0840323606AE72A4657
:10C3200001213046FCF7DEFE206000287FF462AF7A
:10C330002B68002BEFD1304607F14801FCF775FE62
:10C34000206000287FF456AF2A4601213046FCF7D2
:10C35000C9FE2B682060002BD8D14FF09A0949E71D
:10C360002A4603213046FCF7BDFE206000287FF4FA
:10C3700041AF2B68032B55D8DFE803F0022757386D
:10C38000304607F12801FCF7DFFE97F830304FF018
:10C39000000843F001034FF09709206087F8303020
:10C3A00028E72A4602213046FCF79CFE2060002840
:10C3B0007FF420AFD5F800A0BAF1010F35D0BAF163
:10C3C000020F13D0BAF1000F2CD1304607F134011F
:10C3D000FCF7BAFE97F83C304FF0000843F0010339
:10C3E0004FF09809206087F83C3003E72A46012186
:10C3F0003046FCF777FE2060002889D12B680BBB04
:10C4000099E72A4602213046FCF76CFE206000289E
:10C410007FF4F0AED5F800A0BAF1000F05D0BAF164
:10C42000010F13D06FF06D030EE02A460121304654
:10C43000FCF758FE206000287FF46AAF2B68002BC1
:10C440003FF44BAF6FF08403236061E72A46514607
:10C45000CEE72A4601213046FCF744FE2060A0B911
:10C460002B68002BDED12A4601213046FCF73AFE2C
:10C47000206050B92B685BB9304607F14801FCF7E2
:10C48000D4FD206000283FF45FAF4FF09909B1E67A
:10C490006FF084032360F8E7C4190020C01900205E
:10C4A0000CFEFFFF2A4602213046FCF71BFE8246A7
:10C4B000206000287FF451AFD5F80080B8F1010F5B
:10C4C00014D0B8F1020F34D0B8F1000FAAD1304621
:10C4D00007F14C01FCF738FE97F854304FF09B09F8
:10C4E00043F00103206087F8543083E6304607F1BB
:10C4F0005801FCF729FED04697F86030206043F0E1
:10C50000010387F860304FF09C0973E62A46022148
:10C510003046FCF7E7FD8246206000287FF46AAED3
:10C52000D5F80080B8F1000F0DD0B8F1010F7FF4FD
:10C5300079AF304607F16401FCF706FED046206073
:10C540004FF0040956E6304607F15801FCF7FCFDB0
:10C5500097F86030206043F0010387F86030D2E73D
:10C560002A4601213046FCF7BDFD206000287FF4FB
:10C5700041AED5F80080B8F1000F7FF453AF3046DC
:10C5800007F16401FCF7E0FD2060D9E72A460121AC
:10C590003046FCF7A7FD206000287FF42BAE2B6807
:10C5A0002BB16FF06D03B8E66FF06B03B5E64FF09B
:10C5B00001084FF005091DE62DE9F74F064608462C
:10C5C0000F4611F04AF8B84DB84C01213046B64A32
:10C5D000FCF788FD2060002837D12B6893BB3946D3
:10C5E0003046FFF705FC4FF0420920604FF000088D
:10C5F000DFF8BCA2DFF8BCB2206858EA000802D01D
:10C6000003B0BDE8F08FB9F1040F00F0AE81A9F1DD
:10C610004103072B00F2B781072B00F2B48101A27E
:10C6200052F823F0CBC5000851C600087FC60008A9
:10C63000E1C600080BC7000809C800086BC800085D
:10C64000F5C800086FF06D0323604FF04109CDE796
:10C650002A4601213046FCF745FD20600028CBD159
:10C66000D5F80080B8F1000F40F04F81304607F157
:10C670001401FCF769FD4FF043092060BCE72A462E
:10C6800002213046FCF72EFD20600028B4D1D5F8F9
:10C690000080B8F1000F08D0B8F1010F14D06FF08E
:10C6A0006D0222604FF00008A6E7304607F11C013A
:10C6B000FCF74AFD97F824304FF0440943F001039A
:10C6C000206087F8243097E7019007F12801304671
:10C6D000FCF73AFD019B206098464FF045098BE737
:10C6E0002A4601213046FCF7FDFC2060002883D15A
:10C6F000D5F80080B8F1000F40F00781304607F10F
:10C700002801FCF721FD2060E7E72A460321304697
:10C71000FCF7E8FC206000287FF46EAF2B68042B48
:10C7200000F2F380DFE813F00500800016004500FA
:10C730003201304607F13001FCF706FD97F838303A
:10C740004FF0000843F001034FF04609206087F8DE
:10C75000383051E72A4601213046FCF7C3FC2060FF
:10C7600000287FF449AF2B68FBB907213046504AB7
:10C77000FCF7B8FCDAF80030206087F8453097F80D
:10C78000463043F0010387F8463000287FF434AF89
:10C790002A4601213046FCF7A5FC2B682060002BBF
:10C7A00000F0D080C4F800B07CE76FF08403236011
:10C7B00022E72A4601213046FCF794FC206000283D
:10C7C0007FF41AAF2B68002BEFD107213046384A8F
:10C7D000FCF788FCDAF80030206087F8473097F8DB
:10C7E000483043F0010387F8483000287FF404AF55
:10C7F0002A4601213046FCF775FC2B682060002B8F
:10C80000D0D14FF00409F7E62A4603213046FCF761
:10C8100069FC206000287FF4EFAE2B68032B74D8EE
:10C82000DFE803F0023413B4304607F13C01FCF7B3
:10C830008BFC97F844304FF0000843F001034FF0B1
:10C840004709206087F84430D6E62A460121304661
:10C85000FCF748FC206000287FF424AF2B68002BF5
:10C86000B3D06FF0840323601CE72A4602213046D0
:10C87000FCF738FC206000287FF4BEAE2B68012B4B
:10C880001AD0022B00F08280002B3ED12A460121D3
:10C890003046FCF727FC206000287FF403AF2B68AC
:10C8A000002BDED161E700BFC4190020C0190020B1
:10C8B000C81900200CFEFFFF2A4619463046019396
:10C8C000FCF710FC206000287FF4ECAE2A68002AF8
:10C8D000C7D1314A07213046FCF704FCDAF80020C2
:10C8E000206087F8472097F8482042F0010287F837
:10C8F00048207AE72A4602213046FCF7F3FB206005
:10C9000000BB2B6823B1012B40D06FF06D03AAE769
:10C910002A4601213046FCF7E5FB206090B92B68E0
:10C920009BB91D4A07213046FCF7DCFBDAF80020F2
:10C93000206087F8472097F8482042F0010287F8E6
:10C94000482030B14FF0480956E66FF08403236069
:10C95000F8E72A46019001213046FCF7C3FB2A681C
:10C960002060002A3FF44DAF1CE72A4601213046E3
:10C97000FCF7B8FB206000287FF443AF2B682BB195
:10C980006FF06D0313E76FF06B0310E74FF00108D2
:10C990004FF0050930E600BFC81900202DE9F84F17
:10C9A00006460846884610F051FE614D614C012153
:10C9B00030465F4AFCF796FB206000BB2B68DBB972
:10C9C00041463046FFF714FA3E2720604FF0000939
:10C9D000DFF864A1206859EA000901D0BDE8F88FAA
:10C9E0003E2F0ED03F2F67D0042F00F091803D2FB7
:10C9F000DDD06FF06B033FE06FF06D0323603D27E8
:10CA0000E4E72A4602213046FCF76CFB2060002850
:10CA1000E0D1D5F800B0BBF1000F05D0BBF1010F9C
:10CA20002CD06FF06D0327E02A4601213046FCF739
:10CA300059FB20600028CDD12B68DBB9304608F1C6
:10CA40001401FCF7F2FA98F81830206043F0010363
:10CA500088F818300028BDD12A4601213046FCF75D
:10CA600041FB2B682060002B40D04FF00009C4F838
:10CA700000A0AFE76FF084032360ABE72A46594676
:10CA80003046FCF72FFB20600028A3D12B68002B39
:10CA9000F0D1304608F11C01FCF7C7FA20600028ED
:10CAA00098D12A4659463046FCF71CFB2B6820607B
:10CAB000002BDAD104278DE72A4601213046FCF706
:10CAC00011FB206090B92B68002BAAD12A460121C6
:10CAD0003046FCF707FB206040B92B6843B930466D
:10CAE00008F11C01FCF7A1FA206028B13F2771E78B
:10CAF0006FF084032360F9E72A4601213046FCF7F2
:10CB0000F1FA2B682060002BD4D0C4F800A061E7B4
:10CB10002A4601213046FCF7E5FA20600028C9D1F9
:10CB20002B68002B7FF47DAF4FF00109052751E7FB
:10CB3000C4190020C01900200CFEFFFF2DE9F84F9A
:10CB4000064608460F4610F0CBFDAF4DDFF8BCA2FD
:10CB500002213046AC4AFCF7C5FAAD4C206048BB18
:10CB6000296801295CD0022900F08F80002940F05B
:10CB7000C1802A4601213046FCF7B4FA2060C8B9CA
:10CB80002B68002B3CD1304607F5AF71FCF7C3F999
:10CB9000206038B9B7F85E11B1F5AF7F2AD96FF0D0
:10CBA0006603236097F8603143F0010387F8603132
:10CBB00023684BB34FF05E0993E0B9F1040F00F026
:10CBC000A882A9F15E03062B00F2B282062B00F2C6
:10CBD000AF8201A252F823F051CB0008FBCC000831
:10CBE00093CE0008FDCE00088FCD000803D00008CA
:10CBF00083D000083A463046FCF701FA2060D1E7BE
:10CC00006FF084032360D5E72A4601213046FCF704
:10CC100069FA2B682060002B69D0C4F800A0C9E72E
:10CC20002A463046FCF75EFA20600028C2D12B6805
:10CC3000002BE5D1304607F22241FCF76CF9206069
:10CC400050B9B7F82214B1F5AF7F1AD8304607F5BE
:10CC50003172FCF7D4F9206097F8243443F00103D3
:10CC600087F824342368002BA4D12A4601213046BA
:10CC7000FCF738FA2B682060002BCED14FF060090A
:10CC80002FE06FF066032360E6E72A460121304675
:10CC9000FCF728FA206000288CD12B68002BAFD13C
:10CCA000304607F28451FCF736F92060002881D124
:10CCB000B7F88415B1F5AF7F16D8304607F2264293
:10CCC000FCF79DF9206000287FF474AF2A4601210B
:10CCD0003046FCF707FA2B682060002B9DD14FF0FF
:10CCE00061094FF0000838E06FF066038AE74FF003
:10CCF0005F09F6E76FF06D0384E72A4601213046AD
:10CD0000FCF7F0F9206040BB2B68002B4ED12A467F
:10CD100001213046FCF7E6F92060F0B92B683BBBF7
:10CD2000304607F53071FCF7F6F8206050B9B7F8D7
:10CD3000C012B1F5AF7F17D8304607F5B172FCF7D6
:10CD40005EF9206097F8C232D4F800B043F00103D6
:10CD500087F8C232BBF1000F0ED0206858EA0008F5
:10CD60003FF42BAFBDE8F88F6FF066032360E9E76F
:10CD70006FF084032360F0E72A4601213046FCF778
:10CD8000B1F92B682060BBB3C4F800A0A9E72A461C
:10CD900002213046FCF7A6F9206068BBD5F800B048
:10CDA000BBF1000F05D0BBF1010F43D06FF06D0355
:10CDB000A2E02A4601213046FCF794F92060D8B958
:10CDC0002B683BBB304607F22241FCF7A4F82060F9
:10CDD00050B9B7F82214B1F5AF7F10D8304607F537
:10CDE0003172FCF70CF9206097F8243443F001030A
:10CDF00087F8243423688BB14FF06209ADE76FF0F8
:10CE000066032360F0E700BFC41900200CFEFFFF9B
:10CE1000C01900206FF084032360EDE72A4601214A
:10CE20003046FCF75FF92B682060002BACD14FF047
:10CE3000600992E72A4659463046FCF753F92060CC
:10CE40000028D9D12B68002BE4D1304607F2845159
:10CE5000FCF761F820600028CED1B7F88415B1F551
:10CE6000AF7F13D8304607F22642FCF7C8F820609F
:10CE70000028C1D12A4659463046FCF733F92B68C1
:10CE80002060002B80D14FF0610966E76FF06603E8
:10CE9000C2E72A4601213046FCF724F92060002829
:10CEA000C5D12B68002B81D12A4601213046FCF7E1
:10CEB00019F9206000287FF414AF2B68002B40F094
:10CEC0002581304607F28451FCF725F820600028C0
:10CED0007FF407AFB7F88415B1F5AF7F0AD83046B5
:10CEE00007F22642FCF78BF8206000289FD12A46E3
:10CEF0000121C1E76FF066032360F2E62A460221B2
:10CF00003046FCF7EFF820600028BCD129680129E1
:10CF10003ED0022900F0828000297FF447AF2A46E4
:10CF200001213046FCF7DEF8206000287FF4D9AEFE
:10CF30002B68002B40F0EA80304607F2E461FBF7F3
:10CF4000EAFF206050B9B7F8E416B1F5AF7F1BD8FF
:10CF5000304607F28652FCF752F8206097F8E63622
:10CF600043F0010387F8E6362368002B8BD12A466D
:10CF700001213046FCF7B6F82B682060002B7FF4C7
:10CF800003AF4FF06309E8E66FF066032360E5E75F
:10CF90002A463046FCF7A6F8206000287FF4A1AEB0
:10CFA0002B68002B40F0B280304607F64601FBF7B5
:10CFB000B2FF206050B9B7F84618B1F5AF7F1CD862
:10CFC000304607F5DD62FCF71AF8206097F848381C
:10CFD00043F0010387F848382368002B7FF453AFF0
:10CFE0002A4601213046FCF77DF82B682060002B93
:10CFF0007FF4CAAE4FF06409AFE66FF066032360BA
:10D00000E4E72A4602213046FCF76CF8206000284D
:10D01000B7D12B683BB1012B7FF4C8AE4FF00108AC
:10D020004FF0050999E62A4601213046FCF75AF8E7
:10D03000206000287FF455AE2B68002B66D1304667
:10D0400007F64601FBF767FF206050B9B7F84618AE
:10D05000B1F5AF7F11D8304607F5DD62FBF7CFFFA2
:10D06000206097F84838D4F800B043F0010387F8FF
:10D070004838BBF1000FB3D083E76FF0660323603D
:10D08000EFE72A4601213046FCF72CF82060002803
:10D09000B0D12B68002B7FF489AE2A46012130469F
:10D0A000FCF720F8206000287FF41BAE2B686BBBD8
:10D0B000304607F6A811FBF72EFF206050B9B7F8ED
:10D0C000A819B1F5AF7F1DD8304607F64A02FBF725
:10D0D00096FF206097F8AA39D4F800B043F0010316
:10D0E00087F8AA39BBF1000F84D12A4601213046C6
:10D0F000FBF7F8FF2B682060002B7FF445AE4FF064
:10D1000004092AE66FF066032360E3E76FF0840307
:10D11000F2E62A4601213046FBF7E4FF20600028B2
:10D12000EDD12B68002B3FF479AF6FF06D0321E652
:10D130006FF06B031EE600BF2DE9F0470646084678
:10D140000D4610F05FFBDFF8F8803E4C01213046C1
:10D150003B4AFBF7C7FF206090BBD8F8003063BBA9
:10D16000304605F58271FBF7D6FE206068B9B5F848
:10D17000041101291DD9023989B241232A463046BA
:10D18000A5F80411FBF7FCFE206013274FF00009FF
:10D190006FF09F0A206859EA000901D0BDE8F087C6
:10D1A000132F1CD0142F1AD0122FCFD06FF06B0377
:10D1B00043E06FF09F032360E7E76FF06D032360A8
:10D1C0001227E3E74FF001090527E3E7C4F800A0C1
:10D1D00095F8D43143F0010385F8D43111E042468B
:10D1E00002213046FBF77EFF20600028D2D1D8F81C
:10D1F0000030012BE6D0022B05D0E3B96FF0840399
:10D2000023601427C6E7304605F5E871FBF783FE77
:10D2100020600028DCD1B5F8D0110129D6D9023917
:10D2200089B232233046A5F8D01105F58472FBF798
:10D23000A7FE2060CCE76FF06D032360AAE700BF74
:10D24000C4190020C019002070B50546084610F02A
:10D250006EFA134C134E012132462846FBF742FF6B
:10D2600003462060A0B93268A2B16FF06D0222605F
:10D27000402100222068034302D002B1206070BD2B
:10D2800040296FF06B0008D1002AE3D02360E1E76A
:10D290000023EDE701230521EBE70122EBE700BFC7
:10D2A000C0190020C41900202DE9F04706460846A1
:10D2B0000D4610F054FBDFF82081484C0121304628
:10D2C000454AFBF70FFF2060B8B9D8F80030002BB3
:10D2D00044D1424601213046FBF704FF206060B98B
:10D2E000D8F8003003BB3E4F03213A463046FBF7E7
:10D2F000F9FE3B6820602B70D0B1AF2724E0AF2F40
:10D30000DCD0B02F2DD0042F5FD142460121304612
:10D31000FBF7E8FE2060D8B9D8F80030002B57D0D2
:10D320006FF06D03236013E06FF084032360E4E784
:10D33000424601213046FBF7D5FED8F80030206088
:10D340000BB1284BF2E7B0274FF0000905F1340A82
:10D35000206859EA0009D2D0BDE8F0876FF06D036C
:10D36000E4E7424602213046FBF7BCFE206000287D
:10D37000EED1D8F80030012B11D0022B1BD0002B9E
:10D38000CED1304605F10C01FBF7D0FF95F83030D7
:10D39000206043F0010385F830300427D8E7514678
:10D3A0003046FFF709F995F88030206043F001031B
:10D3B00085F88030F1E73046291DFFF745FF2B7ACD
:10D3C000206043F001032B72E7E76FF06B03A9E7DE
:10D3D0004FF001090527BBE7C4190020C019002040
:10D3E000C81900200CFEFFFF70B50546084610F076
:10D3F000D9FA134C134E012132462846FBF772FE30
:10D4000003462060A0B93268A2B16FF06D022260BD
:10D41000402100222068034302D002B1206070BD89
:10D4200040296FF06B0008D1002AE3D02360E1E7C8
:10D430000023EDE701230521EBE70122EBE700BF25
:10D44000C0190020C419002070B50546084610F028
:10D4500002F9134C134E012132462846FBF742FED7
:10D4600003462060A0B93268A2B16FF06D0222605D
:10D47000402100222068034302D002B1206070BD29
:10D4800040296FF06B0008D1002AE3D02360E1E768
:10D490000023EDE701230521EBE70122EBE700BFC5
:10D4A000C0190020C419002070B50546084610F0C8
:10D4B00071FA134C134E012132462846FBF712FE37
:10D4C00003462060A0B93268A2B16FF06D022260FD
:10D4D000402100222068034302D002B1206070BDC9
:10D4E00040296FF06B0008D1002AE3D02360E1E708
:10D4F0000023EDE701230521EBE70122EBE700BF65
:10D50000C0190020C41900202DE9F84F054608462F
:10D5100088460FF0F9FF934EDFF84CA2022128460F
:10D52000904AFBF7DFFD914C07462060002865D14B
:10D53000D6F80090B9F1000F16D0B9F1010F3DD027
:10D540006FF06D0323602BE0042F00F2068101A32E
:10D5500053F827F01DD500081FD6000895D60008FF
:10D5600011D700083BD70008284608F1C801FBF78F
:10D57000D2FC206068B9B8F8C810012918D902395E
:10D5800089B2322342462846A8F8C810FBF7F8FCB7
:10D590002060012798F8CC3043F0010388F8CC30A4
:10D5A0004FF00009206859EA0009CDD0BDE8F88F96
:10D5B0006FF09F032360ECE70227F1E7324649460C
:10D5C0002846FBF78FFD2060C0B93368C3B92846F1
:10D5D00008F1D601FBF79FFC206078B9B8F8D610A7
:10D5E000082903D96FF06603236007E0284608F195
:10D5F000CE02FBF704FD0746206020B10027CFE7ED
:10D600006FF08403F0E7324649462846FBF76AFD8F
:10D6100033682060002BCFD0C4F800A0C0E73246AA
:10D6200001212846FBF75EFD20600028BAD133684F
:10D63000002B85D1324601212846FBF753FD20609F
:10D640000028AFD1336813BB284608F1D601FBF799
:10D6500062FC20600028A5D1B8F8D610082912D89D
:10D66000284608F1CE02FBF7CAFC2060002899D1B9
:10D67000324601212846FBF735FD33682060002B38
:10D68000CAD102278EE76FF0660323608AE76FF046
:10D690008403FAE7324602212846FBF723FD83463E
:10D6A00020600028EDD133685BB1012B7FF448AFD7
:10D6B000284608F1E001FDF779F9D94620600427F2
:10D6C00070E7324601212846FBF70CFD2060002858
:10D6D000D7D13368C3B9284608F1D801FBF7B2FCAB
:10D6E00098F8DA30206043F0010388F8DA30002837
:10D6F000C7D1324601212846FBF7F4FC336820608D
:10D70000002B89D103274DE76FF084032360B8E72E
:10D71000324601212846FBF7E5FC20600028F1D1C4
:10D72000D6F80090B9F1000F7FF40AAF284608F14F
:10D73000E001FDF73BF92060C1E7324601212846B0
:10D74000FBF7D0FC206000287FF42CAF3368002B5F
:10D750007FF4F6AE4FF0010902E06FF06B03236037
:10D7600005271FE7C41900200CFEFFFFC019002089
:10D770002DE9F04705460846884610F01AF9364E5E
:10D78000364C01212846344AFBF7ACFC2060B0B986
:10D790003368002B41D1324601212846FBF7A2FC19
:10D7A000206060B93368FBB92D4F05213A46284601
:10D7B000FBF798FC3B68206088F80030C0B1C027B8
:10D7C00021E0362F2CD0C02FDBD0042F3BD13246A6
:10D7D00001212846FBF786FC2060C0B93368002B86
:10D7E00035D0C4F800A012E06FF084032360E6E7B0
:10D7F000324601212846FBF775FC336820600BB1E7
:10D80000184BF3E736274FF000096FF06D0A2068D8
:10D8100059EA0009D5D0BDE8F0876FF06D03E5E760
:10D82000324601212846FBF75DFC20600028EED13E
:10D830003368002BD5D1284608F10401FBF73AFEE6
:10D8400004272060E3E76FF06B032360DFE74FF00E
:10D8500001090527DBE700BFC4190020C01900201B
:10D86000C81900200CFEFFFF2DE9F04706460846C8
:10D870000C4610F021F9DFF8BC92AF4D0321304681
:10D88000AC4AFBF72FFC80462860002854D1D9F819
:10D890000030052B00F2C180DFE803F025567799B0
:10D8A000529EF42FEAD008DC132F00F02D81142FA4
:10D8B00000F02A816FF06B035AE1F52F40F0F08001
:10D8C0004A4603213046FBF70DFC286050BBD9F8CF
:10D8D0000030042B00F2DE80DFE813F0A700FA002E
:10D8E0002701A3003001304604F51A71FBF713FB42
:10D8F000286070B9B4F86812012919D9023989B2BF
:10D9000032233046A4F8681204F5D072FBF738FBD6
:10D910002860F52794F86C3243F0010384F86C32E8
:10D920006FF09F0A286858EA0008BAD0BDE8F0876F
:10D930006FF09F032B60ECE74FF00008F427EFE750
:10D940004FF001080527EBE7304604F1C801FBF76B
:10D95000E2FA286068B9B4F8C810012911D902396F
:10D9600089B2322322463046A4F8C810FBF708FBE0
:10D97000286094F8CC30F62743F0010384F8CC30CB
:10D98000CEE76FF09F032B60F3E7304604F5CC71D0
:10D99000FBF7C1FA286070B9B4F89811012912D9BF
:10D9A000023989B232233046A4F8981104F1D0022A
:10D9B000FBF7E6FA286094F89C31132743F0010343
:10D9C00084F89C31ACE76FF09F032B60F3E76FF0B6
:10D9D00084032B601427A3E7304604F54E71FBF750
:10D9E0009AFA286070B9B4F83813012911D90239AC
:10D9F00089B232233046A4F8381304F51C72FBF7C1
:10DA0000BFFA286094F83C3343F0010384F83C33B8
:10DA1000E0E76FF09F032B60F4E76FF06D032B607E
:10DA20008CE74FF0010805277CE7304604F1C80178
:10DA3000FBF771FA286068B9B4F8C810012913D946
:10DA4000023989B2322322463046A4F8C810FBF7C7
:10DA500097FA286094F8CC3043F0010384F8CC3076
:10DA60004FF00008F6275DE7C5F800A0F2E7C5F81B
:10DA700000A094F89C31132743F0010384F89C31F3
:10DA800050E7C5F800A094F83C3343F0010384F854
:10DA90003C334DE06FF06D034FF000082B6041E721
:10DAA0004A4603213046FBF71DFB28600028D9D1E8
:10DAB000D9F80030032B23D801A252F823F000BF7D
:10DAC000D1DA00082BDB000823DA00083DDB000870
:10DAD000304604F5CC71FBF71EFA28600028C8D147
:10DAE000B4F898110129C2D9023989B232233046DB
:10DAF000A4F8981104F1D002FBF742FA2860B8E7C5
:10DB00006FF06D032B60ABE74A4602213046FBF70E
:10DB1000E9FA286000287FF405AFD9F80030012B1E
:10DB20003FF47FAF022B09D003BB6FF084032B605F
:10DB30001427F7E6C4190020C0190020304604F568
:10DB40004E71FBF7E8F9286000289CD1B4F838132F
:10DB5000012996D9023989B232233046A4F8381304
:10DB600004F51C72FBF70CFA28608CE76FF06D036C
:10DB70002B60D7E62DE9F74F064608460D460FF015
:10DB8000EEFF7F4FDFF8FCA1022130467C4AFBF715
:10DB9000A9FA7D4C206098BB396889B1012954D01D
:10DBA0006FF06D0337E0D84500F08480B8F5887FCA
:10DBB00000F0D680B8F5877FE6D06FF06B03C5E044
:10DBC0003A4601213046FBF78DFA2060C0B93B6828
:10DBD000FBB9304605F5AF71FBF79DF9206038B908
:10DBE000B5F85E11B1F5AF7F0DD96FF06603236014
:10DBF00095F8603143F0010385F86031236863B123
:10DC00004FF4877816E02A463046FBF7F8F9206093
:10DC1000EEE76FF084032360F2E73A4601213046D5
:10DC2000FBF760FA3B68206013B1C4F800A0E7E797
:10DC300040F20F184FF0000940F20F1B206859EA1C
:10DC40000009B0D003B0BDE8F08F3A463046FBF78C
:10DC500049FA20600028D3D13B68002BD9D1304647
:10DC600005F53071FBF757F9206050B9B5F8C012CF
:10DC7000B1F5AF7F1AD8304605F5B172FBF7BFF9A1
:10DC8000206095F8C23243F0010385F8C232236860
:10DC9000002BB5D13A4601213046FBF723FA3B6809
:10DCA0002060002BC1D14FF48878C3E76FF0660382
:10DCB0002360E6E73A4602213046FBF713FA20607C
:10DCC0000028BBD13B68012B46D0022B33D0002B60
:10DCD00053D13A4601213046FBF704FA2060002870
:10DCE000ACD13B6883BB304605F53071FBF713F9C7
:10DCF000206050B9B5F8C012B1F5AF7F20D83046DA
:10DD000005F5B172FBF77BF9206095F8C23243F05C
:10DD1000010385F8C2322368002B8FD13A460121D6
:10DD200030460193FBF7DEF93A68019B20607AB92F
:10DD30004FF4887882E74FF001094FF005087DE73E
:10DD40006FF066032360E0E76FF08403236075E7FC
:10DD50009946C4F800A071E76FF084032360E7E7F9
:10DD60003A4602213046FBF7BDF920600028DFD19A
:10DD70003B68002BF0D0012BDDD06FF06D03E5E7A1
:10DD8000C41900200CFEFFFFC01900202DE9F04748
:10DD90000546084688460FF08DFE3D4E3D4C01215C
:10DDA00028463B4AFBF79EF9206008BB3368002BEE
:10DDB0004FD1324601212846FBF794F92060B8B9CB
:10DDC000336873BB284608F16001FBF7A4F82060B4
:10DDD00070B9B8F8601001291FD9023989B2182327
:10DDE00042462846A8F86010FBF7CAF82060D8B170
:10DDF000F02724E0F02FD2D0F12F2DD0042F3ED1E8
:10DE0000324601212846FBF76DF92060D8B9336806
:10DE1000002B38D0C4F800A015E06FF09F032360FA
:10DE2000E6E76FF08403FAE7324601212846FBF764
:10DE300059F9336820600BB1174BF0E7F1274FF029
:10DE400000096FF06D0A206859EA0009D2D0BDE8D8
:10DE5000F0876FF06D03E2E7324601212846FBF7B9
:10DE600041F920600028EED13368002BD2D128463A
:10DE700008F16401FBF796FF04272060E3E76FF0E9
:10DE80006B032360DFE74FF001090527DBE700BFE5
:10DE9000C4190020C01900200CFEFFFF2DE9F04737
:10DEA0000646084688460FF01AFC624DDFF888A146
:10DEB000012130465F4AFBF715F9604C2060A8B994
:10DEC0002B68A3BB2A4601213046FBF70BF92060E3
:10DED00060B92B68C3B95A4F05213A463046FBF763
:10DEE00001F93B68206088F8003088B15B271BE0AF
:10DEF0005C2F1FD05D2F5FD0042F00F089805B2F37
:10DF0000D6D06FF06B0347E06FF084032360EDE73A
:10DF10002A4601213046FBF7E5F82B68206013B153
:10DF2000C4F800A0E2E75C274FF000092CE06FF096
:10DF30006D03EBE72A4601213046FBF7D3F820605A
:10DF400010BB2B68002B6DD12A4601213046FBF710
:10DF5000C9F82060C0B92B6803BB304608F1CC017A
:10DF6000FAF7D9FF206078B9B8F8CC10012911D997
:10DF7000023989B232233046A8F8CC1008F10402E5
:10DF8000FAF7FEFF206060B1206859EA0009AFD0BF
:10DF9000BDE8F0876FF09F032360F5E76FF084031F
:10DFA000FAE72A4601213046FBF79CF82B682060EF
:10DFB000DBB1C4F800A0B7E72A4601213046FBF7E1
:10DFC00091F8206088B92B6863BB2A46012130464E
:10DFD000FBF788F8206040B92B6843B9304608F158
:10DFE000D001FBF75EF8206028B15D27CCE76FF029
:10DFF00084032360F9E72A4601213046FBF772F8D3
:10E000002B6820600BB90427BEE7C4F800A0BBE76B
:10E010002A4601213046FBF765F820600028F2D13E
:10E020002B6813B16FF06D03B6E74FF001090527B8
:10E03000AAE700BFC41900200CFEFFFFC019002092
:10E04000C81900202DE9F0470646084688460FF01B
:10E0500084FC414DDFF804A1012130463E4AFBF724
:10E0600041F83F4C206088B92B68002B3CD12A46F0
:10E0700001213046FBF736F8206038B92B68DBB950
:10E0800041463046FAF761FF2060C8B1AB2723E074
:10E09000AB2FE1D0AC2F2AD0042F56D12A46012134
:10E0A0003046FBF71FF82060002845D12B68002B75
:10E0B0004ED06FF06D0343E06FF084032360E5E71B
:10E0C0002A4601213046FBF70DF82B68206013B17A
:10E0D000C4F800A0DAE7AC274FF00009206859EA3D
:10E0E0000009D5D0BDE8F0876FF06D03E6E72A465A
:10E0F00001213046FAF7F6FF20600028EED12B68A8
:10E10000002BD6D12A4601213046FAF7EBFF2060DA
:10E110000028E3D12B688BB9304608F10401FAF7E7
:10E1200091FF20600028D9D12A4601213046FAF714
:10E13000D9FF2B6820602BB90427CFE76FF0840349
:10E140002360CBE7C4F800A0C8E76FF06B03F7E7E4
:10E150004FF001090527C1E7C41900200CFEFFFF9D
:10E16000C01900202DE9F84F064608460D460FF06D
:10E1700022FBDFF8A082012142463046FAF7B2FFC7
:10E18000A54C206090B9D8F800308BBB42460121E5
:10E190003046FAF7A7FF206040B9D8F80030A3B99D
:10E1A00029463046FAF741FF206090B176271CE0FF
:10E1B000772F20D0782F00F0EE80042F00F015810B
:10E1C000762FD6D06FF06B031DE16FF084032360D0
:10E1D000ECE7424601213046FAF784FFD8F80030D8
:10E1E00020600BB18D4BF2E777274FF0000950E02C
:10E1F0006FF06D03EBE703213046864AFAF772FFB2
:10E200002060002845D1D8F80030032B00F2BF80F1
:10E21000DFE813F00400A000B000FB0005F10409E2
:10E2200048460FF015FC7B4F3A4601213046FAF77D
:10E2300059FF206090B9D8F8003083BB3A460121DD
:10E240003046FAF74FFF206040B9D8F8003043B9A4
:10E2500049463046FAF7F6FE206030B14FF0E30A47
:10E2600022E06FF084032360F8E73A46012130464C
:10E27000FAF738FFD8F8003020609BB1674B236075
:10E280004FF00009782795F8CC3043F0010385F86A
:10E29000CC30206859EA00098AD0BDE8F88F6FF0C9
:10E2A0006D03ECE74FF0E40A4FF0000B22685BEAE5
:10E2B000020BE5D1BAF1E40F08D0BAF1E50F25D091
:10E2C000BAF1E30FB0D06FF06B022EE03A460121B5
:10E2D0003046FAF707FF20600028E7D1D8F8002081
:10E2E0000ABBB5F8C81017290CD84B1C09EBC101A3
:10E2F0003046A5F8C8300431FFF7A4FE20604FF087
:10E30000E50AD3E76FF063032360F8E73A4602219A
:10E310003046FAF7E7FE20600028C7D1D8F8002081
:10E320002AB1012A12D06FF06D022260BEE7B5F863
:10E33000C8101729E6D84A1C09EBC1013046A5F8D8
:10E34000C8200431FFF77EFE2060AFE793464FF010
:10E35000050AABE7304605F1D801FEF71FFB95F83B
:10E36000F830206043F0010385F8F8304FF00009E1
:10E3700004278EE7304605F1D001FFF735F895F810
:10E38000D430206043F0010385F8D430EEE76FF01D
:10E390006D03236029E7022130461E4AFAF7A2FEE8
:10E3A000206000287FF475AFD8F80030012B0FD023
:10E3B000022B2AD02BBB304605F1D801FEF7EEFA2E
:10E3C00095F8F830206043F0010385F8F830CFE786
:10E3D000304605F1D001FFF707F895F8D4302060FA
:10E3E00043F0010385F8D430C2E701213046094AE1
:10E3F000FAF778FE206000287FF44BAFD8F80030A1
:10E400001BB16FF06D03236043E74FF0010905274F
:10E410003FE700BFC4190020C01900200CFEFFFF19
:10E420002DE9F047064608460D460FF087F8DFF85D
:10E430001C81474C01213046444AFAF753FE2060C4
:10E44000B8B9D8F80030002B44D1424601213046FB
:10E45000FAF748FE206060B9D8F8003003BB3D4FA2
:10E4600005213A463046FAF73DFE3B6820602B70A6
:10E47000D0B1082724E0082FDCD0092F2DD0042F9D
:10E480005DD1424601213046FAF72CFE2060D8B912
:10E49000D8F80030002B55D06FF06D03236013E0E7
:10E4A0006FF084032360E4E7424601213046FAF727
:10E4B00019FED8F8003020600BB1274BF2E709278E
:10E4C0004FF0000905F1200A206859EA0009D2D06E
:10E4D000BDE8F0876FF06D03E4E742460221304665
:10E4E000FAF700FE20600028EED1D8F80030012BAA
:10E4F0000FD0022B19D0002BCED1304605F10C01E4
:10E50000FAF7D8FF2B7F206043F001032B77042715
:10E51000DAE751463046FCF77FFF95F82C30206053
:10E5200043F0010385F82C30F1E73046291DFEF752
:10E53000BBFF2B7A206043F001032B72E7E76FF0FB
:10E540006B03ABE74FF001090527BDE7C4190020B5
:10E55000C0190020C81900200CFEFFFF2DE9F0476C
:10E560000646084688460FF0CCF9304F304C012162
:10E5700030462E4AFAF7B6FD206000BB3B68DBB997
:10E5800041463046FDF734FC9E2520604FF00009DF
:10E590006FF06D0A206859EA000901D0BDE8F087E4
:10E5A0009E2D0ED09F2D1ED0042D2ED09D2DDED061
:10E5B0006FF06B032360EDE76FF06D0323609D2523
:10E5C000E4E73A4601213046FAF78CFD2060002846
:10E5D000E0D13B681BBB304608F11401FAF7B4FDEB
:10E5E0009F252060D6E73A4601213046FAF77AFDAA
:10E5F00020600028CED13B688BB9304608F11C0161
:10E60000FAF7A2FD04252060C4E73A46012130460E
:10E61000FAF768FD20600028BCD13B6813B1C4F84C
:10E6200000A0B7E74FF001090525B3E7C4190020A2
:10E63000C01900202DE9F0470646084689460FF02C
:10E640003CF84D4F4D4C012130464B4AFAF74AFDFC
:10E650002060B0B93B68002B4ED13A4601213046CC
:10E66000FAF740FD206060B93B686BBB444D052163
:10E670002A463046FAF736FD2B68206089F80030CC
:10E6800030B34FF00D082FE0A8F104030B2B6BD82B
:10E6900001A252F823F000BF4BE7000869E7000829
:10E6A00069E7000869E7000869E7000869E700080A
:10E6B00069E7000869E7000869E7000847E600081D
:10E6C000FFE6000825E700086FF084032360D8E721
:10E6D0003A4601213046FAF705FD3B6820600BB150
:10E6E000284BF3E74FF00E0800256FF06B0A206807
:10E6F0000543C9D0BDE8F0876FF06D03E6E73A4601
:10E7000001213046FAF7EEFC20600028EFD13D6889
:10E710002DBB304609F10401FCF77EFE4FF00F08D7
:10E720002060E4E73A4601213046FAF7DBFC20603E
:10E730000028DCD13D6895B9304609F11001FAF79F
:10E7400003FD4FF004082060D1E73A46012130462E
:10E75000FAF7C8FC20600028C9D13B683BB16FF0D4
:10E760006D0305462360C2E7C4F800A0BFE701259A
:10E770004FF00508BBE700BFC4190020C0190020F6
:10E78000C81900200CFEFFFF2DE9F047054608469A
:10E790000F460FF0F9F8534EDFF84CA1012128463F
:10E7A000504AFAF79FFC514C2060002838D133685A
:10E7B000002B4BD1324601212846FAF793FC20600A
:10E7C00070BB33687BBB284607F5AF71FAF7A3FB34
:10E7D000206028BBB7F85E11B1F5AF7F1AD96FF092
:10E7E000660323601CE0B8F1B30FD7D0B8F1B40FC3
:10E7F0002FD0B8F1040F6DD1324601212846FAF727
:10E8000071FC206000285FD13368002B65D06FF069
:10E810006D034CE03A462846FAF7F1FB206028B138
:10E820004FF0B3080FE06FF08403DAE732460121BE
:10E830002846FAF757FC3368206013B1C4F800A0EB
:10E84000EEE74FF0B4084FF0000928E06FF06D03D9
:10E85000C7E7324601212846FAF744FC2060F0B9A8
:10E860003368002BD3D1324601212846FAF73AFC0F
:10E870002060A0B93368E3B9284607F2BE21FAF751
:10E880004AFB206058B9B7F8BE12B1F5AF7F0CD87B
:10E89000284607F5B072FAF7B2FB206060B1206835
:10E8A00059EA00099FD0BDE8F0876FF06603236046
:10E8B000F5E76FF08403FAE7324601212846FAF7BC
:10E8C00011FC3368206013B94FF00408E7E7C4F87F
:10E8D00000A0B8E76FF06B03E9E74FF001094FF0D4
:10E8E0000508DCE7C41900200CFEFFFFC01900205A
:10E8F0002DE9F047074608460C460EF029FFDFF8E1
:10E90000C091704D032138466D4AFAF7EBFB286041
:10E9100000285AD1D9F80030032B53D8DFE803F090
:10E92000101E2B2FB8F1700F58D0B8F1710F00F0F6
:10E930008180B8F16F0FE5D06FF06B032B6046E07C
:10E9400021463846FEF7FAF894F8AC39286043F0CF
:10E95000010384F8AC394FF0700838E0384604F60B
:10E96000AE11FFF711FF94F86E3C286043F00103ED
:10E9700084F86E3CEFE76FF084032B60EBE73846DA
:10E9800004F63851FAF7C7FA286070B9B4F8381DA0
:10E99000012913D9023989B232233846A4F8381D27
:10E9A00004F54762FAF7ECFA286094F83C3D4FF022
:10E9B000710843F0010384F83C3D08E06FF09F03C9
:10E9C0002B60F2E76FF06D032B604FF06F080026AD
:10E9D000286850EA060AA5D0BDE8F0874A46022119
:10E9E0003846FAF77FFB06462860002865D1D9F83B
:10E9F0000030002B5DD0012B57D1384604F638513A
:10EA0000FAF789FA286070B9B4F8381D012948D995
:10EA1000023989B232233846A4F8381D04F547621A
:10EA2000FAF7AEFA286094F83C3D43F0010384F80D
:10EA30003C3DCDE74A4603213846FAF753FB0646EC
:10EA40002860002839D1D9F80030032B2DD801A235
:10EA500052F823F065EA000881EA00089BEA000802
:10EA6000FBE9000821463846FEF768F894F8AC390F
:10EA7000286043F0010384F8AC394FF07008A7E731
:10EA8000384604F6AE11FFF77FFE94F86E3C28601E
:10EA900043F0010384F86E3CEFE76FF084032B60D2
:10EAA000EBE76FF09F032B60BDE76FF06D032B600A
:10EAB0008EE701264FF005088AE7564688E700BF33
:10EAC000C4190020C01900202DE9F0470646084669
:10EAD00088460EF0ECFD444DDFF810A101213046D0
:10EAE000414AFAF7FFFA424C206088B92B68002BA4
:10EAF0003CD12A4601213046FAF7F4FA206038B9B1
:10EB00002B68DBB941463046FAF71FFA2060C8B1DE
:10EB1000502723E0502FE1D0512F2AD0042F60D16D
:10EB20002A4601213046FAF7DDFA206000284FD14D
:10EB30002B6853BB4FF00109052711E06FF08403E8
:10EB40002360E5E72A4601213046FAF7CBFA2B6825
:10EB5000206013B1C4F800A0DAE751274FF0000994
:10EB6000206859EA0009D5D0BDE8F0876FF06D0341
:10EB7000E6E72A4602213046FAF7B4FA2060002878
:10EB8000EED12B6823B1012BD4D06FF06D0323E0BD
:10EB90002A4601213046FAF7A5FA20600028DFD185
:10EBA0002B68BBB9304608F10401FAF7CEF998F8A2
:10EBB0000830206043F0010388F808300028CFD1E6
:10EBC0002A4601213046FAF78DFA2B6820602BB9CE
:10EBD0000427C5E76FF084032360C1E7C4F800A0F1
:10EBE000BEE76FF06B03F7E7C41900200CFEFFFFD0
:10EBF000C019002070B5054608460EF096FD134C6E
:10EC0000134E012132462846FAF76CFA034620607B
:10EC1000A0B93268A2B16FF06D02226040210022DB
:10EC20002068034302D002B1206070BD40296FF01C
:10EC30006B0008D1002AE3D02360E1E70023EDE771
:10EC400001230521EBE70122EBE700BFC0190020FB
:10EC5000C41900202DE9F84F064608460D460EF06F
:10EC60008EFC8E4F8E4C012130468C4AFAF73AFAD0
:10EC7000206078BB3B68002B5ED1B5F86031002B7B
:10EC800041D13A4601213046FAF72CFA206008BB00
:10EC90003B68A3BB4FF4B078B5F86011304608FB71
:10ECA000015101F5AF71FAF736F9206058B9B5F89E
:10ECB000602108FB0252B2F85E11B1F5AF7F19D99D
:10ECC0006FF066032360B5F860310133A5F8603159
:10ECD0002368DBB14FF0150824E0B8F1160F2ED0F1
:10ECE000B8F1170F00F08180B8F1150FBBD06FF0AD
:10ECF0006B03CEE03046FAF782F92060E3E76FF06D
:10ED000084032360E6E76FF06303FAE73A460121E4
:10ED10003046FAF7E7F93B6820600BB1614BF0E74A
:10ED20004FF016084FF000094FF4B07A206859EA06
:10ED30000009D2D0BDE8F88F6FF06D03E1E73A46E5
:10ED400002213046FAF7CEF92060A8BB3B68012BC0
:10ED500045D0022B33D0002B53D1B5F86031002BB6
:10ED60003AD13A4601213046FAF7BCF9206018BB87
:10ED70003B686BBBB5F8601130460AFB015101F5E9
:10ED8000AF71FAF7C8F8206060B9B5F860210AFBE6
:10ED90000252B2F85E11B1F5AF7F15D83046FAF7DE
:10EDA0002EF92060B5F86031D4F800B00133A5F831
:10EDB0006031BBF1000F59D04FF01608B6E74FF0A5
:10EDC00001094FF00508B1E76FF066032360E9E73A
:10EDD0006FF084032360EFE76FF06303FAE76FF0EF
:10EDE00084034FF017082360A0E73A46022130461B
:10EDF000FAF778F92060002898D13B6823B1012BFD
:10EE0000DDD06FF06D0344E0B5F86031002B42D1E6
:10EE10003A4601213046FAF765F92060002885D18D
:10EE20003B68A3BBB5F8601130460AFB015101F500
:10EE3000AF71FAF770F8206068B9B5F860210AFB85
:10EE40000253B3F85E11B1F5AF7F1CD81A463046B5
:10EE5000FAF7D5F82060B5F86031D4F800B0013386
:10EE6000A5F86031BBF1000F7FF460AF3A46012195
:10EE70003046FAF737F93B682060002B9CD0094BED
:10EE8000D946236052E76FF066032360E3E76FF033
:10EE9000840323604AE76FF06303FAE7C419002094
:10EEA000C01900200CFEFFFF2DE9F74F064608466B
:10EEB0000F460EF0B0FDA54DDFF894A201213046BB
:10EEC000A24AFAF70FF9A34C206088B92B68002BEF
:10EED00044D12A4601213046FAF704F9206038B9B6
:10EEE0002B68FBB939463046FAF715F82060E8B1CF
:10EEF0004FF0D40927E0B9F1040F00F02F81A9F1F8
:10EF0000D403032B00F23881032B00F2358101A2D8
:10EF100052F823F0BDEE000863EF000849F0000846
:10EF2000A9F000086FF084032360E1E72A4601217D
:10EF30003046FAF7D7F82B68206013B1C4F800A068
:10EF4000D6E74FF0D5094FF00008DFF80CB2206883
:10EF500058EA0008CFD003B0BDE8F08F6FF06D0322
:10EF6000E2E72A4602213046FAF7BCF82060002882
:10EF7000EDD12B682BB1012B41D06FF06D032360D5
:10EF800032E02A4601213046FAF7ACF8206000282A
:10EF9000DDD12B687BBB304607F18401F9F7BBFF5D
:10EFA000206068B9B7F88410012920D9023989B2E4
:10EFB00020233046A7F884103A1DF9F7E1FF2060BE
:10EFC00097F8883043F0010387F888302368002BD6
:10EFD000BDD12A4601213046FAF784F82B6820601B
:10EFE000002B4FD0C4F800A04FF00008AFE76FF03F
:10EFF0009F032360E4E76FF084032360A7E72A46BA
:10F00000194630460193FAF76DF8206000289ED12A
:10F010002A68002AEFD1504A02213046FAF762F8F6
:10F02000DBF80020206087F8892000288FD1019B21
:10F030002A4619463046FAF755F82B682060002B0F
:10F04000D0D14FF0D70982E72A4601213046FAF79E
:10F0500049F82060B0B92B68002B8ED12A460121D7
:10F060003046FAF73FF8206060B92B686BB93A4A2E
:10F0700002213046FAF736F8DBF80020206087F8E6
:10F08000892030B14FF0D60961E76FF08403236027
:10F09000F8E72A46019001213046FAF723F82A685A
:10F0A0002060002ACDD09DE72A4602213046FAF79B
:10F0B00019F820600028C4D12B683BB1012B7FF4E4
:10F0C0005CAF4FF001084FF0050940E72A460121E7
:10F0D0003046FAF707F820600028B2D12B6883BBCE
:10F0E000304607F58671F9F716FF206070B9B7F85A
:10F0F0000C11012921D9023989B220233046A7F801
:10F100000C1107F18C02F9F73BFF206097F81031E2
:10F1100043F0010387F810312368002B91D12A4670
:10F12000012130460193F9F7DDFF2A682060002AAB
:10F130007FF458AF4FF0040909E76FF09F03236095
:10F14000E4E76FF0840323607BE700BFC41900206D
:10F150000CFEFFFFC0190020C81900202A4601211B
:10F160003046F9F7BFFF20600028E3D12B68002B61
:10F17000A7D06FF06D0340E76FF06B033DE700BF72
:10F180002DE9F84F0646084688460EF0C8FC4F4D5C
:10F190004F4C012130464D4AF9F7A4FF206030BBA7
:10F1A0002B680BBB41463046FFF77EFE40F2051749
:10F1B00020604FF00009DFF81CA1DFF81CB12068C7
:10F1C00059EA000901D0BDE8F88F40F205139F42CB
:10F1D00010D0B7F5837F39D0042F66D0B7F5827F82
:10F1E000D7D06FF06B032FE06FF06D0323604FF407
:10F1F0008277DEE72A4601213046F9F773FF206067
:10F200000028DCD12B68002B59D12A460121304639
:10F21000F9F768FF20600028D1D12B6893B93046F8
:10F2200008F58A71F9F701FF20600028C7D12A4646
:10F2300001213046F9F756FF2B6820601BB3C4F854
:10F2400000A0BCE76FF084032360B8E72A460121E1
:10F250003046F9F747FF2060A8B92B687BBB2A46E8
:10F2600001213046F9F73EFF206060B92B686BB989
:10F2700004213046184AF9F735FFDBF800302060EA
:10F2800088F8183130B14FF4837798E76FF0840332
:10F290002360F8E72A4601213046F9F723FF2B685F
:10F2A0002060002BCBD1042789E72A460121304674
:10F2B000F9F718FF20600028F5D12B6813B16FF023
:10F2C0006D03C1E74FF00109052778E7C419002055
:10F2D000C01900200CFEFFFFC81900202DE9F843DB
:10F2E0000546084688460EF08CFA274E274C012129
:10F2F0002846254AF9F7F6FE206080B9336873BBCB
:10F30000324601212846F9F7EDFE206038B933680E
:10F3100073B941462846F9F7FEFD206060B17E27AB
:10F3200015E0042F1ED07E2FE1D06FF06B0325E097
:10F330006FF084032360F2E7324601212846F9F793
:10F34000D1FE336820600BB1114BF3E704274FF077
:10F350000009206859EA0009E3D0BDE8F8836FF09E
:10F360006D03E7E7324601212846F9F7BBFE20602E
:10F370000028EED133681BB16FF06D032360E8E71E
:10F380004FF001090527E4E7C4190020C019002047
:10F390000CFEFFFF2DE9F84F074608460D460EF01C
:10F3A00038FAA24EA24C01213846A04AF9F79AFE3B
:10F3B000206000283BD13368B3BB384605F1C80153
:10F3C000F9F7A9FD206068B9B5F8C810012927D957
:10F3D000023989B232232A463846A5F8C810F9F70F
:10F3E000CFFD20604FF080084FF00009DFF844A205
:10F3F000DFF844B2206859EA000901D0BDE8F88F6F
:10F40000B8F1800F16D0B8F1810F2CD0B8F1040FED
:10F4100000F0F980B8F17F0FC5D06FF06B0358E0B2
:10F420006FF09F032360DDE76FF06D0323604FF003
:10F430007F08D9E7324601213846F9F753FE2060AC
:10F440000028D7D13368002B40F0E88003213846EC
:10F45000784AF9F747FEDAF800304FF0810820606B
:10F4600085F8CC30C6E7324603213846F9F73AFE34
:10F4700020600028BED13368052B00F2C080DFE891
:10F4800003F0032F4C657E8D324601213846F9F793
:10F4900029FE20600028ADD13368C3B9384605F194
:10F4A000D001F9F7C2FD95F8D430206043F0010394
:10F4B00085F8D43000289DD1324601213846F9F72D
:10F4C00011FE3368206033B94FF0040892E76FF003
:10F4D000840323608EE7C4F800B04FF0000989E789
:10F4E000324601213846F9F7FDFD2060002881D120
:10F4F0003368002BEBD1082138464E4AF9F7F2FD6C
:10F50000DAF800302060803B85F8D53095F8D630A9
:10F5100043F0010385F8D630CCE732460121384666
:10F52000F9F7E0FD206000287FF464AF3368002B1A
:10F53000CDD1384605F1D801F9F784FD95F8DA30D8
:10F54000206043F0010385F8DA30B3E73246012149
:10F550003846F9F7C7FD206000287FF44BAF3368C9
:10F56000002BB4D1384605F1DC01F9F784FD95F89C
:10F57000E030206043F0010385F8E0309AE7384638
:10F5800005F1E401F9F7E0FD95F8EC304FF00009E2
:10F5900043F00103206085F8EC3095E73246012105
:10F5A0003846F9F79FFD206000287FF423AF3368C9
:10F5B000002B8CD1384605F5DC71F9F7ACFC2060E6
:10F5C00070B9B5F8B811012915D9023989B23223B9
:10F5D0003846A5F8B81105F1F002F9F7D1FC206022
:10F5E00095F8BC3143F0010385F8BC312368002B4A
:10F5F0003FF462AFFEE66FF09F032360F0E76FF029
:10F600006D03236069E7324601213846F9F76AFD48
:10F61000206000287FF458AF336813B16FF06D039A
:10F6200057E74FF001094FF00508E3E6C419002041
:10F63000C0190020C81900200CFEFFFF2DE9F0477B
:10F640000546084688460EF031F9444F444C0121E6
:10F650002846424AF9F746FD206080B93B6893BBD3
:10F660003A4601212846F9F73DFD206038B93B684C
:10F6700083B941462846F9F7E5FC206070B1902631
:10F6800017E0912E22D0922E41D0902EDFD06FF035
:10F690006B034AE06FF084032360F0E73A460121F0
:10F6A0002846F9F71FFD3B6820600BB12D4BF3E7AF
:10F6B00091264FF000096FF0630A206859EA0009AB
:10F6C000DFD0BDE8F0876FF06D03E5E73A46012132
:10F6D0002846F9F707FD20600028EED13B6813BBF0
:10F6E00008F58053B3F8041C0F290DD84A1CA3F861
:10F6F000042C4FF4E07303FB018128460431FFF72B
:10F7000049FE20609226D8E7C4F800A0FAE73A46FE
:10F7100002212846F9F7E6FC20600028CDD13B689D
:10F720002BB1012B16D06FF06D032360C5E708F5F0
:10F730008053B3F8041C0F29E6D84A1CA3F8042C04
:10F740004FF4E07303FB018128460431FFF722FEEA
:10F750002060B2E799460526AFE700BFC419002034
:10F76000C01900200CFEFFFF2DE9F74F05460846A3
:10F770000F460DF0F2FE874E012132462846F9F77A
:10F78000B1FC854C2060B8B93368002B4BD13246B0
:10F7900001212846F9F7A6FC206068B933684BBB05
:10F7A000DFF8F881052142462846F9F79BFCD8F896
:10F7B000003020603B7008B34FF00A092AE0A9F13D
:10F7C0000403082B00F2E38001A252F823F000BFEB
:10F7D0006DF900088FF900088FF900088FF900080B
:10F7E0008FF900088FF9000877F700082DF8000856
:10F7F00089F800086FF084032360DDE732460121B9
:10F800002846F9F76FFC336820600BB1644BF3E7CF
:10F810004FF00B094FF00008206858EA0008CED0DE
:10F8200003B0BDE8F08F6FF06D03E5E701212846D6
:10F83000584AF9F757FC20600028EDD13368002BB7
:10F840002ED101212846534AF9F74CFC20600028AC
:10F85000E2D133688BB92846B91CF9F75CFB20600C
:10F860000028D9D1012128464A4AF9F73BFC3368E0
:10F87000206033B94FF00C09CEE76FF084032360AA
:10F88000CAE7474B2360C5E702212846414AF9F7FA
:10F8900029FC20600028EDD1336823B1012B71D001
:10F8A0006FF06D03EEE707F1040A50460EF0A3F87F
:10F8B000DFF8E0B05A4601212846F9F713FC07F5B6
:10F8C00080588146206090B93368DBB9B8F80C3CA9
:10F8D00053B901235146A8F80C3C2846FFF7AEFE69
:10F8E000CF23206000932CE06FF06303236098F82F
:10F8F000103C4FF0040943F0010388F8103C4FF02E
:10F90000000889E76FF06D03F0E75A4602212846A8
:10F910000193F9F7E7FB019B81462060E8B9316864
:10F9200021B101291FD06FF06D011AE0B8F80C1C4D
:10F93000A9B901212846A8F80C1C5146FFF77EFE04
:10F940002060216859EA0103D1D1009ACE2AB1D0B2
:10F95000CF2ADAD06FF06B0222609946F1E76FF0A0
:10F9600063012160EDE789460523BBE701212846B5
:10F97000084AF9F7B7FB206000287FF44DAF3368E1
:10F98000002B8DD14FF001084FF0050944E76FF0CF
:10F990006B0374E7C4190020C0190020C8190020A7
:10F9A0000CFEFFFF2DE9F84F0746084688460EF08B
:10F9B00053F8764EDFF8D8A102213846734AF9F79A
:10F9C00091FB744C0546206090BBD6F80090B9F1CD
:10F9D000010F69D0B9F1020F59D0B9F1000F40F011
:10F9E0008F80324601213846F9F77CFB2060F8B958
:10F9F0003368002B3CD1384608F18001F9F78BFAC7
:10FA0000206068B9B8F8801001292DD9023989B26F
:10FA1000202342463846A8F88010F9F7B1FA206052
:10FA200098F88430256843F0010388F884301DB3CA
:10FA3000002568E0B9F1E60FBED0B9F1E70F65D057
:10FA4000B9F1040F40F09F80324601213846F9F7A2
:10FA500049FB2060002840F08C803368002B61D186
:10FA600001254FF0050917E06FF09F032360D7E7EA
:10FA70006FF084032360DBE7324601213846F9F753
:10FA800031FB3368206063B1C4F800A0D0E70125E2
:10FA90004FF00509DFF800B120680543CAD0BDE882
:10FAA000F88F4FF0E709F5E7324649463846F9F74F
:10FAB00019FB20600028BBD13368002BD8D1DFF8B8
:10FAC000D8B002215A463846F9F70CFBDBF8003073
:10FAD000054688F8853098F88630206043F00103A9
:10FAE00088F886300028A3D1324649463846F9F7CF
:10FAF000F9FA33682060002BC6D14FF00409C9E73A
:10FB00006FF06D0323604FF0E609C3E73246022130
:10FB10003846F9F7E7FA20600028BDD1336823B1F1
:10FB2000012B9DD06FF06D0328E03246012138464D
:10FB3000F9F7D8FA20600028AED13368E3B9022182
:10FB40003846154AF9F7CEFADBF80030206088F81D
:10FB5000853098F8863043F0010388F88630002815
:10FB60009AD1324601213846F9F7BCFA3368206051
:10FB700033B94FF004098FE76FF0840323608BE7FC
:10FB8000C4F800A088E76FF06B03F7E7C419002002
:10FB90000CFEFFFFC0190020C81900202DE9F04716
:10FBA0000546084688460DF0F0FE344E344C0121DF
:10FBB0002846324AF9F796FA206040BB33681BBBEF
:10FBC00041462846FFF770F9B62720604FF000093C
:10FBD000DFF8B0A0206859EA000901D0BDE8F0873D
:10FBE000B52FE4D0B62F14D0042F40D132460121D6
:10FBF0002846F9F777FA206000282FD13368002BC8
:10FC000038D06FF06D032DE06FF06D032360B527E2
:10FC1000DCE7324601212846F9F764FA2060002823
:10FC2000D8D13368002BECD1324601212846F9F7B0
:10FC300059FA20600028CDD133688BB9284608F5E1
:10FC40008A71F9F7F2F920600028C3D13246012108
:10FC50002846F9F747FA336820602BB90427B9E73B
:10FC60006FF084032360B5E7C4F800A0B2E76FF03B
:10FC70006B03F7E74FF001090527ABE7C419002034
:10FC8000C01900200CFEFFFF2DE9F74F054608467E
:10FC90000E460DF004FE904F01213A462846F9F732
:10FCA00021FA8E4C2060B8B93B68002B47D13A4608
:10FCB00001212846F9F716FA206068B93B682BBB8A
:10FCC000DFF81C82052142462846F9F70BFAD8F8DE
:10FCD000003020603370E8B14FF08C0926E0B9F1B4
:10FCE000040F00F06D81A9F18C03032B00F27781E2
:10FCF000032B00F2748101A252F823F097FC000854
:10FD000045FD000887FE0008B3FE00086FF084037D
:10FD10002360E1E73A4601212846F9F7E3F93B6819
:10FD200020600BB16F4BF3E74FF08D094FF00008E7
:10FD3000206858EA0008D2D003B0BDE8F08F6FF019
:10FD40006D03E5E701212846634AF9F7CBF9206006
:10FD50000028EDD13B68002B40F0B980B01C0DF0BD
:10FD600057FEDFF874914A4601212846F9F7BAF99F
:10FD70002060E8B93B6893BB3389042B1FD84A46FF
:10FD800001212846F9F7AEF9206088B93B6893B99C
:10FD9000DFF84CA1012152462846F9F7A3F933892F
:10FDA000DAF80010F218013391702060338148B105
:10FDB0004FF0D20B18E06FF084032360F8E76FF088
:10FDC0006303FAE74A4601212846F9F78BF93B68B5
:10FDD00020603BB1434B23604FF08E09A8E76FF0E2
:10FDE0006D03F8E74FF0D30B4FF0000A27E04A46C7
:10FDF00002212846F9F776F9206000BB3B6823B161
:10FE0000012B3CD06FF06D0328E03389042B27D8F9
:10FE10004A4601212846F9F765F9206078B93B6820
:10FE2000D3B901212E4A2846F9F75CF92C4A3389C7
:10FE30001268F11801338A702060338198B1236809
:10FE40005AEA030AC8D1BBF1D20F8CD0BBF1D30F51
:10FE5000CDD06FF06B0301E06FF084032360EEE719
:10FE60006FF06303FAE74A4601212846F9F73AF9A9
:10FE70003B682060002BE2D01A4B2360B4E79A461F
:10FE80004FF0050BDBE701212846134AF9F72AF961
:10FE900020600028A0D1D7F80080B8F1000F16D15B
:10FEA000284606F10C01FFF76BF94FF08F0920602F
:10FEB0003EE702212846084AF9F714F92060002895
:10FEC0007FF436AF3B687BB1012B00F08B806FF085
:10FED0006D0323602AE700BFC4190020C019002069
:10FEE000C81900200CFEFFFF06F5947948460DF076
:10FEF0004DFDDFF8FCA0524601212846F9F7F2F843
:10FF00008346206020BB3B686BBBB6F8E839072B03
:10FF10001BD8591CA6F8E8194FF48C71284601FB30
:10FF20000391FFF73BFE4FF0B808206021685BEAC1
:10FF300001030DD1B8F1B70FDDD0B8F1B80F15D06E
:10FF40006FF06B0222609B46F0E76FF06303236063
:10FF500096F8EC394FF0000843F001034FF0040924
:10FF600086F8EC39E4E66FF06D03F0E752460221C3
:10FF700028460193F9F7B6F8019B834620600028D4
:10FF8000E1D1396821B1012916D06FF06D0111E07E
:10FF9000B6F8E81907290BD8481CA6F8E8094FF469
:10FFA0008C7000FB01912846FFF7F8FD2060BDE74B
:10FFB0006FF063012160B9E78B464FF00508B5E7A4
:10FFC000012128460A4AF9F78DF8206000287FF4BD
:10FFD000AFAE3B6833B16FF06D032360A8E66FF0FE
:10FFE0006B03FAE74FF001084FF00509A0E600BFE8
:10FFF000C41900202DE9F0470646084688460DF052
:020000040801F1
:10000000D3FC444DDFF810A101213046414AF9F7F5
:1000100069F8424C206088B92B68002B3CD12A46F5
:1000200001213046F9F75EF8206038B92B68DBB95A
:1000300041463046F8F76FFF2060C8B1BE2723E085
:10004000BE2FE1D0BF2F2AD0042F60D12A46012134
:100050003046F9F747F8206000284FD12B6853BB92
:100060004FF00109052711E06FF084032360E5E7F5
:100070002A4601213046F9F735F82B68206013B184
:10008000C4F800A0DAE7BF274FF00009206859EA5A
:100090000009D5D0BDE8F0876FF06D03E6E72A468A
:1000A00002213046F9F71EF820600028EED12B68B7
:1000B00023B1012BD4D06FF06D0323E02A46012138
:1000C0003046F9F70FF820600028DFD12B68BBB964
:1000D000304608F10201F8F7B5FF98F804302060C7
:1000E00043F0010388F804300028CFD12A460121CB
:1000F0003046F8F7F7FF2B6820602BB90427C5E7D7
:100100006FF084032360C1E7C4F800A0BEE76FF07E
:100110006B03F7E7C41900200CFEFFFFC019002095
:100120002DE9F74F054608460F460DF0BFFA654E1C
:10013000012132462846F8F7D5FF634C2060B8B954
:100140003368002B4AD1324601212846F8F7CAFF0E
:10015000206068B9336843BBDFF8708101214246F3
:100160002846F8F7BFFFD8F8003020603B7000B396
:100170004FF04E0829E0B8F14E0FD8D0B8F14F0F2C
:100180002FD0B8F1040F40F09480012128464D4A49
:10019000F8F7A8FF2060002852D13368002B00F048
:1001A0008B806FF06D03236011E06FF08403236098
:1001B000DEE7324601212846F8F794FF33682060D5
:1001C0000BB1434BF3E74FF04F084FF000092068A5
:1001D00059EA0009CFD003B0BDE8F08F6FF06D038E
:1001E000E5E701212846374AF8F77CFF2060002820
:1001F000EDD13368002BD4D107F1040A50460DF03D
:10020000CCF9DFF8C0B05A4601212846F8F76AFF5A
:1002100080462060A0B93368ABB9B7F884100F29C5
:100220000BD84B1CA7F8843028460AEBC101FFF716
:10023000E1FE1B232060009326E06FF06303236040
:100240004FF00408C3E76FF06D03F8E75A46022148
:1002500028460193F8F746FF019B80462060F8B9D5
:10026000316821B1012921D06FF06D011CE0B7F890
:1002700084100F2916D8481CA7F884000AEBC10186
:100280002846FFF7B7FE2060216858EA0103D7D15E
:10029000009A1A2AB7D01B2AD8D06FF06B022260BE
:1002A0009846F1E76FF063012160EDE7884605238A
:1002B000C1E76FF06B0376E74FF001094FF00508D7
:1002C00085E700BFC4190020C0190020C81900200C
:1002D0000CFEFFFF2DE9F8430546084688460DF061
:1002E000AFFB2A4E2A4C01212846284AF8F7FAFE8D
:1002F0002060A8B933689BBB324601212846F8F735
:10030000F1FE206060B933689BB9224F05213A465F
:100310002846F8F7E7FE3B68206088F8003060B1B7
:10032000DF2715E0042F1ED0DF2FDCD06FF06B032A
:1003300025E06FF084032360F2E73246012128466E
:10034000F8F7D0FE336820600BB1134BF3E70427B6
:100350004FF00009206859EA0009E3D0BDE8F883AE
:100360006FF06D03E7E7324601212846F8F7BAFE41
:1003700020600028EED133681BB16FF06D0323605D
:10038000E8E74FF001090527E4E700BFC4190020A2
:10039000C0190020C81900200CFEFFFF2DE9F8430A
:1003A0000546084688460DF0C8F82F4E2F4C01210F
:1003B00028462D4AF8F796FE206038BB3368002B9C
:1003C0003CD1324601212846F8F78CFE2060E8B97E
:1003D0003368EBB9284608F10801F8F79CFD206066
:1003E000A0B9B8F8081008290AD96FF0660323608D
:1003F0000CE0042F25D0072FD9D06FF06B032CE031
:1004000042462846F8F7FBFD206020B107270DE0A3
:100410006FF08403EBE7324601212846F8F762FECD
:10042000336820600BB1124BE1E704274FF000095D
:10043000206859EA0009DCD0BDE8F8836FF06D034D
:10044000D5E7324601212846F8F74CFE2060002807
:10045000EED133681BB16FF06D032360E8E74FF016
:1004600001090527E4E700BFC4190020C0190020D6
:100470000CFEFFFF2DE9F0470646084688460DF0C2
:100480008AFA644DDFF890A101213046614AF8F7FD
:1004900029FE624C2060A8B92B68A3BB2A46012123
:1004A0003046F8F71FFE206060B92B68C3B95C4F77
:1004B00005213A463046F8F715FE3B68206088F87B
:1004C000003088B1B9271BE0BA2F1FD0BB2F5AD0FC
:1004D000042F00F08F80B92FD6D06FF06B0335E07A
:1004E0006FF084032360EDE72A4601213046F8F7D8
:1004F000F9FD2B68206013B1C4F800A0E2E7BA2729
:100500004FF000092BE06FF06D03EBE72A46012165
:100510003046F8F7E7FD206008BB2B68002B3DD183
:100520002A4601213046F8F7DDFD2060B8B92B6876
:10053000DBB9304608F12201F8F7EDFC206070B914
:10054000B8F82210202903D96FF06603236006E073
:10055000304608F10202F8F752FD206040B12068F1
:1005600059EA0009B0D0BDE8F0876FF08403EDE7E9
:100570002A4601213046F8F7B5FD2B68206033B3D9
:10058000C4F800A0BCE72A4602213046F8F7AAFDCD
:100590002060E0B92B6823B1012B36D06FF06D03DA
:1005A000D4E72A4601213046F8F79CFD206070B957
:1005B0002B6873B9304608F12801F8F772FD98F8F6
:1005C0003030206043F0010388F8303028B1BB2779
:1005D000C5E76FF084032360F9E72A46012130461E
:1005E000F8F780FD2B6820600BB90427B7E7C4F843
:1005F00000A0B4E72A4601213046F8F773FD2060D9
:100600000028F2D12B68002BC8D14FF00109052733
:10061000A5E700BFC41900200CFEFFFFC019002091
:10062000C819002070B5054608460DF0E9F8134CCE
:10063000134E012132462846F8F754FD0346206048
:10064000A0B93268A2B16FF06D0222604021002291
:100650002068034302D002B1206070BD40296FF0D2
:100660006B0008D1002AE3D02360E1E70023EDE727
:1006700001230521EBE70122EBE700BFC0190020B1
:10068000C41900202DE9F8430546084688460DF0B8
:100690002CFA2A4E2A4C01212846284AF8F722FD36
:1006A0002060A8B933689BBB324601212846F8F781
:1006B00019FD206060B933689BB9224F05213A4685
:1006C0002846F8F70FFD3B68206088F8003060B1DD
:1006D000DF2715E0042F1ED0DF2FDCD06FF06B0377
:1006E00025E06FF084032360F2E7324601212846BB
:1006F000F8F7F8FC336820600BB1134BF3E70427DD
:100700004FF00009206859EA0009E3D0BDE8F883FA
:100710006FF06D03E7E7324601212846F8F7E2FC67
:1007200020600028EED133681BB16FF06D032360A9
:10073000E8E74FF001090527E4E700BFC4190020EE
:10074000C0190020C81900200CFEFFFF2DE9F84F4A
:10075000064608460D460DF082F8774F774C01218A
:100760003046754AF8F7BEFC2060C0BB3B689BBBB7
:10077000304605F58271F8F7CEFB206068B9B5F810
:100780000411012924D9023989B241232A4630466D
:10079000A5F80411F8F7F4FB20604FF083084FF040
:1007A0000009DFF89CA1206859EA000901D0BDE8E2
:1007B000F88FB8F1830F60D0B8F1840F5DD0B8F135
:1007C000140F20D0B8F1820FC9D06FF06B0352E044
:1007D0006FF09F032360E0E76FF06D0323604FF03D
:1007E0008208DCE74FF001094FF00508DBE76FF006
:1007F0009F03236095F8E0314FF0840843F0010334
:1008000085F8E031CFE73A4602213046F8F76AFC36
:10081000206040B93B68012BE4D0022B06D043BBDB
:100820006FF0840323604FF01408BCE7304605F5F1
:10083000EE71F8F770FB206070B9B5F8DC11012992
:1008400013D9023989B232233046A5F8DC1105F5F7
:100850008A72F8F795FB206095F8E03143F00103C8
:1008600085F8E0314FF000099DE76FF09F032360AA
:10087000F2E76FF06D03236095E73A4603213046B7
:10088000F8F730FC206000288DD13B68032B4ED850
:1008900001A252F823F000BFA908010821080108AD
:1008A000E5070108FB0801083A4601213046F8F740
:1008B00019FC206000287FF476AF3B68D3B930463E
:1008C00005F58471F8F7EDFB95F81031206043F0E1
:1008D000010385F8103100287FF465AF3A46012105
:1008E0003046F8F7FFFB3B682060002B9BD0C4F834
:1008F00000A0B7E76FF08403BDE7304605F5EE7161
:10090000F8F709FB206000287FF474AFB5F8DC111C
:1009100001297FF66CAF023989B232233046A5F83F
:10092000DC1105F58A72F8F72BFB206062E76FF0A7
:100930006D03236096E700BFC4190020C019002092
:100940000CFEFFFF2DE9F843064608460C460DF065
:100950001AF9DFF834928D4D022130468A4AF8F7B1
:10096000C1FB286038B9D9F80030FBB1012B42D067
:100970006FF06D032B6040F2171735E0142F00F075
:10098000B6806FF48B73FB18032B00F2F780032BF8
:1009900000F2F48001A252F823F000BF59090108C7
:1009A0002F0A01088F0A0108610B0108304604F57F
:1009B000CA71F8F7B0FA286070B9B4F89411012937
:1009C00015D9023989B232233046A4F8941104F1C2
:1009D000CC02F8F7D5FA28604FF48C7794F8983168
:1009E00043F0010384F898314FF0000835E06FF0D0
:1009F0009F032B60F0E7304604F1C801F8F78BFA4B
:100A0000286068B9B4F8C81001290CD9023989B234
:100A1000322322463046A4F8C810F8F7B1FA28600D
:100A200040F21917E0E76FF09F032B60F8E74A46A2
:100A300001213046F8F756FB286070B9D9F800302C
:100A4000002B40F09780304604F1C801F8F763FAB4
:100A50000746286038B140F21917286858EA00089C
:100A60008CD0BDE8F883B4F8C81001290BD902393D
:100A700089B2322322463046A4F8C810F8F780FA2B
:100A80002860B846E7E76FF09F032B60F9E74A4616
:100A900002213046F8F726FB28600028DBD1D9F880
:100AA00000309BB3012B65D1304604F51971F8F77E
:100AB00032FA286090B9B4F8641201290BD90239CE
:100AC00089B232233046A4F8641204F5CE72F8F7E6
:100AD00057FA286002E06FF09F032B6094F86832A9
:100AE0004FF48D7743F0010384F86832B5E74A4646
:100AF00002213046F8F7F6FA28600028ADD1D9F87F
:100B00000030012B3DD0022B05D02BBB6FF08403AE
:100B100014272B60A1E7304604F51971F8F7FBF9AB
:100B2000286070B9B4F86412012911D9023989B268
:100B300032233046A4F8641204F5CE72F8F720FA96
:100B4000286094F8683243F0010384F868324BE778
:100B50006FF09F032B60F4E76FF06D032B607CE771
:100B60004A4602213046F8F7BDFA286000287FF493
:100B700074AF94E76FF06D032B6035E76FF06B0394
:100B8000ECE79846052768E7C4190020C019002043
:100B90002DE9F843064608460D460CF032FFDFF813
:100BA0002C814B4C02213046484AF8F79BFA2060D2
:100BB00038B9D8F80030E3B1012B42D06FF06D03A3
:100BC0002360D02731E0D02FECD0D12F52D0042F8A
:100BD00075D1424601213046F8F784FA206000289A
:100BE0005BD1D8F80030002B6CD06FF06D03236020
:100BF0001DE0304605F1C801F8F78DF9206068B9AD
:100C0000B5F8C810012918D9023989B232232A4609
:100C10003046A5F8C810F8F7B3F92060D12795F849
:100C2000CC3043F0010385F8CC304FF00009206848
:100C300059EA0009C7D0BDE8F8836FF09F0323602D
:100C4000ECE7304605F50B71F8F765F9206008B15F
:100C50000427EAE7B5F82C12B1F5AF7F03D96FF09E
:100C600066032360F4E7304605F1CE02F8F7C7F9D2
:100C70002060EDE7424601213046F8F733FA206064
:100C80000028D4D1D8F80030002BAED1304605F57D
:100C90000B71F8F740F9206008B10427C7E7B5F8F1
:100CA0002C12B1F5AF7F06D8304605F1CE02F8F729
:100CB000A6F92060F1E76FF066032360EDE76FF0BF
:100CC0006B0394E74FF001090527B0E7C419002032
:100CD000C019002070B5054608460CF04CFD134CB9
:100CE000134E012132462846F8F7FCF903462060EE
:100CF000A0B93268A2B16FF06D02226040210022DB
:100D00002068034302D002B1206070BD40296FF01B
:100D10006B0008D1002AE3D02360E1E70023EDE770
:100D200001230521EBE70122EBE700BFC0190020FA
:100D3000C41900202DE9F047054608460E460CF080
:100D400051FE404F404C022128463E4AF8F7CAF96E
:100D5000206030B93B683BB3012B32D06FF06D039C
:100D600023604FF0CC084FF00009DFF8E0A02068C6
:100D700059EA000901D0BDE8F087B8F1CC0FE2D004
:100D8000B8F1CD0F27D0B8F1040F53D13A46012165
:100D90002846F8F7A7F92060002841D13B68002BCE
:100DA0004BD06FF06D0340E0284606F10801FDF7D7
:100DB0008BFE337D206043F0010333754FF0CD0887
:100DC000D1E731462846FFF785FF3379206043F0AD
:100DD00001033371F2E73A4601212846F8F782F918
:100DE00020600028C3D13B68002BDAD13A460121AC
:100DF0002846F8F777F920600028B8D13B6893B906
:100E0000284606F11601F8F71DF920600028AED13A
:100E10003A4601212846F8F765F93B68206033B966
:100E20004FF00408A3E76FF0840323609FE7C4F842
:100E300000A09CE76FF06B03F7E74FF001094FF05C
:100E4000050894E7C4190020C01900200CFEFFFF1C
:100E50002DE9F04F054687B008460E460CF013FD0D
:100E6000A94CAA4F02213A462846F8F73BF92060E0
:100E700030B93B687BB1012B22D06FF06D0323604A
:100E8000892713E08A2F25D08B2F5AD0892FE8D0BD
:100E90006FF06B0351E0284606F10801FDF714FEE0
:100EA000337D206043F0010333758A2700230293CA
:100EB000029B206803430293E4D007B0BDE8F08FA3
:100EC00031462846FFF706FF3379206043F00103DF
:100ED0003371EAE7DFF83482012142462846F8F709
:100EE00001F920600028E3D1D8F80030002B38D178
:100EF000424601212846F8F7F5F820600028D7D1AE
:100F0000D8F80030BBB9DFF808A2082152462846BD
:100F1000F8F7E8F8DAF80030206073750028C7D1D8
:100F2000424601212846F8F7DDF8D8F80030206065
:100F30002BB98B27BCE76FF084032360B8E7754BB0
:100F4000FBE7DFF8C881022142462846F8F7CAF8D5
:100F500020600028EDD1D8F800302BB1012B00F033
:100F60006A816FF06D03E8E7B6F86C81B8F1040FA1
:100F700000F25E8108F10103A6F86C31442303FB03
:100F800008F304931833F318184603930CF0F8FC95
:100F90005E4F01213A462846F8F7A4F8206080B950
:100FA0003B68FBB93A4601212846F8F79BF82060D8
:100FB00038B93B683BB928460399F7F7C6FF20606C
:100FC00028B1B12312E06FF084032360F9E73A46B9
:100FD00001212846F8F786F83B6820602BB14D4B7D
:100FE0002360A6E76FF06D03FAE7B22301930020B8
:100FF000236818439DD1019BB12BC9D0B22B02D0DD
:101000006FF06B030EE1DFF8049102214A46284697
:10101000F8F768F820600028E9D1D9F800202AB153
:10102000012A00F001816FF06D03FBE0442202FB16
:101030000862B2F858A0BAF1040F00F2F1800C2750
:10104000049B0AF1010107FB0A3707F11C00A2F813
:101050005810304420370CF05DFDF3190593012141
:1010600028462A4AF8F73EF82060E8B9D9F8002067
:101070006ABB4A4601212846F8F734F8206098B93F
:10108000D9F800209AB9224F02213A462846F8F7AB
:1010900029F844220C2102FB08F201FB0A223968DC
:1010A00032442060117730B140F2011714E06FF044
:1010B00084022260F8E74A4601212846F8F712F830
:1010C000D9F8002020602AB1124B23608FE76FF01F
:1010D0006D03FAE74FF481774FF0000B22685BEA6B
:1010E000020B84D1B7F5817F16D040F203129742EC
:1010F00040D0042F00F0848040F201129742AED01D
:101100006FF06B0234E000BFC0190020C41900204A
:10111000C81900200CFEFFFF01212846474AF7F7B7
:10112000E1FF20600028D9D1D9F8002072BB4A46DF
:1011300001212846F7F7D6FF20600028CED1D9F844
:1011400000209AB928460599F7F7FFFE206000288D
:10115000C4D14A4601212846F7F7C4FFD9F8002038
:101160002060002A39D0364B2360B7E76FF0840245
:101170002260B3E702212846304AF7F7B3FF206028
:1011800058BBD9F8002022B1012A45D06FF06D027A
:10119000EEE74A4601212846F7F7A4FF2060E0B9B0
:1011A000D9F80020E2B90321264A2846F7F79AFF2A
:1011B00044214FF00C0C01FB08F1224A0CFB0A11F0
:1011C00012683144033A81F8242091F825202060E8
:1011D00042F0010281F8252030B140F203177DE78B
:1011E0006FF084022260F8E74A4601212846F7F7AB
:1011F00079FFD9F800202060002AB4D104276DE7D8
:10120000012128460D4AF7F76DFF20600028F5D12F
:10121000D9F80020002AB9D14FF0010B05275DE76E
:101220006FF063032360E3E6052310460193DFE6D6
:101230006FF0630381E60527029339E6C4190020A5
:101240000CFEFFFFC81900202DE9F74F05460846A0
:101250000E460CF0F6FBA54F01213A462846F7F75B
:1012600041FFA34C206088B93B68002B3BD13A4634
:1012700001212846F7F736FF206038B93B68CBB923
:1012800031462846F7F7DEFE2060B8B14FF0E0099E
:1012900020E0B9F1E10F29D0B9F1E20F00F0C180EF
:1012A000B9F1040F00F04882B9F1E00FD3D06FF02C
:1012B0006B03C5E06FF084032360E7E73A46012142
:1012C0002846F7F70FFF3B6820600BB1894BF3E727
:1012D0004FF0E1094FF00008206858EA0008D8D024
:1012E00003B0BDE8F08F6FF06D03E5E701212846FC
:1012F0007E4AF7F7F7FE20600028EDD13B68002B0F
:1013000040F09C8006F1040A50460CF0CBF9DFF85F
:10131000DC914A4601212846F7F7E4FE206080B9B7
:101320003B6813BB4A4601212846F7F7DBFE2060E5
:1013300038B93B6843B951462846F7F783FE206029
:1013400030B14FF04B0B15E06FF084032360F8E7EA
:101350004A4601212846F7F7C5FE3B6820603BB1AD
:10136000644B23604FF0E209B6E76FF06D03F8E7D6
:101370004FF04C0B00230193019B22681343019310
:10138000F0D1BBF14C0F08D0BBF14D0F25D0BBF114
:101390004B0FBED06FF06B022DE04A46012128466C
:1013A000F7F7A0FE20600028E6D13A680ABBB6F83D
:1013B000801004290DD84B1CA6F88030182303FB9D
:1013C00001A128460431FFF7B5FC20604FF04D0B1A
:1013D000D2E76FF063032360F8E74A46022128460C
:1013E000F7F780FE20600028C6D13A682AB1012AAA
:1013F00013D06FF06D022260BEE7B6F880100429AA
:10140000E7D84A1CA6F88020182202FB01A1284632
:101410000431FFF78FFC2060AEE74FF0050B01921F
:10142000AAE702212846314AF7F75CFE206000282F
:1014300098D13B6833B1012B00F08B816FF06D03C5
:10144000236049E706F1840B58460CF059FBDFF89E
:101450009C904A4601212846F7F744FE2060002868
:1014600035D13B68002B3DD1284606F5A671F7F72C
:1014700052FD8046206050BBB6F84C11012923D99B
:10148000023989B232235A462846A6F84C11F7F79A
:1014900077FD4FF0FC0A2060236858EA030816D154
:1014A000AAF1FB03052B00F2448101A252F823F0BC
:1014B00053140108F9140108591501083B160108D5
:1014C0009B160108E91601086FF09F03236096F848
:1014D00010394FF0000843F001034FF0040986F87B
:1014E0001039F9E66FF06D03F0E700BFC419002072
:1014F000C01900200CFEFFFF4A4601212846F7F7DD
:10150000F1FD20600028C7D13B68002B2FD14A464F
:1015100001212846F7F7E6FD20600028BCD13B6892
:10152000B3B9284606F5A871F7F78CFD20600028AE
:10153000B2D14A46019001212846F7F7D3FD3A6817
:101540002060002A3DD0854B23604FF00008A3E7C0
:101550006FF0840323609FE74A4602212846F7F78D
:10156000C1FD206068BB3B6823B1012B40D06FF008
:101570006D03E9E74A4601212846F7F7B3FD2060ED
:10158000F8B93B6823BB284606F5EA71F7F7C3FCB8
:10159000206070B9B6F8D411012915D9023989B281
:1015A00020232846A6F8D41106F5AA72F7F7E8FC1E
:1015B000206096F8D83143F0010386F8D8312368CB
:1015C00053B14FF0FD0A67E76FF09F032360F0E728
:1015D0006FF084032360F4E74A4601212846F7F7B9
:1015E00081FD3B682060002BADD14FF0FE0A53E730
:1015F0004A46194628460193F7F774FD20600028F3
:10160000DFD13A68002AE3D1554A08212846F7F786
:1016100069FD534B20601A6886F8D9210028D0D183
:10162000019B4A4619462846F7F75CFD3B68206057
:10163000002B88D14FF0FF0A2EE74A4601212846A9
:10164000F7F750FD20600028CFD13B68002B8ED1EA
:101650004A4601212846F7F745FD20600028C4D1FD
:101660003B68B3B93E4A08212846F7F73BFD3C4AA0
:101670002060126886F8D9210028B6D14A46019028
:1016800001212846F7F72EFD3A682060002AD1D0C4
:1016900059E76FF084032360A7E74A4601212846F3
:1016A000F7F720FD20600028C4D13B68002B7FF4B1
:1016B0005EAFB6F80C19042912D84A1CA6F80C29FA
:1016C0004FF4B87202FB01B1284601F5AC710193E9
:1016D000FFF7BEFB019B206098464FF4807ADBE663
:1016E0006FF063032360F8E74A4602212846F7F7C4
:1016F000F9FC206000287FF4CFAE3B6833B1012BAA
:101700007FF435AF98464FF0050AC5E6B6F80C19D8
:101710000429E5D84A1CA6F80C294FF4B87202FB3C
:1017200001B1284601F5AC710193FFF791FB2060F0
:101730000BE76FF06B030DE701212846094AF7F725
:10174000D1FC206000287FF4C7AD3B68002B7FF4FC
:1017500075AE4FF001084FF00509BDE50CFEFFFF27
:10176000C8190020C41900202DE9F84F804608460A
:101770000E460BF091FFDFF8C490314D0121404639
:101780002E4AF7F7AFFC286060BBD9F8003033BBB6
:1017900006F50052B2F8643D042B1CD8591CA2F87F
:1017A000641D40F61411404601FB0361FFF74CFD38
:1017B00028604A2700246FF06B0A286850EA040B5F
:1017C00001D0BDE8F88F492FD8D04A2F0CD0C5F8EA
:1017D00000A05C46F1E76FF063032B60E9E76FF070
:1017E0006D032B604927E5E74A4602214046F7F79B
:1017F00079FC044628600028EBD1D9F8003023B1E9
:10180000012B18D06FF06D0313E006F50052B2F80B
:10181000643D042B0BD8591CA2F8641D40F614112A
:10182000404601FB0361FFF70FFD2860C5E76FF03D
:1018300063032B60C1E71C460527BEE7C4190020DF
:10184000C01900202DE9F84F0646084688460BF0DF
:1018500093FF8A4F8A4C01213046884AF7F742FCB1
:101860002060B0B93B68002B48D13A460121304690
:10187000F7F738FC206060B93B682BBB814D052130
:101880002A463046F7F72EFC2B68206088F8003097
:10189000F0B14FF0720927E0B9F1040F00F0D980E0
:1018A000A9F17203032B00F2E280032B00F2DF8028
:1018B00001A252F823F000BF5718010803190108CC
:1018C00075190108D31901086FF084032360E0E75C
:1018D0003A4601213046F7F705FC3B6820600BB122
:1018E000694BF3E74FF07309002508F5365B0BF100
:1018F0002C0B20680543CFD0BDE8F88F6FF06D0347
:10190000E4E73A4601213046F7F7ECFB2060002877
:10191000EFD13B684BBB3A4601213046F7F7E2FB7B
:1019200020600028E5D13B68BBB9564A012130460A
:10193000F7F7D8FB534A82461368206088F80130D5
:101940000028D6D13A4601213046F7F7CBFB3B6859
:10195000206033B94FF07409CBE76FF08403236044
:10196000C7E7494B55462360C3E76FF06D03054653
:101970002360BEE73A4602213046F7F7B3FB8246C2
:1019800020600028E6D13D6825B1012D13D06FF00D
:101990006D03E7E7304608F10C01FFF7E5FE08F5B7
:1019A000005292F8743D206043F0010382F8743DC8
:1019B0004FF075099DE7304608F10401FDF71AF96B
:1019C00098F80830554643F00103206088F8083045
:1019D000EEE73A4602213046F7F784FB8246206064
:1019E000002886D13D68012D14D0022D21D0002D74
:1019F000CDD1304608F53651F7F76AFE08F50052AA
:101A000092F8A83D206043F0010382F8A83D4FF012
:101A100004096EE759463046FAF7AEF808F5005269
:101A200092F8043E206043F0010382F8043E5546DC
:101A3000EDE708F5355130463831FBF705FD08F57F
:101A4000005292F87C3D206043F0010382F87C3D17
:101A5000EDE73A4601213046F7F744FB20600028C5
:101A60007FF447AF3B682BB16FF06D0377E76FF002
:101A70006B0374E701254FF005093AE7C41900200C
:101A8000C0190020C81900200CFEFFFF2DE9F84FF7
:101A9000064608460D460BF097FD974F974C0121DF
:101AA0003046954AF7F71EFB2060B0BB3B688BBB06
:101AB000304605F58271F7F72EFA206068B9B5F85F
:101AC0000411012922D9023989B241232A4630461C
:101AD000A5F80411F7F754FA20604FF027084FF0EB
:101AE0000009DFF81CA2206859EA000901D0BDE80E
:101AF000F88FB8F1270F13D0B8F1280F00F08480C9
:101B0000B8F1260FCBD06FF06B036CE06FF09F0342
:101B10002360E2E76FF06D0323604FF02608DEE7F5
:101B20003A4603213046F7F7DDFA20600028DAD183
:101B30003B68032B00F2DC80DFE803F007BB02C246
:101B40004FF001094FF00508CDE7B5F8A432002B9E
:101B50004BD13A4601213046F7F7C4FA20600028FD
:101B6000C1D13B68002B3CD14FF0CC0BB5F8A4128F
:101B700030460BFB015101F52871F7F7CCF92060D5
:101B8000A0B9B5F8A4220BFB02F2AB18B3F8A0126F
:101B9000012922D9023989B202F5EC72A3F8A01208
:101BA000304632232A44F7F7EBF92060B5F8A43227
:101BB000D4F800B00133A5F8A432BBF1000F92D1E4
:101BC0003A4601213046F7F78DFA3B682060C3B1F1
:101BD000C4F800A04FF0000985E76FF09F03236071
:101BE000E4E76FF0840323607DE76FF06303FAE7B7
:101BF0006FF09F03236095F8D43143F0010385F81B
:101C0000D4314FF028086EE73A4603213046F7F703
:101C100069FA20600028F4D13B68032B68D801A240
:101C200052F823F0351C0108B31C0108411B0108C0
:101C3000C11C0108B5F8A432002B3ED13A4601215F
:101C40003046F7F74FFA20600028DAD13B6883BBB3
:101C50004FF0CC0BB5F8A41230460BFB015101F547
:101C60002871F7F758F92060A0B9B5F8A4220BFB4A
:101C700002F2AB18B3F8A012012916D9023989B2C1
:101C800002F5EC72A3F8A012304632232A44F7F78B
:101C900077F92060B5F8A432D4F800B00133A5F884
:101CA000A432BBF1000F8BD0ABE76FF09F03236032
:101CB000F0E76FF084032360A3E76FF06303FAE7B4
:101CC000304605F5E871F7F726F92060002892D133
:101CD000B5F8D01101298BD9023989B232233046A7
:101CE000A5F8D01105F58472F7F74AF9206082E76C
:101CF0006FF06D0323606DE7C4190020C019002048
:101D00000CFEFFFF2DE9F84F804608460E460BF00B
:101D10006EFDDFF8AC902B4D01214046284AF7F7C5
:101D2000E1F9286030BBD9F8003003BBB6F8A8321F
:101D3000CBB9012331464046A6F8A832FFF7A6FEEC
:101D400028607C2700246FF06B0A286850EA040B97
:101D500001D0BDE8F88F7B2FDED07C2F0CD0C5F8EA
:101D600000A05C46F1E76FF063032B60E9E76FF0DA
:101D70006D032B607B27E5E74A4602214046F7F7D3
:101D8000B1F9044628600028EBD1D9F8003023B11E
:101D9000012B12D06FF06D030DE0B6F8A83243B9F5
:101DA000012331464046A6F8A832FFF76FFE2860AF
:101DB000CBE76FF063032B60C7E71C460527C4E73A
:101DC000C4190020C01900202DE9F84F0646084626
:101DD0000C460BF0A9FDDFF8E892BA4D032130461E
:101DE000B74AF7F77FF92860002840F0AF80D9F8AC
:101DF0000030042B00F2A780DFE803F01E476A8D55
:101E00009C00B8F1040F00F0A781A8F1A503052BF1
:101E100000F2B081052B00F2AD8101A252F823F04F
:101E2000DD1D0108531F0108092001085920010880
:101E300099200108CD200108304604F1C801F7F7C8
:101E40006AF8286068B9B4F8C810012919D90239AC
:101E500089B2322322463046A4F8C810F7F790F82A
:101E600028604FF0A60894F8CC3043F0010384F8C2
:101E7000CC300027DFF850B228680743C1D0BDE856
:101E8000F88F6FF09F032B60EBE7304604F51A7173
:101E9000F7F741F8286070B9B4F86812012913D92E
:101EA000023989B232233046A4F8681204F5D072A0
:101EB000F7F766F8286094F86C324FF0A70843F003
:101EC000010384F86C32D4E76FF09F032B60F2E7D4
:101ED000304604F5CC71F7F71EF8286070B9B4F8F5
:101EE0009811012913D9023989B232233046A4F856
:101EF000981104F1D002F7F743F8286094F89C3168
:101F00004FF0A80843F0010384F89C31B1E76FF06B
:101F10009F032B60F2E7304604F51C71FFF7F2FED9
:101F200094F81C354FF0A90843F00103286084F8A9
:101F30001C359EE7304604F5A461FBF7FDF84FF031
:101F4000AA08286095E76FF06D032B604FF0A50895
:101F50008FE74A4603213046F7F7C4F82860002887
:101F60008AD1D9F80030032B00F28480DFE803F037
:101F7000025C3242304604F51A71F6F7CCFF286055
:101F800070B9B4F86812012914D9023989B2322320
:101F90003046A4F8681204F5D072F6F7F1FF286015
:101FA00094F86C32002743F001034FF0A70884F83F
:101FB0006C3261E76FF09F032B60F1E76FF09F03D6
:101FC0002B6094F89C314FF0A80843F0010384F88B
:101FD0009C3151E7304604F51C71FFF793FE002752
:101FE00094F81C35286043F0010384F81C354FF049
:101FF000A90841E7304604F5A461FBF79DF80027E6
:1020000028604FF0AA0837E74A4602213046F7F722
:1020100069F8286000287FF42FAFD9F80030012B31
:10202000D8D0022BE6D02BBB304604F5CC71F6F7A6
:1020300072FF28600028C4D1B4F898110129BDD9D5
:10204000023989B232233046A4F8981104F1D00243
:10205000F6F796FF2860B4E74A4602213046F7F7C4
:1020600041F8286000287FF407AFD9F8007037B135
:10207000012FBFD06FF06D032B600027FCE63046C8
:1020800004F51C71FFF73EFE94F81C35286043F000
:10209000010384F81C35AAE74A4601213046F7F7C8
:1020A00021F8286000287FF4E7AED9F80070002FEF
:1020B000E0D1304604F5A461FBF73EF82860A0E7C4
:1020C000C4190020C01900200CFEFFFF4A46012160
:1020D0003046F7F707F8286000287FF4CDAED9F82E
:1020E0000030002BC6D14A4601213046F6F7FAFFF0
:1020F000286000287FF4C0AED9F8003033BB3046EA
:1021000004F65601F6F707FF286000287FF4B4AE06
:10211000B4F85618B1F5AF7F03D96FF066032B60A2
:10212000AAE6304604F5DF62F6F769FF286000286A
:102130007FF4A2AE4A4601213046F6F7D3FFD9F824
:10214000003028602BB94FF0040895E66FF0840347
:10215000E5E7C5F800B090E74A4601213046F6F7BA
:10216000C1FF28600028EED1D9F800302BB16FF004
:102170006D03D4E76FF06B03D1E701274FF005083B
:102180007AE600BF2DE9F047074608460D460BF0FA
:10219000ADFCDFF8A491694C02213846664AF6F797
:1021A000A1FF206038B9D9F80030FBB1012B46D02F
:1021B0006FF06D0323604FF0F70834E0B8F1CB0FF8
:1021C00000F09480A8F1F703032B00F2AD80032BFD
:1021D00000F2AA8001A252F823F000BF9921010861
:1021E000512201087B220108A3220108384605F18B
:1021F000C801F6F790FE206068B9B5F8C81001294B
:1022000019D9023989B232232A463846A5F8C810AE
:10221000F6F7B6FE20604FF0F80895F8CC3043F0A2
:10222000010385F8CC3000264FF0010A20680643F0
:10223000C4D0BDE8F0876FF09F032360EBE738461A
:1022400005F1D001F7F704FB4FF0F9082060EAE749
:102250004A4601213846F6F745FF20600028E5D1BF
:10226000D9F80060002E3CD1384605F1D001F7F7CF
:10227000EFFA4FF0F9082060D8E74A4601213846C6
:10228000F6F730FF20600028D0D1D9F8006046BBB7
:10229000384605F52A71FEF759FA4FF0FA08206022
:1022A000C4E74A4601213846F6F71CFF20600028A3
:1022B000BCD1D9F80030A3B9B5F8E88CB8F1000F5B
:1022C0000BD13846A5F8E8AC05F59261FFF77CFD27
:1022D000464620604FF0CB08A8E76FF06303236009
:1022E000F8E76FF06D03064623609FE74A46022138
:1022F0003846F6F7F7FE2060002897D1D9F800306D
:102300002BB1012B13D06FF06D0323608EE7B5F86E
:10231000E83C002BE1D13846A5F8E8AC05F5926120
:10232000FFF752FD206081E76FF06B03EDE71E467B
:102330004FF005087AE700BFC4190020C01900203B
:102340002DE9F843064608460C460BF0EEFBDFF895
:10235000B4916D4D032130466A4AF6F7C3FE8046BC
:102360002860002841D1D9F80030032B64D8DFE879
:1023700003F01441A9C4B7F5857F61D040F20B1377
:102380009F4200F08E80042F00F0AA8040F20913D3
:102390009F42DFD06FF06B0392E0304604F5CC71C2
:1023A000F6F7B9FD286070B9B4F89811012918D969
:1023B000023989B232233046A4F8981104F1D002D0
:1023C000F6F7DEFD28604FF4857794F89C3143F0F2
:1023D000010384F89C31286858EA0008CBD0BDE896
:1023E000F8836FF09F032B60EDE74FF0000840F299
:1023F0000917F0E7304604F1C801F6F78CFD2860B4
:1024000068B9B4F8C810012912D9023989B2322347
:1024100022463046A4F8C810F6F7B2FD286094F8BA
:10242000CC3043F0010384F8CC3040F20B17D2E7F4
:102430006FF09F032B60F2E76FF06D032B60D6E720
:102440004A4602213046F6F74DFE28600028C2D1E8
:10245000D9F80030012B35D0022B4ED073BB30465B
:1024600004F1C801F6F757FD286068B9B4F8C81040
:10247000012912D9023989B2322322463046A4F802
:10248000C810F6F77DFD286094F8CC304FF00008B6
:1024900043F0010384F8CC30C7E76FF09F032B6053
:1024A000F2E74A4602213046F6F71CFE2860002873
:1024B00091D1D9F800302BB1012B1ED06FF06D03F4
:1024C0002B6088E7304604F5D071FFF71BFC94F8C9
:1024D0004C34042743F00103286084F84C347AE735
:1024E0004A4601213046F6F7FDFD286000287FF4BA
:1024F00072AFD9F80030002BE0D14FF0010805276A
:1025000069E700BFC4190020C01900202DE9F84375
:102510000646084688460BF081F8DFF86C901B4CA5
:1025200001213046184AF6F7DDFD2060C0B9D9F820
:10253000003093B941463046F9F75AFC0425206033
:1025400000272068074301D0BDE8F883042D09D097
:10255000372DE5D06FF06B0311E06FF06D03236052
:102560003725EDE74A4601213046F6F7BBFD2060EE
:102570000028E6D1D9F800301BB16FF06D0323605D
:10258000DFE701270525DCE7C4190020C01900207A
:102590002DE9F0470646084689460AF0E7FF4D4F09
:1025A0004D4C012130464B4AF6F79CFD2060B0B9F6
:1025B0003B68002B4ED13A4601213046F6F792FD9A
:1025C000206060B93B686BBB444D05212A4630460C
:1025D000F6F788FD2B68206089F8003030B34FF0A3
:1025E0000D082FE0A8F104030B2B6BD801A252F8C1
:1025F00023F000BFA7260108C5260108C52601084B
:10260000C5260108C5260108C5260108C5260108FA
:10261000C5260108C5260108A32501085B26010877
:10262000812601086FF084032360D8E73A46012130
:102630003046F6F757FD3B6820600BB1284BF3E7B7
:102640004FF00E0800256FF06B0A20680543C9D0D3
:10265000BDE8F0876FF06D03E6E73A4601213046AA
:10266000F6F740FD20600028EFD13D682DBB3046D5
:1026700009F10401F8F7D0FE4FF00F082060E4E7FD
:102680003A4601213046F6F72DFD20600028DCD1C6
:102690003D6895B9304609F11001F6F755FD4FF048
:1026A00004082060D1E73A4601213046F6F71AFDCA
:1026B00020600028C9D13B683BB16FF06D0305462F
:1026C0002360C2E7C4F800A0BFE701254FF005086A
:1026D000BBE700BFC4190020C0190020C8190020A2
:1026E0000CFEFFFF2DE9F0470646084688460BF032
:1026F0005AF94B4DDFF82C9101213046484AF6F744
:10270000F1FC494C206008BB2B68002B4FD12A46B6
:1027100001213046F6F7E6FC2060B8B92B687BBB98
:10272000304608F1C801F6F7F6FB206070B9B8F83A
:10273000C810012920D9023989B2322342463046D5
:10274000A8F8C810F6F71CFC2060E0B1BC2726E012
:10275000BC2FD1D0BD2F2DD0042F59D12A46012115
:102760003046F6F7BFFC2060002848D12B68002BCC
:1027700051D06FF06D0346E06FF09F032360E5E7F3
:102780006FF08403FAE72A4601213046F6F7AAFCE7
:102790002B68206013B1C4F80090D7E7BD274FF035
:1027A000000A20685AEA000AD2D0BDE8F0876FF02C
:1027B0006D03E3E72A4601213046F6F793FC2060DB
:1027C0000028EED12B68002BD3D12A4601213046B8
:1027D000F6F788FC20600028E3D12B688BB93046DF
:1027E00008F1D001F6F75DFC20600028D9D12A4617
:1027F00001213046F6F776FC2B6820602BB90427C0
:10280000CFE76FF084032360CBE7C4F80090C8E7FC
:102810006FF06B03F7E74FF0010A0527C1E700BF30
:10282000C41900200CFEFFFFC01900202DE9F84F4D
:10283000064608460C460AF0D2FEAF4FDFF8BCA2AF
:1028400003213046AC4AF6F74DFCAD4D2860002818
:102850006ED13B68052B00F21F81DFE813F01000FA
:1028600024006F00AA00E1001A01B9F12E0FE7D091
:10287000B9F12F0F00F013816FF06B033AE1B4F858
:10288000D83063B9012321463046A4F8D830FFF789
:1028900029FF28604FF02F094FF0000821E16FF069
:1028A00063032B60F6E7B4F84032002B43D13A467D
:1028B00001213046F6F716FC2860002838D13B6825
:1028C0009BBB4FF4B078B4F84012304608FB01418E
:1028D00001F23E21F6F71FFB286060B9B4F84022F0
:1028E00008FB02F2A318B3F83E12B1F5AF7F15D979
:1028F0006FF066032B60B4F840320133A4F8403225
:102900002B68ABB93A4601213046F6F7EBFB3B6842
:102910002860002BBED0C5F800A009E0E0323046A8
:102920002244F6F76CFB2860E5E76FF084032B6028
:102930004FF02E09B0E76FF06303F8E7B4F81033F7
:10294000002BF8D13A4601213046F6F7CBFB286040
:102950000028EDD13B68002BE7D14FF0CC08B4F84C
:102960001013304608FB014101F54371F6F7D3FA25
:102970002860A0B9B4F8102308FB02F2A318B3F83A
:102980000C13012911D9023989B202F51172A3F889
:102990000C13304632232244F6F7F2FA2860B4F8DA
:1029A00010330133A4F81033AAE76FF09F032B60B4
:1029B000F5E7B4F87434002BBDD13A460121304616
:1029C000F6F790FB28600028B2D13B68002BACD111
:1029D0004FF4B078B4F87414304608FB014101F2AA
:1029E0007241F6F798FA286080B9B4F8742408FBAD
:1029F00002F2A318B3F87214B1F5AF7F0CD802F548
:102A0000457230462244F6F7FAFA2860B4F8743476
:102A10000133A4F8743473E76FF066032B60F5E7B5
:102A2000B4F8D635002B86D13A4601213046F6F768
:102A300059FB286000287FF47BAF3B68002B7FF4B4
:102A400074AF4FF4B078B4F8D615304608FB0141A6
:102A500001F2D451F6F75FFA286080B9B4F8D625B0
:102A600008FB02F2A318B3F8D415B1F5AF7F0CD868
:102A700002F2764230462244F6F7C1FA2860B4F8F2
:102A8000D6350133A4F8D6353AE76FF066032B60EC
:102A9000F5E76FF0840304E76FF06D0347E73A460C
:102AA00003213046F6F71EFB8046286000287FF49D
:102AB000F3AE3B68062B00F22281DFE813F007003B
:102AC00023007000AC00E4001D012301B4F8D830ED
:102AD00073B9012321463046A4F8D830FFF702FE2F
:102AE0002860286850EA08083FF4BFAEBDE8F88FB8
:102AF0006FF063032B60F4E7C41900200CFEFFFFA6
:102B0000C0190020B4F84032002B45D13A460121CB
:102B10003046F6F7E7FA286000287FF4BDAE3B6840
:102B2000B3BB4FF4B07BB4F8401230460BFB01410D
:102B300001F23E21F6F7EFF9286078B9B4F84022A7
:102B40000BFB02F2A318B3F83E12B1F5AF7F1BD80E
:102B5000E03230462244F6F752FA2860B4F84032A8
:102B60000133A4F840322B68002B7FF495AE3A462F
:102B700001213046F6F7B6FA3B682860002B3FF497
:102B80008BAEC5F800A0ACE76FF066032B60E5E7FD
:102B90006FF084032B607FE66FF06303FAE7B4F80D
:102BA0001033002BF8D13A4601213046F6F79AFA55
:102BB000286000287FF470AE3B68002BE8D14FF00E
:102BC000CC0BB4F8101330460BFB014101F54371F7
:102BD000F6F7A1F92860A0B9B4F810230BFB02F2B4
:102BE000A318B3F80C13012911D9023989B202F5DF
:102BF0001172A3F80C13304632232244F6F7C0F9C1
